:100000000C9463000C948B000C948B000C948B006C
:100010000C948B000C948B000C948B000C948B0034
:100020000C948B000C948B000C948B000C948B0024
:100030000C948B000C948B000C948B000C948B0014
:100040000C9455050C948B000C9418070C948B00A1
:100050000C948B000C948B000C948B000C948B00F4
:100060000C948B000C948B000000000024002700EF
:100070002A0000000000250028002B0000000000DE
:1000800023002600290004040404040404040202DA
:100090000202020203030303030301020408102007
:1000A0004080010204081020010204081020000012
:1000B0000007000201000003040600000000000029
:1000C0000000EE00610811241FBECFEFD8E0DEBFB4
:1000D000CDBF11E0A0E0B1E0EAEEF5E102C005908D
:1000E0000D92A232B107D9F711E0A2E2B1E001C04E
:1000F0001D92A83DB107E1F710E0C6ECD0E004C0C6
:100100002297FE010E94B80AC23CD107C9F70E949B
:100110004E050C94F30A0C940000A0E0B0E0E3E973
:10012000F0E00C94C40AEC01A880B980CA80DB809E
:10013000A114B104C104D10441F484E2A82E89EDD4
:10014000B82E8BE5C82E87E0D82EC601B5012DE16B
:1001500033EF41E050E00E94870A27EA31E440E0B3
:1001600050E00E94330A7B018C01C601B5012DE1EC
:1001700033EF41E050E00E94870ACA01B9012CEE3A
:1001800034EF4FEF5FEF0E94330A6E0D7F1D801F2B
:10019000911F97FF04C06150704080409048688371
:1001A00079838A839B839B01AC015F77B901CA0184
:1001B000CDB7DEB7EAE00C94E00A0E948D00089506
:1001C00080E091E00E948D0008956093000170939B
:1001D0000101809302019093030108956FEF70E095
:1001E00080E090E00E94110A609327016FEF70E0B9
:1001F00080E090E00E94110A609328016FEF70E0A8
:1002000080E090E00E94110A6093290108956091B6
:1002100024018091040170E00E9403066091250191
:100220008091060170E00E94030660912601809192
:10023000080170E00E94030608952F923F924F92AA
:100240005F926F927F928F929F92AF92BF92CF9266
:10025000DF92EF92FF920F931F93E0912C01F091A8
:100260002D0160912401EF3FF10511F00CF04FC01A
:1002700000D000D070E080E090E09F01442737FD7F
:100280004095542FEDB7FEB72183328343835483C7
:1002900020E030E040E050E0AFEFEA2EF12C012DFD
:1002A000112DAA24BB2465010E94C8096093240172
:1002B0006091250170E080E090E020912C01309168
:1002C0002D01442737FD4095542FEDB7FEB721830C
:1002D00032834383548320E030E040E050E00E94CA
:1002E000C809609325016091260170E080E090E0EC
:1002F00020912C0130912D01442737FD4095542F3A
:10030000EDB7FEB7218332834383548344C0EF5F4C
:10031000F0401F01442437FC4094542C00D000D0FE
:1003200070E080E090E0FFEF6F2E712C812C912C1B
:10033000EDB7FEB7618272828382948220E030E062
:1003400040E050E0EFEFEE2EF12C012D112D620177
:1003500051010E94C809609324016091250170E059
:1003600080E090E0EDB7FEB7618272828382948272
:1003700020E030E040E050E00E94C8096093250191
:100380006091260170E080E090E0EDB7FEB76182F9
:1003900072828382948220E030E040E050E00E944C
:1003A000C809609326010F900F900F900F901F9136
:1003B0000F91FF90EF90DF90CF90BF90AF909F9004
:1003C0008F907F906F905F904F903F902F90089507
:1003D000AF92BF92CF92DF92EF92FF920F931F9353
:1003E00020912A0130912B012A3A310550F58FEFE7
:1003F000809324011092260100D000D0B9018827F3
:1004000077FD8095982F2FEF30E040E050E0EDB77A
:10041000FEB7218332834383548320E030E040E001
:1004200050E0AAEAEA2EF12C012D112DAA24BB24BA
:1004300065010E94C809609325010F900F900F90ED
:100440000F9020912A0130912B01C9018A5A9040C6
:100450008B3A910550F58FEF80932501109226017C
:1004600000D000D0B901882777FD8095982F2FEF15
:1004700030E040E050E0EDB7FEB7218332834383A4
:10048000548325E531E040E050E0FAEAEF2EF12C0C
:10049000012D112DAA24BB2465010E94C809609377
:1004A00024010F900F900F900F9020912A0130910E
:1004B0002B01C901855591408A3A910558F58FEF76
:1004C000809325011092240100D000D0B901882723
:1004D00077FD8095982F2FEF30E040E050E0EDB7AA
:1004E000FEB7218332834383548325E531E040E026
:1004F00050E0EFEFEE2EE1E0FE2E012D112DAA24AB
:10050000BB2465010E94C809609326010F900F90DB
:100510000F900F9020912A0130912B01C9018F5F1C
:1005200091408B3A910558F58FEF809326011092F8
:10053000240100D000D0B901882777FD8095982F3D
:100540002FEF30E040E050E0EDB7FEB7218332837B
:10055000438354832AEA32E040E050E00FEFE02E7C
:1005600001E0F02E012D112DAA24BB2465010E946B
:10057000C809609325010F900F900F900F90209164
:100580002A0130912B01C9018A5A92408A3A910579
:1005900058F58FEF809326011092250100D000D0EE
:1005A000B901882777FD8095982F2FEF30E040E044
:1005B00050E0EDB7FEB721833283438354832AEAA8
:1005C00032E040E050E014E5E12E13E0F12E012D81
:1005D000112DAA24BB2465010E94C809609324013F
:1005E0000F900F900F900F9020912A0130912B01C6
:1005F000C901845593408C3A910558F58FEF80934B
:1006000024011092250100D000D0B901882777FD80
:100610008095982F2FEF30E040E050E0EDB7FEB727
:1006200021833283438354832FEF33E040E050E053
:10063000B4E5EB2EB3E0FB2E012D112DAA24BB2433
:1006400065010E94C809609326010F900F900F90DA
:100650000F9080912A0190912B018050944039F4A1
:100660008FEF8093240180932501809326011F91B1
:100670000F91FF90EF90DF90CF90BF90AF900895D3
:10068000AF92BF92CF92DF92EF92FF920F931F93A0
:1006900080910A010E94E50590932B0180932A0125
:1006A00080910C010E94E50500D000D0AA2797FD9B
:1006B000A095BA2F2EEF31E040E050E0EDB7FEB745
:1006C0002183328343835483BC01CD0120E030E099
:1006D00040E050E01FEFE12E13E0F12E012D112D2F
:1006E000AA24BB2465010E94C809AB01BC01509338
:1006F0002D0140932C010F900F900F900F906627C3
:1007000057FD6095762F85EC91E02AE030E00E945D
:10071000BD0980910E010E94C9069C01909335018C
:100720008093340180913601909137012817390761
:1007300069F12130310531F5809122019091230139
:100740008130910589F0823091051CF4892B39F0B4
:1007500019C08230910559F00397A1F40FC030936E
:100760002301209322010EC082E090E002C083E0CA
:1007700090E0909323018093220104C01092230102
:10078000109222013093370120933601809122018B
:1007900090912301892B91F48091040160E070E035
:1007A0000E9403068091060160E070E00E9403064B
:1007B0008091080160E070E00E94030680912201B0
:1007C00090912301019731F40E94E8010E941D01DC
:1007D0000E9407018091220190912301029709F064
:1007E000AFC00E949D0520912E0130912F014091B4
:1007F000300150913101621B730B840B950B2091DA
:1008000010013091110140911201509113012617EE
:1008100037074807590708F093C00E949D05609369
:100820002E0170932F0180933001909331010E942B
:10083000E8018091320190913301209114013091AF
:100840001501892B79F4C9010197909315018093C3
:100850001401892BA1F481E090E0909333018093FF
:1008600032010DC0C90101969093150180931401C6
:100870008F3F910524F0109233011092320100D085
:1008800000D06091240170E080E090E0209114019C
:1008900030911501442737FD4095542FEDB7FEB731
:1008A000218332834383548320E030E040E050E0F2
:1008B000BFEFEB2EF12C012D112DAA24BB246501D5
:1008C0000E94C809609324016091260170E080E0D5
:1008D00090E02091140130911501442737FD409597
:1008E000542FEDB7FEB7218332834383548320E036
:1008F00030E040E050E00E94C8096093260160911A
:10090000250170E080E090E0209114013091150104
:10091000442737FD4095542FEDB7FEB7218332832E
:100920004383548320E030E040E050E00E94C80957
:10093000609325010F900F900F900F900E94070178
:100940008091220190912301039709F07CC00E94BD
:100950009D0520912E0130912F0140913001509141
:100960003101621B730B840B950B209110013091A8
:1009700011014091120150911301261737074807C2
:10098000590708F060C00E949D0560932E01709386
:100990002F01809330019093310180912401309197
:1009A0002701381718F48150809324018091240185
:1009B000831718F48F5F8093240180912501209183
:1009C0002801281718F48150809325018091250172
:1009D000821718F48F5F80932501809126019091F2
:1009E0002901981718F481508093260180912601DF
:1009F000891718F48F5F8093260180912401831753
:100A000001F5809125018217E1F480912601891773
:100A1000C1F46EEF70E080E090E00E94110A6093F4
:100A200027016EEF70E080E090E00E94110A609371
:100A300028016EEF70E080E090E00E94110A609360
:100A400029010E9407011F910F91FF90EF90DF9005
:100A5000CF90BF90AF9008958091040161E00E9413
:100A60005C068091060161E00E945C0680910801AD
:100A700061E00E945C0680910A0160E00E945C06D1
:100A800080910E0160E00E945C0685EC91E040E8F8
:100A900055E260E070E00E94550708950E94AB05A2
:100AA0000E942C050E944003FDCF1F920F920FB6AB
:100AB0000F9211242F933F938F939F93AF93BF93E4
:100AC00080913C0190913D01A0913E01B0913F0188
:100AD000309140010196A11DB11D232F2D5F2D37AF
:100AE00020F02D570196A11DB11D20934001809348
:100AF0003C0190933D01A0933E01B0933F01809152
:100B0000380190913901A0913A01B0913B010196D1
:100B1000A11DB11D8093380190933901A0933A0132
:100B2000B0933B01BF91AF919F918F913F912F91D6
:100B30000F900FBE0F901F9018958FB7F8942091CB
:100B40003C0130913D0140913E0150913F018FBFEA
:100B5000B901CA010895789484B5826084BD84B5D2
:100B6000816084BD85B5826085BD85B5816085BDA8
:100B7000EEE6F0E0808181608083E1E8F0E0808152
:100B800082608083808181608083E0E8F0E0808102
:100B900081608083E1EBF0E0808184608083E0EB22
:100BA000F0E0808181608083EAE7F0E0808184600A
:100BB0008083808182608083808181608083808166
:100BC000806880831092C10008958F709091160103
:100BD0009295990F990F907C982B90937C0080911F
:100BE0007A00806480937A0080917A0086FDFCCF41
:100BF0002091780040917900942F80E030E0282BFC
:100C0000392BC90108951F93CF93DF93182FEB0160
:100C100061E00E945C06E12FF0E0E255FF4F849115
:100C2000833051F480918000806880938000D0935D
:100C30008900C09388003CC0843051F480918000CA
:100C4000806280938000D0938B00C0938A0030C074
:100C5000813039F4209729F184B5806884BDC7BDFF
:100C600027C0823039F42097E1F084B5806284BDDA
:100C7000C8BD1EC0863041F48091B000806880936A
:100C8000B000C093B30014C0873041F48091B0002D
:100C900080628093B000C093B4000AC0C038D10510
:100CA0001CF4812F60E002C0812F61E00E947C066D
:100CB000DF91CF911F910895282F30E0C90186560A
:100CC0009F4FFC0194912A573F4FF901849188234B
:100CD00091F0E82FF0E0EE0FFF1FE859FF4FA591CC
:100CE000B491662329F48C91909589238C9308956F
:100CF0008C91892B8C930895482F50E0CA0182551E
:100D00009F4FFC012491CA0186569F4FFC0194918C
:100D10004A575F4FFA0134913323D1F1222331F145
:100D2000233021F4809180008F7705C0243031F486
:100D3000809180008F7D8093800018C0213019F44D
:100D400084B58F7704C0223021F484B58F7D84BDB3
:100D50000DC0263021F48091B0008F7705C0273078
:100D600029F48091B0008F7D8093B000E32FF0E0F4
:100D7000EE0FFF1FEE58FF4FA591B491662329F4A3
:100D80008C91909589238C9308958C91892B8C93C9
:100D90000895682F70E0CB0182559F4FFC0124918C
:100DA000CB0186569F4FFC0144916A577F4FFB0150
:100DB0009491992319F420E030E038C0222331F1D6
:100DC000233021F4809180008F7705C0243031F4E6
:100DD000809180008F7D8093800018C0213019F4AD
:100DE00084B58F7704C0223021F484B58F7D84BD13
:100DF0000DC0263021F48091B0008F7705C02730D8
:100E000029F48091B0008F7D8093B000892F90E00D
:100E1000880F991F84589F4FFC01A591B4918C9124
:100E200020E030E0842311F021E030E0C901089592
:100E30001F920F920FB60F9211242F933F934F934F
:100E40005F936F937F938F939F93AF93BF93EF9332
:100E5000FF934091C600E091C101F091C201CF0122
:100E6000019660E870E00E94520A9C018091C301E3
:100E70009091C4012817390739F0EF5BFE4F40838A
:100E80003093C2012093C101FF91EF91BF91AF91C7
:100E90009F918F917F916F915F914F913F912F9192
:100EA0000F900FBE0F901F9018955F926F927F92D8
:100EB0008F929F92AF92BF92CF92DF92EF92FF926A
:100EC0000F931F93CF93DF93EC013A014B01413411
:100ED00082E458078FE0680780E078070CF07FC055
:100EE00060E874E88EE190E0A40193010E94870A13
:100EF0002150304040405040CA01B90122E030E06A
:100F000040E050E00E94870A59016A01A60195015C
:100F1000209530954095509594E0220F331F441F43
:100F2000551F9A95D1F760E074E284EF90E00E943B
:100F3000870ACA01B9012FEF30E040E050E00E947B
:100F4000330AA40193010E94870AC90181509F4F6F
:100F5000181619061CF4522E5A9403C055245394A3
:100F6000521A60E079E08DE390E0A40193010E94C1
:100F7000870A2150304040405040CA01B90122E068
:100F800030E040E050E00E94870A2095309540957F
:100F9000509583E0220F331F441F551F8A95D1F7C8
:100FA00060E074E284EF90E00E94870ACA01B90110
:100FB0002FEF30E040E050E00E94330AA40193019B
:100FC0000E94870AC90181509F4F181619061CF408
:100FD000822F815002C081E0821B851500F5E885D3
:100FE000F98581E090E00A8802C0880F991F0A9471
:100FF000E2F7808360E079E08DE390E0A401930163
:101000000E94870A2150304040405040CA01B90137
:1010100022E030E040E050E00E94870A04C0E8850A
:10102000F98510829501EC81FD813083EE81FF818D
:101030002083EA85FB85208141E050E0CA010E84CF
:1010400002C0880F991F0A94E2F7282B2083EA85B3
:10105000FB852081CA010F8402C0880F991F0A9462
:10106000E2F7282B2083EA85FB858081088802C06F
:10107000440F551F0A94E2F7842B8083DF91CF91B0
:101080001F910F91FF90EF90DF90CF90BF90AF90A6
:101090009F908F907F906F905F900895FC01A08546
:1010A000B18521898C9190E0022E02C0959587959B
:1010B0000A94E2F780FFF6CF0484F585E02D608383
:1010C00008958BE191E09093C6018093C50181E47E
:1010D00091E09093C8018093C70185EC90E09093D4
:1010E000CA018093C90184EC90E09093CC01809375
:1010F000CB0180EC90E09093CE018093CD0181EC08
:1011000090E09093D0018093CF0186EC90E0909393
:10111000D2018093D10184E08093D30183E0809356
:10112000D40187E08093D50185E08093D60181E0EA
:101130008093D70108950F931F93CF93DF938C0172
:10114000EB0109C02196D801ED91FC910190F0814D
:10115000E02DC801099568816623A1F7DF91CF9141
:101160001F910F910895EF92FF920F931F93CF93CA
:10117000DF938C017B01EA010CC0D7016D917D01E9
:10118000D801ED91FC910190F081E02DC801099505
:101190002197209791F7DF91CF911F910F91FF90A9
:1011A000EF9008950F931F938C01DC01ED91FC915A
:1011B0000190F081E02D6DE00995D801ED91FC9151
:1011C0000190F081E02DC8016AE009951F910F910F
:1011D00008952F923F924F925F926F927F928F92DB
:1011E0009F92AF92BF92CF92DF92EF92FF920F93B6
:1011F0001F93DF93CF93CDB7DEB7A0970FB6F894C8
:10120000DEBF0FBECDBF1C016A017B014115510538
:101210006105710549F4DC01ED91FC910190F081CB
:10122000E02D60E3099554C0882499245401422E8E
:1012300055246624772401E010E00C0F1D1F080DD3
:10124000191DC701B601A30192010E94650AF801A8
:1012500060830894811C911CA11CB11CC701B601BC
:10126000A30192010E94650AC901DA016C017D01A6
:10127000C114D104E104F104F1F681E0E82EF12C6F
:10128000EC0EFD1EE80CF91C3E010894611C711C5B
:10129000D501C4010197A109B1096C01C818D90889
:1012A00014C0F601EE0DFF1D60816A3010F4605D20
:1012B00001C0695CD101ED91FC910190F081E02DBC
:1012C000C10109950894E108F1086E147F0449F7FB
:1012D000A0960FB6F894DEBF0FBECDBFCF91DF91C1
:1012E0001F910F91FF90EF90DF90CF90BF90AF9044
:1012F0009F908F907F906F905F904F903F902F9036
:101300000895EF92FF920F931F93CF93DF93EC0119
:101310007A018B0177FF0FC0E881F9810190F0819C
:10132000E02D6DE2099510950095F094E094E11C94
:10133000F11C011D111DCE01B801A7012AE00E9478
:10134000E908DF91CF911F910F91FF90EF900895E1
:10135000DC012115310541F4ED91FC910190F08102
:10136000E02D642F099508952A30310519F40E9463
:10137000810908950E94E90808950F931F938C0135
:101380000E94A809C8010E94D2081F910F910895D8
:101390002F923F924F925F926F927F928F929F9285
:1013A000AF92BF92CF92DF92EF92FF920F931F9373
:1013B000DF93CF93CDB7DEB73B014C0119012A0172
:1013C0006D897E898F89988D6A197B098C099D09A1
:1013D000621A730A840A950AA40193010E94330ACF
:1013E000E218F30804091509A80197010E94870A69
:1013F0002A0D3B1D4C1D5D1DB901CA01CF91DF9126
:101400001F910F91FF90EF90DF90CF90BF90AF9022
:101410009F908F907F906F905F904F903F902F9014
:101420000895EF92FF920F931F937B018C0161153A
:1014300071058105910529F420E030E040E050E09D
:101440000BC00E94E000A80197010E94870AAC012E
:10145000CB01DA019C01AD01B901CA011F910F91C5
:10146000FF90EF900895629FD001739FF001829FDB
:10147000E00DF11D649FE00DF11D929FF00D839F23
:10148000F00D749FF00D659FF00D9927729FB00DC0
:10149000E11DF91F639FB00DE11DF91FBD01CF01D3
:1014A0001124089597FB092E07260AD077FD04D052
:1014B00049D006D000201AF4709561957F4F0895A9
:1014C000F6F7909581959F4F0895A1E21A2EAA1BD9
:1014D000BB1BFD010DC0AA1FBB1FEE1FFF1FA217E4
:1014E000B307E407F50720F0A21BB30BE40BF50BE1
:1014F000661F771F881F991F1A9469F7609570956A
:10150000809590959B01AC01BD01CF01089597FB9B
:10151000092E05260ED057FD04D0D7DF0AD0001CB7
:1015200038F450954095309521953F4F4F4F5F4F80
:101530000895F6F790958095709561957F4F8F4F40
:101540009F4F0895AA1BBB1B51E107C0AA1FBB1FD9
:10155000A617B70710F0A61BB70B881F991F5A953F
:10156000A9F780959095BC01CD010895EE0FFF1F5E
:101570000590F491E02D09942F923F924F925F9243
:101580006F927F928F929F92AF92BF92CF92DF9293
:10159000EF92FF920F931F93CF93DF93CDB7DEB7F8
:1015A000CA1BDB0B0FB6F894DEBF0FBECDBF09948C
:1015B0002A88398848885F846E847D848C849B84E3
:1015C000AA84B984C884DF80EE80FD800C811B81F1
:1015D000AA81B981CE0FD11D0FB6F894DEBF0FBE20
:0A15E000CDBFED010895F894FFCF90
:1015EA00010000000A0009000600030001000200D1
:1015FA0014000000FF0001000000004E089B08B321
:02160A000800D6
:00000001FF
