:100000000C9464000C948C000C948C000C948C0068
:100010000C948C000C948C000C948C000C948C0030
:100020000C948C000C948C000C948C000C948C0020
:100030000C948C000C948C000C948C000C948C0010
:100040000C94F3010C948C000C94D2030C948C004F
:100050000C948C000C948C000C948C000C948C00F0
:100060000C948C000C948C000000000024002700ED
:100070002A0000000000250028002B0000000000DE
:1000800023002600290004040404040404040202DA
:100090000202020203030303030301020408102007
:1000A0004080010204081020010204081020000012
:1000B0000007000201000003040600000000000029
:1000C00000001A018C011B0511241FBECFEFD8E0E0
:1000D000DEBFCDBF11E0A0E0B1E0E2E8FCE002C08D
:1000E00005900D92A232B107D9F711E0A2E2B1E07A
:1000F00001C01D92A03DB107E1F710E0C8ECD0E0CF
:1001000004C02297FE010E943B06C23CD107C9F7FA
:100110000E94EC010C943F060C9400001F93CF93B7
:10012000DF93EC01162F898170E00E94BD0217FD5C
:1001300002C0188202C081E08883DF91CF911F91B5
:1001400008950F931F938C01FC01818160E00E9450
:100150003603F80110821F910F910895CF92DF921C
:10016000EF92FF920F931F93CF93DF936C01CB011C
:1001700063E370E00E94D5057B0100E010E0CFEF63
:10018000D0E0F6018181BE010E94BD02C801B70125
:100190000E943B022597A9F7C6010E94A100DF91AA
:1001A000CF911F910F91FF90EF90DF90CF90089526
:1001B0000F931F938C01FC01818161E00E94360343
:1001C00081E0F80180831F910F910895CF92DF9213
:1001D000EF92FF920F931F93CF93DF936C01CB01AC
:1001E00063E370E00E94D5057B0100E010E0C0E011
:1001F000D0E0F6018181BE010E94BD02C801B701B5
:100200000E943B022596CF3FD10599F7C6010E9477
:10021000D800DF91CF911F910F91FF90EF90DF9069
:10022000CF900895FC01862F6183108261E00E94C7
:100230001603089582E291E06DE00E941201089594
:10024000CF93DF93EC018A8180FF02C0826001C0FE
:100250008D7F8A8388810E948303298130E04A81CF
:100260008217930711F44E7F01C041604A834A818F
:10027000242F30E0C901959587958227932780FF29
:1002800002C0446001C04B7F4A838A818170DF9144
:10029000CF910895CF93DF93EC010E942001882332
:1002A00039F08A8190E0969587959695879581702B
:1002B000DF91CF910895FC0181E08183808161E02D
:1002C0000E94360308951F93CF93DF93EC01862F8E
:1002D000142F688360E00E941603112311F4198221
:1002E00003C0CE010E945B011A828981882319F420
:1002F00081E08A8301C01A82DF91CF911F91089516
:10030000FC01608386E090E0928381830895FC0184
:1003100080810E949F02089584E291E062E041E0C2
:100320000E94630187E291E060E00E9480018AE21E
:1003300091E069E00E9412018CE291E06BE00E9482
:100340001201089587E291E00E948701BC01769531
:100350006795769567958AE291E00E948E0084E227
:1003600091E00E944A018823E9F080912E0190914A
:100370002F01019759F48CE291E064EF71E00E9443
:10038000AE0010922F0110922E0108958CE291E0A0
:1003900064EF71E00E94E60081E090E090932F010D
:1003A00080932E0108950F931F930DEB11E0C80168
:1003B00048E456E260E070E00E940F04C80160E08B
:1003C00071E00E94AB0560ED77E080E090E00E9474
:1003D0003B021F910F9108950E9465020E94D30174
:1003E0000E94A201FDCF1F920F920FB60F9211240F
:1003F0002F933F938F939F93AF93BF93809134013B
:1004000090913501A0913601B091370130913801BA
:100410000196A11DB11D232F2D5F2D3720F02D57E3
:100420000196A11DB11D2093380180933401909352
:100430003501A0933601B09337018091300190913E
:100440003101A0913201B09133010196A11DB11D7E
:100450008093300190933101A0933201B093330126
:10046000BF91AF919F918F913F912F910F900FBEB0
:100470000F901F901895EF92FF920F931F937B019F
:100480008C018FB7F89440913401509135016091FF
:100490003601709137018FBF2FB7F89480913401E6
:1004A00090913501A0913601B09137012FBF841B87
:1004B000950BA60BB70BE816F9060A071B0760F7A2
:1004C0001F910F91FF90EF900895789484B582600A
:1004D00084BD84B5816084BD85B5826085BD85B5E8
:1004E000816085BDEEE6F0E0808181608083E1E897
:1004F000F0E0808182608083808181608083E0E899
:10050000F0E0808181608083E1EBF0E080818460B5
:100510008083E0EBF0E0808181608083EAE7F0E0B7
:10052000808184608083808182608083808181601B
:1005300080838081806880831092C10008958F70CD
:10054000909116019295990F990F907C982B90930A
:100550007C0080917A00806480937A0080917A0098
:1005600086FDFCCF2091780040917900942F80E0A7
:1005700030E0282B392BC90108951F93CF93DF93C7
:10058000182FEB0161E00E941603E12FF0E0E25525
:10059000FF4F8491833051F4809180008068809374
:1005A0008000D0938900C09388003CC0843051F40F
:1005B00080918000806280938000D0938B00C093F4
:1005C0008A0030C0813039F4209729F184B58068E1
:1005D00084BDC7BD27C0823039F42097E1F084B5CF
:1005E000806284BDC8BD1EC0863041F48091B000D9
:1005F00080688093B000C093B30014C0873041F48A
:100600008091B00080628093B000C093B4000AC0B3
:10061000C038D1051CF4812F60E002C0812F61E059
:100620000E943603DF91CF911F910895282F30E06B
:10063000C90186569F4FFC0194912A573F4FF901FB
:100640008491882391F0E82FF0E0EE0FFF1FE85926
:10065000FF4FA591B491662329F48C91909589233D
:100660008C9308958C91892B8C930895482F50E09A
:10067000CA0182559F4FFC012491CA0186569F4FA3
:10068000FC0194914A575F4FFA0134913323D1F121
:10069000222331F1233021F4809180008F7705C02F
:1006A000243031F4809180008F7D8093800018C0C9
:1006B000213019F484B58F7704C0223021F484B539
:1006C0008F7D84BD0DC0263021F48091B0008F77DE
:1006D00005C0273029F48091B0008F7D8093B00051
:1006E000E32FF0E0EE0FFF1FEE58FF4FA591B491FE
:1006F000662329F48C91909589238C9308958C918D
:10070000892B8C930895682F70E0CB0182559F4F01
:10071000FC012491CB0186569F4FFC0144916A57FE
:100720007F4FFB019491992319F420E030E038C009
:10073000222331F1233021F4809180008F7705C08E
:10074000243031F4809180008F7D8093800018C028
:10075000213019F484B58F7704C0223021F484B598
:100760008F7D84BD0DC0263021F48091B0008F773D
:1007700005C0273029F48091B0008F7D8093B000B0
:10078000892F90E0880F991F84589F4FFC01A591F5
:10079000B4918C9120E030E0842311F021E030E02E
:1007A000C90108951F920F920FB60F9211242F9333
:1007B0003F934F935F936F937F938F939F93AF93E9
:1007C000BF93EF93FF934091C600E091B901F09180
:1007D000BA01CF01019660E870E00E94E9059C0132
:1007E0008091BB019091BC012817390739F0E75C73
:1007F000FE4F40833093BA012093B901FF91EF91EE
:10080000BF91AF919F918F917F916F915F914F9128
:100810003F912F910F900FBE0F901F9018955F92F0
:100820006F927F928F929F92AF92BF92CF92DF9200
:10083000EF92FF920F931F93CF93DF93EC013A0156
:100840004B01413482E458078FE0680780E0780765
:100850000CF07FC060E874E88EE190E0A4019301A1
:100860000E941E062150304040405040CA01B9014C
:1008700022E030E040E050E00E941E0659016A018B
:10088000A6019501209530954095509594E0220F52
:10089000331F441F551F9A95D1F760E074E284EF2F
:1008A00090E00E941E06CA01B9012FEF30E040E03F
:1008B00050E00E94B605A40193010E941E06C901E2
:1008C00081509F4F181619061CF4522E5A9403C0DB
:1008D00055245394521A60E079E08DE390E0A4012E
:1008E00093010E941E062150304040405040CA01F2
:1008F000B90122E030E040E050E00E941E06209561
:1009000030954095509583E0220F331F441F551FAB
:100910008A95D1F760E074E284EF90E00E941E06B1
:10092000CA01B9012FEF30E040E050E00E94B60567
:10093000A40193010E941E06C90181509F4F181601
:1009400019061CF4822F815002C081E0821B85159C
:1009500000F5E885F98581E090E00A8802C0880FFB
:10096000991F0A94E2F7808360E079E08DE390E0DC
:10097000A40193010E941E06215030404040504087
:10098000CA01B90122E030E040E050E00E941E06BA
:1009900004C0E885F98510829501EC81FD813083E2
:1009A000EE81FF812083EA85FB85208141E050E0D4
:1009B000CA010E8402C0880F991F0A94E2F7282BFF
:1009C0002083EA85FB852081CA010F8402C0880F3D
:1009D000991F0A94E2F7282B2083EA85FB85808102
:1009E000088802C0440F551F0A94E2F7842B8083C5
:1009F000DF91CF911F910F91FF90EF90DF90CF90FB
:100A0000BF90AF909F908F907F906F905F90089570
:100A1000FC01A085B18521898C9190E0022E02C055
:100A2000959587950A94E2F780FFF6CF0484F585C3
:100A3000E02D608308958BE191E09093BE01809357
:100A4000BD0189E391E09093C0018093BF0185ECE3
:100A500090E09093C2018093C10184EC90E0909368
:100A6000C4018093C30180EC90E09093C601809311
:100A7000C50181EC90E09093C8018093C70186EC9A
:100A800090E09093CA018093C90184E08093CB01E8
:100A900083E08093CC0187E08093CD0185E0809353
:100AA000CE0181E08093CF0108950F931F93CF93E0
:100AB000DF938C01EB0109C02196D801ED91FC91E7
:100AC0000190F081E02DC801099568816623A1F7A6
:100AD000DF91CF911F910F910895EF92FF920F93A5
:100AE0001F93CF93DF938C017B01EA010CC0D701E8
:100AF0006D917D01D801ED91FC910190F081E02D87
:100B0000C80109952197209791F7DF91CF911F9107
:100B10000F91FF90EF900895DC01ED91FC91028020
:100B2000F381E02D099508950F931F938C01DC014B
:100B3000ED91FC910190F081E02D6DE00995D801D7
:100B4000ED91FC910190F081E02DC8016AE00995DA
:100B50001F910F9108950F931F938C010E948C0594
:100B6000C8010E9494051F910F910895629FD001C2
:100B7000739FF001829FE00DF11D649FE00DF11D58
:100B8000929FF00D839FF00D749FF00D659FF00D07
:100B90009927729FB00DE11DF91F639FB00DE11DF4
:100BA000F91FBD01CF0111240895AA1BBB1B51E100
:100BB00007C0AA1FBB1FA617B70710F0A61BB70BCD
:100BC000881F991F5A95A9F780959095BC01CD0172
:100BD000089597FB092E07260AD077FD04D0E5DF9C
:100BE00006D000201AF4709561957F4F0895F6F7AE
:100BF000909581959F4F0895A1E21A2EAA1BBB1BC9
:100C0000FD010DC0AA1FBB1FEE1FFF1FA217B307D8
:100C1000E407F50720F0A21BB30BE40BF50B661FEE
:100C2000771F881F991F1A9469F7609570958095B2
:100C300090959B01AC01BD01CF01089597FB092E52
:100C400005260ED057FD04D0D7DF0AD0001C38F49B
:100C500050954095309521953F4F4F4F5F4F0895E8
:100C6000F6F790958095709561957F4F8F4F9F4FC8
:100C70000895EE0FFF1F0590F491E02D0994F8946C
:020C8000FFCFA4
:100C8200506F74656E74696F6D65746572206578F6
:100C9200616D706C65000100000000080555056D6E
:020CA20005004B
:00000001FF
