:100000000C9463000C948B000C948B000C948B006C
:100010000C948B000C948B000C948B000C948B0034
:100020000C948B000C94D3040C948B000C948B00D8
:100030000C948B000C948B000C948B000C948B0014
:100040000C943F0A0C948B000C948B0B0C948B003B
:100050000C948B000C948B000C948B000C948B00F4
:100060000C948B000C948B000000000024002700EF
:100070002A0000000000250028002B0000000000DE
:1000800023002600290004040404040404040202DA
:100090000202020203030303030301020408102007
:1000A0004080010204081020010204081020000012
:1000B0000007000201000003040600000000000029
:1000C00000002C07D40C11241FBECFEFD8E0DEBFF8
:1000D000CDBF11E0A0E0B1E0E2E9F1E202C005909D
:1000E0000D92A23BB107D9F713E0A2EBB1E001C03A
:1000F0001D92AF3FB107E1F710E0C6ECD0E004C0BD
:100100002297FE010E94C310C23CD107C9F70E948A
:100110003A0A0C94C7100C9400006093B20110923C
:10012000B4010895CF93DF93EB01E885F9858281CF
:1001300093818838910508F46DC082819381853E52
:10014000910508F067C06FC084819581809708F49D
:100150006FC084819581C79708F06AC086819781B6
:10016000099708F465C086819781429708F060C0BE
:100170001F821E828FEF9FEFAFEFBFEF8A839B83BB
:10018000AC83BD833EC0848195818234910508F49F
:1001900041C0848195818037910508F03BC0369637
:1001A00020E030E040E050E063E070E08081918149
:1001B000099780F180819181429760F53FC08281EB
:1001C0009381879708F041C0220F331F441F551FAA
:1001D000216008C08D919C910D97E0F4220F331F90
:1001E000441F551F34966134710519F06E5F7F4FBF
:1001F000DDCF80E290E09F838E832A833B834C8314
:100200005D8381E090E09983888321E030E040E0E5
:1002100050E004C020E030E040E050E0B901CA0105
:10022000DF91CF91089580914F02843009F48CCFF3
:1002300080914F02843408F0A6CFECCFDF011296F4
:1002400082819381469708F0BACF8D919C91119746
:10025000069700F3BFCF0F931F93CF93DF938B01CC
:1002600080914F028A3108F460C0DB011896ED914D
:10027000FC91199782819381859708F456C08281F9
:1002800093818034910508F050C0DF01169640E05C
:1002900050E060E070E0C2E0D0E022C0FD013297A3
:1002A00080819181079728F1808191810E9708F5CF
:1002B00047C08D919C911197829708F047C0440FD9
:1002C000551F661F771F416009C08D919C91119742
:1002D000439758F5440F551F661F771F22961496B3
:1002E00080914F029E012F5F3F4F90E02817390702
:1002F000ACF2CE01019795958795F8019783868397
:100300000C971CF41782168210C0D80112964D93D8
:100310005D936D937C93159782E090E08D939C9311
:1003200021E030E040E050E004C020E030E040E078
:1003300050E0B901CA01DF91CF911F910F9108954B
:100340008D919C911197439708F0B3CF8D919C911B
:1003500011970A9750F3B9CF4F925F926F927F92A5
:100360008F929F92AF92BF92CF92DF92EF92FF92C5
:100370000F931F93CF93DF93FB012A01390158019B
:10038000DA012D913C91828593852817390724F055
:1003900001E0802E912CDAC0C901880F991F0084DA
:1003A000F185E02DE80FF91FC080D18020FD06C047
:1003B000CCE9DFEFB1E08B2E912C04C0C4E6D0E095
:1003C00088249924BE016A0D7B1D882777FD8095BE
:1003D000982F0E94430F7B018C0120E030E040E425
:1003E0005FE30E94CF0F20E030E048E452E40E9437
:1003F000A80E0E94100FC616D706E4F0C801B70178
:1004000020E030E040EA5FE30E94CF0F20E030E0E0
:1004100048E452E40E94A80E20E030E040E85FE3A8
:100420000E94440E0E94100F6C157D051CF021E007
:1004300030E076C0B501660F771F6C0F7D1F8827EF
:1004400077FD8095982F0E94430F7B018C0120E05F
:1004500030E040E45FE30E94CF0F20E030E048E46A
:1004600052E40E94A80E0E94100FC616D706E4F0B0
:10047000C801B70120E030E040EA5FE30E94CF0FFF
:1004800020E030E048E452E40E94A80E20E030E092
:1004900040E85FE30E94440E0E94100F6C157D053A
:1004A0001CF022E030E03CC0C501880F991F8A0D86
:1004B0009B1DC80FD91FBE01882777FD8095982FF7
:1004C0000E94430F7B018C0120E030E040E45FE3B9
:1004D0000E94CF0F20E030E048E452E40E94A80ED2
:1004E0000E94100FC616D70674F1C801B70120E0AC
:1004F00030E040EA5FE30E94CF0F20E030E048E4C4
:1005000052E40E94A80E20E030E040E85FE30E9441
:10051000440E0E94100F6C157D05ACF023E030E016
:10052000F3018081918101969183808382179307E3
:100530006CF011821082D2018D919C9111970196DD
:100540008D939C9303C088248A94982CC401DF91D6
:10055000CF911F910F91FF90EF90DF90CF90BF90C0
:10056000AF909F908F907F906F905F904F90089585
:100570002F923F924F925F926F927F928F929F92B3
:10058000AF92BF92CF92DF92EF92FF920F931F93A1
:10059000DF93CF9300D000D000D0CDB7DEB71C01E1
:1005A0005B0180914F028D3008F47EC081E090E0C5
:1005B0009A8389831C821B8223E0822E912C8C0ECD
:1005C0009D1EC1012E010894411C511CA2019401E1
:1005D00009E713E00E94AC01892B09F065C0C10155
:1005E000B501A20194010E94AC01019709F05CC021
:1005F000C101B501A20194010E94AC01892B09F04F
:1006000053C0CC24DD24760166247724C4018D8276
:100610009E832FC0C101B501A2012D813E8109E752
:1006200013E00E94AC014C01C101B501A2012D8172
:100630003E810E94AC0121E08216910479F4892B5D
:1006400099F5CC0CDD1CEE1CFF1C81E090E0A0E0D5
:10065000B0E0C82AD92AEA2AFB2A08C0892821F54D
:10066000019711F5CC0CDD1CEE1CFF1C0894611CDD
:10067000711C80914F0290E029813A812817390737
:100680004CF2D50117967C926E921697F501C282B4
:10069000D382E482F58283E090E09183808321E03D
:1006A00030E040E050E004C020E030E040E050E0C6
:1006B000B901CA0126960FB6F894DEBF0FBECDBFB2
:1006C000CF91DF911F910F91FF90EF90DF90CF902E
:1006D000BF90AF909F908F907F906F905F904F9062
:1006E0003F902F9008952F923F924F925F926F927A
:1006F0007F928F929F92AF92BF92CF92DF92EF92B2
:10070000FF920F931F93DF93CF93CDB7DEB7289758
:100710000FB6F894DEBF0FBECDBF1C014B01DB014D
:100720001A968D919C911B97181619060CF0A4C06F
:1007300081E090E09A8389831896ED91FC91199756
:1007400082819381899708F497C08281938187344D
:10075000910508F091C0AFC084819581459708F05C
:100760008BC0B2C0C101B401A30195010CEB11E033
:100770000E94AC01019709F07FC0CC24DD247601F2
:1007800044245524C501AD829E83C3016F8298879E
:1007900056C0C101B4014F8158852D813E810CEBBB
:1007A00011E00E94AC013C01B3E04B16510461F42E
:1007B000C101B4014F8158852D813E810E94AC0159
:1007C0006816790609F058C0C101B4014F815885F7
:1007D0002D813E810CEB11E00E94AC015C01E3E055
:1007E0004E16510459F4C101B4014F8158852D8131
:1007F0003E810E94AC01A816B906F1F5611471049E
:1008000089F4F1E0AF16B104B9F5CC0CDD1CEE1C97
:10081000FF1C81E090E0A0E0B0E0C82AD92AEA2AD3
:10082000FB2A0AC091E06916710431F5AB2821F565
:10083000CC0CDD1CEE1CFF1C0894411C511C2981B2
:100840003A81D4011A968D919C911B9728173907EC
:100850000CF49FCF17965C924E921697F401C282C9
:10086000D382E482F58284E090E09183808321E06A
:1008700030E040E050E004C020E030E040E050E0F4
:10088000B901CA0128960FB6F894DEBF0FBECDBFDE
:10089000CF91DF911F910F91FF90EF90DF90CF905C
:1008A000BF90AF909F908F907F906F905F904F9090
:1008B0003F902F90089582E090E09A83898384810D
:1008C00095810B97C8F248CF83E090E09A838983A3
:1008D0001C821B8233E0A32EB12CAC0EBD1EC101C5
:1008E000B4013E010894611C711CA30195010CEB3D
:1008F00011E00E94AC01892B09F0BECF33CF0F93DA
:100900001F93CF93DF938C01EB0187EB91E09987E5
:10091000888780914F028A871B868091B30185303A
:10092000B9F5C8010E949200611571058105910514
:1009300091F5C801BE010E942B0161157105810569
:10094000910549F5C801BE010E94B8026115710503
:100950008105910501F5C801BE010E94730361156F
:10096000710581059105B9F48A859B8506975CF030
:100970008FEF9FEF998388831F821E821A821B82CA
:100980001C821D8208C082E08093B30110924F0246
:1009900020E030E002C021E030E0C901DF91CF91DA
:1009A0001F910F9108951F920F920FB60F9211246D
:1009B0002F933F934F935F936F937F938F939F9367
:1009C000AF93BF93EF93FF9381EA8093B20080913E
:1009D000B2010E943C0B482F8091B5019091B60165
:1009E00001969093B6018093B50180914F028C34AB
:1009F00018F085E08093B3018091B3018330D1F08A
:100A0000843020F4823009F059C006C0843071F17E
:100A1000853009F053C04CC0442309F04FC0809189
:100A2000B5019091B6018436910508F443C0109247
:100A30004F021EC0413009F041C080914F02E82FA3
:100A4000F0E02091B5013091B601EE0FFF1FEE549A
:100A5000FE4F368325838F5F80934F021092B6013D
:100A60001092B50184E08093B30128C04423B9F407
:100A700080914F02E82FF0E02091B5013091B6014E
:100A8000EE0FFF1FEE54FE4F368325838F5F80935A
:100A90004F021092B6011092B50183E0E4CF80912D
:100AA000B5019091B6018536910540F085E0DBCF28
:100AB000442321F41092B6011092B5018091B40143
:100AC000882329F0442311F42D9A01C02D98FF9119
:100AD000EF91BF91AF919F918F917F916F915F91B6
:100AE0004F913F912F910F900FBE0F901F9018952F
:100AF000EF92FF920F931F937B01E0E7F0E080817C
:100B00008E7F808383E061E00E94CF0A83E060E013
:100B10000E94EF0A81E08093B00089E08093B100E9
:100B20000027F7FC0095102F60E47FE180E090E063
:100B3000A80197010E949210E3EBF0E020838081EE
:100B400063E00E9451108093B4001F910F91FF90B9
:100B5000EF900895CB01E0EBF0E020812F7D208322
:100B60000E94870A0895CB01E0EBF0E0208120622B
:100B700020830E94870A08958F929F92AF92BF921E
:100B8000CF92DF92EF92FF920F931F93CF93DF9359
:100B90008C016A017B01490164E270E00E947805E2
:100BA00080E290E08819990904C0CC0CDD1CEE1C91
:100BB000FF1C8A95D2F7C8016AE67AE00E94B30565
:100BC000C80169E773E00E94AA05C8016CEB71E0F7
:100BD0000E94B305C8016CEB71E00E94AA05AA242B
:100BE000BB2423C083E0A816B10419F0CCEBD1E0FC
:100BF00002C0C8E7D3E0F7FE09C0C801BE010E94E9
:100C0000B305C801BE010E94AA0508C0C801BE0103
:100C10000E94AA05C801BE010E94B305CC0CDD1CD0
:100C2000EE1CFF1C0894A11CB11CA814B904D4F23A
:100C3000C80160E070E00E94AA05DF91CF911F918A
:100C40000F91FF90EF90DF90CF90BF90AF909F906B
:100C50008F900895AF92BF92CF92DF92EF92FF9262
:100C60000F931F93CF93DF93EC017A018B0159010E
:100C700064E270E00E94780580E290E08A199B09A6
:100C800004C0EE0CFF1C001F111F8A95D2F7CE0185
:100C900069E773E00E94B305CE0169E773E00E9443
:100CA000AA05CE0169E773E00E94B305CC24DD24D8
:100CB0001EC017FF0BC0CE0169E773E00E94AA05B2
:100CC000CE0169E773E00E94B3050AC0CE0169E76F
:100CD00073E00E94B305CE0169E773E00E94AA05A4
:100CE000EE0CFF1C001F111F0894C11CD11CCA145C
:100CF000DB04FCF2CE0160E070E00E94AA05DF9107
:100D0000CF911F910F91FF90EF90DF90CF90BF9008
:100D1000AF900895AF92BF92CF92DF92EF92FF9281
:100D20000F931F93CF93DF93EC017A018B0159014D
:100D300068E270E00E947805CE0160E679E00E94EA
:100D4000B305CE0168E572E00E94AA0580E290E05A
:100D50008A199B0904C0EE0CFF1C001F111F8A9505
:100D6000D2F7CC24DD2417C017FF04C0CE0160EBFE
:100D700074E003C0CE0168E572E00E94B305CE01C5
:100D800068E572E00E94AA05EE0CFF1C001F111F0F
:100D90000894C11CD11CCA14DB0434F3DF91CF9139
:100DA0001F910F91FF90EF90DF90CF90BF90AF9089
:100DB0000895AF92BF92CF92DF92EF92FF920F937E
:100DC0001F93CF93DF93EC017A018B01590166E207
:100DD00070E00E947805CE0168E273E20E94B305DC
:100DE000CE0164E971E10E94AA05CC24DD241CC077
:100DF00017FF09C0CE0160E372E00E94B305CE0187
:100E000060E476E008C0CE0160E372E00E94B305C2
:100E1000CE0160E372E00E94AA05EE0CFF1C001FE9
:100E2000111F0894C11CD11CCA14DB040CF3CE01A1
:100E300060E372E00E94B305CE0160E070E00E94C2
:100E4000AA05DF91CF911F910F91FF90EF90DF9056
:100E5000CF90BF90AF90089580E592E067E070E09A
:100E60000E948D0008958F929F92AF92BF92CF9271
:100E7000DF92EF92FF920F931F93CF93DF937C014A
:100E8000DC011A968D909C901B978D919C91BFEFE1
:100E90008F3F9B0729F48CEE93E060E071E044C043
:100EA0008130910529F48CEE93E069E171E016C080
:100EB0008230910529F48CEE93E067E271E00EC078
:100EC0008330910529F48CEE93E066E371E006C06F
:100ED000049731F48CEE93E064E471E00E94450DD8
:100EE000F70142815381648175818CEE93E020E1AA
:100EF00030E00E942E0E8CEE93E062E571E00E94DD
:100F0000450DD70116964D915C911797662757FDB1
:100F10006095762F8CEE93E02AE030E00E942E0E52
:100F20008CEE93E065E571E00E94640D8CEE93E039
:100F30006CE571E00E94450DA401662757FD6095A0
:100F4000762F8CEE93E02AE030E00E942E0E8CEE9D
:100F500093E062E671E00E94450D00E010E0C0E021
:100F6000D0E09EECA92E9FEFB92E82E3C82ED12CA3
:100F700033C0D7011896ED91FC91199700FF0EC070
:100F8000EC0FFD1F808191818C9DA0018D9D500DE6
:100F90009C9D500D112460E070E00FC0EC0FFD1F10
:100FA000808191818A9DA0018B9D500D9A9D500D4D
:100FB0001124662757FD6095762F8CEE93E02AE08A
:100FC00030E00E942E0E8CEE93E066E671E00E9407
:100FD000450D0F5F1F4F22960815190554F28CEE30
:100FE00093E068E671E00E94640DDF91CF911F915C
:100FF0000F91FF90EF90DF90CF90BF90AF909F90B8
:101000008F9008952F923F924F925F926F927F92AE
:101010008F929F92AF92BF92CF92DF92EF92FF9208
:101020000F931F93CF93DF935B016C013A0129016A
:1010300085E08093B30181E080934F0280905D034F
:1010400090905E037DE5E72E72E0F72E00E010E061
:10105000C1E0D0E06CE9262E6FEF362E5DC0F701BF
:101060008081918197FF26C02097C1F420914F0283
:10107000E22FF0E0A101481B590BCA0162E370E0C6
:101080000E945D10EE0FFF1FEE54FE4F76836583C6
:101090002F5F20934F02C1E0D0E038C0E0914F02B3
:1010A000F0E0EE0FFF1FE055FE4F258136816EEC1C
:1010B0007FEF26C0009751F1C130D105B1F42091E6
:1010C0004F02E22FF0E08C599F4F62E370E00E94E4
:1010D0005D10EE0FFF1FEE54FE4F768365832F5F8A
:1010E00020934F02C0E0D0E011C0E0914F02F0E049
:1010F000EE0FFF1FE055FE4F2581368162E370E061
:101100000E945D10260F371F368325830F5F1F4F08
:1011100082E090E0E80EF91E081519050CF49FCF47
:1011200080914F0280FF05C080914F0281508093D3
:101130004F0280E592E061E572E00E947F048CEE50
:1011400093E069E671E00E94450D8CEE93E0B601F4
:10115000A50120E130E00E942E0E80915302909173
:101160005402A0915502B09156028A159B05AC0518
:10117000BD05A9F4809157029091580286159705F4
:1011800071F480915102909152028415950539F4C1
:101190008CEE93E062E771E00E94640D0AC08CEE71
:1011A00093E067E771E00E94640D81E592E00E94A0
:1011B0003307DF91CF911F910F91FF90EF90DF9058
:1011C000CF90BF90AF909F908F907F906F905F90E7
:1011D0004F903F902F900895CF92DF92EF92FF9221
:1011E0000F931F937B018C016A0110925E03109292
:1011F0005D038DE592E0B801A70196010E94BC0550
:10120000C801B701A60124E030E00E9402081F9146
:101210000F91FF90EF90DF90CF900895CF92DF92E3
:10122000EF92FF920F931F937B018C016A01109242
:101230005E0310925D038DE592E0B801A70196016F
:101240000E942A06C801B701A60123E030E00E94EF
:1012500002081F910F91FF90EF90DF90CF900895BB
:10126000CF92DF92EF92FF920F931F937B018C013D
:101270006A0110925E0310925D038DE592E0B80161
:10128000A70196010E948A06C801B701A60122E0C3
:1012900030E00E9402081F910F91FF90EF90DF90C5
:1012A000CF900895CF92DF92EF92FF920F931F930A
:1012B0007B018C016A0110925E0310925D038DE543
:1012C00092E0B801A70196010E94D906C801B701B2
:1012D000A60121E030E00E9402081F910F91FF90CB
:1012E000EF90DF90CF9008950F931F930CEE13E0D3
:1012F000C8016FE771E00E94640D60E070E080E07B
:1013000090E040E250E00E9452096FEF7FEF8FEFD4
:101310009FEF40E250E00E9452096AEA7AEA8AEAC4
:101320009AEA40E250E00E94520965E575E585E5DC
:1013300095E540E250E00E94520968E776E584E3D3
:1013400092E140E250E00E945209C80169E871E070
:101350000E94640D6FEF7FE080E090E04CE050E091
:101360000E94300960E070E080E090E04CE050E0E6
:101370000E9430096AEA7AE080E090E04CE050E0B8
:101380000E94300965E575E080E090E04CE050E0B7
:101390000E94300963E271E080E090E04CE050E0B0
:1013A0000E943009C80164E971E00E94640D6FEF8A
:1013B0007FE080E090E04CE050E00E940E0960E0A9
:1013C00070E080E090E04CE050E00E940E096AEA94
:1013D0007AE080E090E04CE050E00E940E0965E584
:1013E00075E080E090E04CE050E00E940E0963E27E
:1013F00071E080E090E04CE050E00E940E09C801EE
:101400006EE971E00E94640D6FEF7FEF8FE090E076
:1014100044E150E00E94EC0860E070E080E090E081
:1014200044E150E00E94EC086AEA7AEA8AE090E03F
:1014300044E150E00E94EC0865E575E585E090E048
:1014400044E150E00E94EC0865E473E281E090E042
:1014500044E150E00E94EC081F910F9108958CEE3A
:1014600093E040E855E260E070E00E94C80B0E9403
:10147000740908950E94950A0E942F0AFFCF1F92B7
:101480000F920FB60F9211242F933F938F939F9338
:10149000AF93BF938091630390916403A091650320
:1014A000B0916603309167030196A11DB11D232FF2
:1014B0002D5F2D3720F02D570196A11DB11D2093D2
:1014C00067038093630390936403A0936503B093D1
:1014D000660380915F0390916003A0916103B091D6
:1014E00062030196A11DB11D80935F039093600379
:1014F000A0936103B0936203BF91AF919F918F91CD
:101500003F912F910F900FBE0F901F90189501974C
:1015100059F0FC01EE0FFF1FEE0FFF1F32978FB740
:10152000F8943197F1F78FBF0895789484B582606D
:1015300084BD84B5816084BD85B5826085BD85B577
:10154000816085BDEEE6F0E0808181608083E1E826
:10155000F0E0808182608083808181608083E0E828
:10156000F0E0808181608083E1EBF0E08081846045
:101570008083E0EBF0E0808181608083EAE7F0E047
:1015800080818460808380818260808380818160AB
:1015900080838081806880831092C1000895282F05
:1015A00030E0C90186569F4FFC0194912A573F4F66
:1015B000F9018491882391F0E82FF0E0EE0FFF1FEE
:1015C000E859FF4FA591B491662329F48C91909529
:1015D00089238C9308958C91892B8C930895482F9F
:1015E00050E0CA0182559F4FFC012491CA018656E2
:1015F0009F4FFC0194914A575F4FFA013491332376
:10160000D1F1222331F1233021F4809180008F77B2
:1016100005C0243031F4809180008F7D809380005C
:1016200018C0213019F484B58F7704C0223021F41A
:1016300084B58F7D84BD0DC0263021F48091B0002B
:101640008F7705C0273029F48091B0008F7D80937B
:10165000B000E32FF0E0EE0FFF1FEE58FF4FA59113
:10166000B491662329F48C91909589238C930895E5
:101670008C91892B8C930895682F70E0CB01825553
:101680009F4FFC012491CB0186569F4FFC01449152
:101690006A577F4FFB019491992319F420E030E0C1
:1016A00038C0222331F1233021F4809180008F77DC
:1016B00005C0243031F4809180008F7D80938000BC
:1016C00018C0213019F484B58F7704C0223021F47A
:1016D00084B58F7D84BD0DC0263021F48091B0008B
:1016E0008F7705C0273029F48091B0008F7D8093DB
:1016F000B000892F90E0880F991F84589F4FFC01FC
:10170000A591B4918C9120E030E0842311F021E088
:1017100030E0C90108951F920F920FB60F92112465
:101720002F933F934F935F936F937F938F939F93E9
:10173000AF93BF93EF93FF934091C600E091E8030E
:10174000F091E903CF01019660E870E00E945D101E
:101750009C018091EA039091EB032817390739F037
:10176000E859FC4F40833093E9032093E803FF914D
:10177000EF91BF91AF919F918F917F916F915F9109
:101780004F913F912F910F900FBE0F901F90189582
:101790005F926F927F928F929F92AF92BF92CF9201
:1017A000DF92EF92FF920F931F93CF93DF93EC01A1
:1017B0003A014B01413482E458078FE0680780E02A
:1017C00078070CF07FC060E874E88EE190E0A40137
:1017D00093010E9492102150304040405040CA0175
:1017E000B90122E030E040E050E00E94921059013F
:1017F0006A01A6019501209530954095509594E099
:10180000220F331F441F551F9A95D1F760E074E2F1
:1018100084EF90E00E949210CA01B9012FEF30E0EE
:1018200040E050E00E943210A40193010E94921007
:10183000C90181509F4F181619061CF4522E5A9454
:1018400003C055245394521A60E079E08DE390E090
:10185000A40193010E94921021503040404050401A
:10186000CA01B90122E030E040E050E00E9492104D
:10187000209530954095509583E0220F331F441FEB
:10188000551F8A95D1F760E074E284EF90E00E94E2
:101890009210CA01B9012FEF30E040E050E00E9401
:1018A0003210A40193010E949210C90181509F4FF0
:1018B000181619061CF4822F815002C081E0821B89
:1018C000851500F5E885F98581E090E00A8802C079
:1018D000880F991F0A94E2F7808360E079E08DE336
:1018E00090E0A40193010E949210215030404040AA
:1018F0005040CA01B90122E030E040E050E00E94CF
:10190000921004C0E885F98510829501EC81FD8173
:101910003083EE81FF812083EA85FB85208141E0D1
:1019200050E0CA010E8402C0880F991F0A94E2F7A2
:10193000282B2083EA85FB852081CA010F8402C001
:10194000880F991F0A94E2F7282B2083EA85FB85EC
:101950008081088802C0440F551F0A94E2F7842B47
:101960008083DF91CF911F910F91FF90EF90DF90D7
:10197000CF90BF90AF909F908F907F906F905F902F
:101980000895FC01A085B18521898C9190E0022EFB
:1019900002C0959587950A94E2F780FFF6CF0484FC
:1019A000F585E02D608308958CEA91E09093ED0336
:1019B0008093EC0388E693E09093EF038093EE032B
:1019C00085EC90E09093F1038093F00384EC90E039
:1019D0009093F3038093F20380EC90E09093F503EF
:1019E0008093F40381EC90E09093F7038093F603E7
:1019F00086EC90E09093F9038093F80384E0809361
:101A0000FA0383E08093FB0387E08093FC0385E087
:101A10008093FD0381E08093FE0308950F931F934D
:101A2000CF93DF938C01EB0109C02196D801ED9192
:101A3000FC910190F081E02DC80109956881662331
:101A4000A1F7DF91CF911F910F910895EF92FF922F
:101A50000F931F93CF93DF938C017B01EA010CC09E
:101A6000D7016D917D01D801ED91FC910190F0813C
:101A7000E02DC80109952197209791F7DF91CF912B
:101A80001F910F91FF90EF900895DC01ED91FC9173
:101A90000280F381E02D099508950F931F938C0127
:101AA000DC01ED91FC910190F081E02D6DE0099554
:101AB000D801ED91FC910190F081E02DC8016AE020
:101AC00009951F910F9108950F931F938C010E9408
:101AD000450DC8010E944D0D1F910F9108952F9241
:101AE0003F924F925F926F927F928F929F92AF92AE
:101AF000BF92CF92DF92EF92FF920F931F93DF93EB
:101B0000CF93CDB7DEB7A0970FB6F894DEBF0FBE68
:101B1000CDBF1C016A017B014115510561057105AD
:101B200049F4DC01ED91FC910190F081E02D60E33E
:101B3000099554C0882499245401422E55246624C2
:101B4000772401E010E00C0F1D1F080D191DC701BF
:101B5000B601A30192010E947010F80160830894FD
:101B6000811C911CA11CB11CC701B601A3019201EB
:101B70000E947010C901DA016C017D01C114D10409
:101B8000E104F104F1F681E0E82EF12CEC0EFD1EEB
:101B9000E80CF91C3E010894611C711CD501C401BC
:101BA0000197A109B1096C01C818D90814C0F60140
:101BB000EE0DFF1D60816A3010F4605D01C0695C4C
:101BC000D101ED91FC910190F081E02DC1010995C9
:101BD0000894E108F1086E147F0449F7A0960FB647
:101BE000F894DEBF0FBECDBFCF91DF911F910F9153
:101BF000FF90EF90DF90CF90BF90AF909F908F902D
:101C00007F906F905F904F903F902F900895EF924C
:101C1000FF920F931F93CF93DF93EC017A018B0117
:101C200077FF0FC0E881F9810190F081E02D6DE22E
:101C3000099510950095F094E094E11CF11C011DAC
:101C4000111DCE01B801A7012AE00E946F0DDF919E
:101C5000CF911F910F91FF90EF900895DC01211516
:101C6000310541F4ED91FC910190F081E02D642F5C
:101C7000099508952A30310519F40E94070E089538
:101C80000E946F0D08955058BB27AA270ED04DC152
:101C90003ED130F043D120F031F49F3F11F41EF4D7
:101CA00033C10EF4E095E7FB29C1E92F4FD180F352
:101CB000BA17620773078407950718F071F49EF549
:101CC00067C10EF4E0950B2EBA2FA02D0B01B901C0
:101CD00090010C01CA01A0011124FF27591B99F0A2
:101CE000593F50F4503E68F11A16F040A22F232FAE
:101CF000342F4427585FF3CF469537952795A795FE
:101D0000F0405395C9F77EF41F16BA0B620B730BA4
:101D1000840BBAF09150A1F0FF0FBB1F661F771F15
:101D2000881FC2F70EC0BA0F621F731F841F48F4CA
:101D3000879577956795B795F7959E3F08F0B3CF50
:101D40009395880F08F09927EE0F9795879508953A
:101D50000CD0EBC0E3D040F0DAD030F021F45F3F9C
:101D600019F0CCC0511115C1CFC0F0D098F3992310
:101D7000C9F35523B1F3951B550BBB27AA2762174F
:101D80007307840738F09F5F5F4F220F331F441F94
:101D9000AA1FA9F333D00E2E3AF0E0E830D09150CC
:101DA0005040E695001CCAF729D0FE2F27D0660FB9
:101DB000771F881FBB1F261737074807AB07B0E8F8
:101DC00009F0BB0B802DBF01FF2793585F4F2AF00E
:101DD0009E3F510568F092C0DCC05F3FECF3983E37
:101DE000DCF3869577956795B795F7959F5FC9F76B
:101DF000880F911D9695879597F90895E1E0660FF4
:101E0000771F881FBB1F621773078407BA0720F06C
:101E1000621B730B840BBA0BEE1F88F7E0950895D5
:101E200004D06894B111B5C0089598D088F09F5738
:101E300090F0B92F9927B751A0F0D1F0660F771F16
:101E4000881F991F1AF0BA95C9F712C0B13081F0F6
:101E50009FD0B1E008959CC0672F782F8827B85F86
:101E600039F0B93FCCF3869577956795B395D9F757
:101E70003EF490958095709561957F4F8F4F9F4F61
:101E80000895E89409C097FB3EF49095809570956D
:101E900061957F4F8F4F9F4F9923A9F0F92F96E9B6
:101EA000BB279395F695879577956795B795F1112B
:101EB000F8CFFAF4BB0F11F460FF1BC06F5F7F4FC8
:101EC0008F4F9F4F16C0882311F096E911C07723DA
:101ED00021F09EE8872F762F05C0662371F096E8E3
:101EE000862F70E060E02AF09A95660F771F881FB2
:101EF000DAF7880F9695879597F9089597F99F6770
:101F000080E870E060E008959FEF80EC0895002481
:101F10000A941616170618060906089500240A944E
:101F200012161306140605060895092E0394000CD4
:101F300011F4882352F0BB0F40F4BF2B11F460FF63
:101F400004C06F5F7F4F8F4F9F4F089557FD90588C
:101F5000440F551F59F05F3F71F04795880F97FB6D
:101F6000991F61F09F3F79F0879508951216130627
:101F70001406551FF2CF4695F1DF08C01616170656
:101F80001806991FF1CF869571056105089408958B
:101F9000E894BB2766277727CB0197F908950BD0E4
:101FA000C4CFB5DF28F0BADF18F0952309F0A6CF2B
:101FB000ABCF1124EECFCADFA0F3959FD1F3950FDD
:101FC00050E0551F629FF001729FBB27F00DB11DBD
:101FD000639FAA27F00DB11DAA1F649F6627B00D4D
:101FE000A11D661F829F2227B00DA11D621F739F36
:101FF000B00DA11D621F839FA00D611D221F749F44
:102000003327A00D611D231F849F600D211D822F8A
:10201000762F6A2F11249F5750408AF0E1F08823D1
:102020004AF0EE0FFF1FBB1F661F771F881F9150DE
:102030005040A9F79E3F510570F060CFAACF5F3F97
:10204000ECF3983EDCF3869577956795B795F79511
:10205000E7959F5FC1F7FE2B880F911D9695879599
:1020600097F90895629FD001739FF001829FE00D60
:10207000F11D649FE00DF11D929FF00D839FF00D07
:10208000749FF00D659FF00D9927729FB00DE11DB3
:10209000F91F639FB00DE11DF91FBD01CF01112490
:1020A0000895991B79E004C0991F961708F0961BB4
:1020B000881F7A95C9F78095089597FB092E072602
:1020C0000AD077FD04D049D006D000201AF47095CC
:1020D00061957F4F0895F6F7909581959F4F0895EC
:1020E000A1E21A2EAA1BBB1BFD010DC0AA1FBB1F1C
:1020F000EE1FFF1FA217B307E407F50720F0A21B8E
:10210000B30BE40BF50B661F771F881F991F1A94FA
:1021100069F760957095809590959B01AC01BD0124
:10212000CF01089597FB092E05260ED057FD04D048
:10213000D7DF0AD0001C38F4509540953095219592
:102140003F4F4F4F5F4F0895F6F7909580957095EC
:1021500061957F4F8F4F9F4F0895AA1BBB1B51E185
:1021600007C0AA1FBB1FA617B70710F0A61BB70B07
:10217000881F991F5A95A9F780959095BC01CD01AC
:102180000895EE0FFF1F0590F491E02D0994F89447
:02219000FFCF7F
:10219200436F756C64206E6F74206465636F646551
:1021A200206D657373616765004465636F64656480
:1021B200204E45433A20004465636F6465642053B2
:1021C2004F4E593A20004465636F64656420524360
:1021D200353A20004465636F646564205243363AA1
:1021E2002000202800206269747329005261772040
:1021F2002800293A200020000054657374696E6734
:1022020020003A204F4B003A204572726F72004E06
:10221200454320746573747300536F6E792074653F
:1022220073747300524335207465737473005243A0
:10223200362074657374730000000000C10C0E0D2B
:02224200260D67
:00000001FF
