:100000000C9462000C948A000C948A000C944701B2
:100010000C948A000C948A000C948A000C948A0038
:100020000C948A000C948A000C948A000C948A0028
:100030000C948A000C948A000C948A000C948A0018
:100040000C94BF010C948A000C94FD020C948A005D
:100050000C948A000C948A000C948A000C948A00F8
:100060000C948A000C948A000000000024002700F1
:100070002A0000000000250028002B0000000000DE
:1000800023002600290004040404040404040202DA
:100090000202020203030303030301020408102007
:1000A0004080010204081020010204081020000012
:1000B0000007000201000003040600000000000029
:1000C0000000460411241FBECFEFD8E0DEBFCDBF35
:1000D00011E0A0E0B1E0ECE3FCE002C005900D927D
:1000E000AE30B107D9F711E0AEE0B1E001C01D922A
:1000F000A43BB107E1F710E0C4ECD0E004C02297C4
:10010000FE010E941806C23CD107C9F70E944001B7
:100110000C941C060C9400001F9380911201909186
:100120001301019729F4109213011092120106C0D5
:1001300081E090E090931301809312018DE0609133
:1001400012010E94610280910F018E30E1F78091CF
:10015000100190911101807C97738050904399F722
:1001600010920F018091100190911101182F1F73AF
:10017000412F50E060E070E081EA91E020E130E062
:100180000E947E0581EA91E060E071E00E94B70480
:10019000133031F1143028F4113041F0123099F657
:1001A00014C0143021F11C3071F624C084E061E0E9
:1001B0000E94610285E061E00E94610286E061E0E8
:1001C0000E94610287E060E0BCCF84E061E00E94B1
:1001D000610285E061E00E94610286E060E014C097
:1001E00084E061E00E94610285E060E009C084E093
:1001F00060E002C084E061E00E94610285E061E0AD
:100200000E94610286E061E00E94610287E061E095
:1002100098CF81EA91E040E855E260E070E00E940A
:100220003A0388E060E00E94410284E061E00E94BD
:10023000410285E061E00E94410286E061E00E94A7
:10024000410287E061E00E9441028DE061E00E948E
:1002500041028DE0609112010E946102EBE6F0E044
:10026000808181608083E8E6F0E080818160808326
:1002700083E084BD88E085BD10920F0178940895D5
:100280000E9407020E9409010E948C00FDCF1F926C
:100290000F920FB60F9211242F933F934F935F93BA
:1002A0006F937F938F939F93AF93BF93EF93FF933E
:1002B00080910F018823D9F488E00E94AE02892B37
:1002C00009F04CC08AE887BD16BC10920E018091DF
:1002D0006E00826080936E0085B5846085BD8091DC
:1002E0000F018F5F80930F0181E090E033C0809118
:1002F0000E01882399F586B5853580F18AE887BD9A
:1003000016BC10920E0180916E00826080936E0088
:1003100085B5846085BD80910F018F5F80930F014B
:100320008091100190911101880F991F90931101F4
:100330008093100188E00E94AE02892B31F48091F5
:10034000100190911101816005C080911001909180
:1003500011018E7F9093110180931001FF91EF9115
:10036000BF91AF919F918F917F916F915F914F91CD
:100370003F912F910F900FBE0F901F9018951F92D5
:100380000F920FB60F9211242F933F938F939F9349
:10039000AF93BF938091180190911901A0911A0118
:1003A000B0911B0130911C010196A11DB11D232F9D
:1003B0002D5F2D3720F02D570196A11DB11D2093E3
:1003C0001C018093180190931901A0931A01B09316
:1003D0001B018091140190911501A0911601B0911B
:1003E00017010196A11DB11D809314019093150171
:1003F000A0931601B0931701BF91AF919F918F9178
:100400003F912F910F900FBE0F901F9018957894E9
:1004100084B5826084BD84B5816084BD85B5826009
:1004200085BD85B5816085BDEEE6F0E080818160A7
:100430008083E1E8F0E08081826080838081816058
:100440008083E0E8F0E0808181608083E1EBF0E090
:10045000808184608083E0EBF0E080818160808334
:10046000EAE7F0E08081846080838081826080831D
:100470008081816080838081806880831092C10048
:100480000895282F30E0C90186569F4FFC019491B2
:100490002A573F4FF9018491882391F0E82FF0E02B
:1004A000EE0FFF1FE859FF4FA591B491662329F481
:1004B0008C91909589238C9308958C91892B8C93A2
:1004C0000895482F50E0CA0182559F4FFC012491A6
:1004D000CA0186569F4FFC0194914A575F4FFA011B
:1004E00034913323D1F1222331F1233021F480914F
:1004F00080008F7705C0243031F4809180008F7D9B
:100500008093800018C0213019F484B58F7704C01F
:10051000223021F484B58F7D84BD0DC0263021F4B6
:100520008091B0008F7705C0273029F48091B0000A
:100530008F7D8093B000E32FF0E0EE0FFF1FEE58A9
:10054000FF4FA591B491662329F48C91909589234E
:100550008C9308958C91892B8C930895682F70E06B
:10056000CB0182559F4FFC012491CB0186569F4FB2
:10057000FC0144916A577F4FFB019491992319F430
:1005800020E030E038C0222331F1233021F4809183
:1005900080008F7705C0243031F4809180008F7DFA
:1005A0008093800018C0213019F484B58F7704C07F
:1005B000223021F484B58F7D84BD0DC0263021F416
:1005C0008091B0008F7705C0273029F48091B0006A
:1005D0008F7D8093B000892F90E0880F991F8458F9
:1005E0009F4FFC01A591B4918C9120E030E08423D1
:1005F00011F021E030E0C90108951F920F920FB66B
:100600000F9211242F933F934F935F936F937F9398
:100610008F939F93AF93BF93EF93FF934091C60047
:10062000E0919D01F0919E01CF01019660E870E09C
:100630000E94B2059C0180919F019091A001281712
:10064000390739F0E35EFE4F408330939E012093DB
:100650009D01FF91EF91BF91AF919F918F917F91FC
:100660006F915F914F913F912F910F900FBE0F901F
:100670001F9018955F926F927F928F929F92AF9288
:10068000BF92CF92DF92EF92FF920F931F93CF937F
:10069000DF93EC013A014B01413482E458078FE0CB
:1006A000680780E078070CF07FC060E874E88EE1AE
:1006B00090E0A40193010E94E705215030404040A2
:1006C0005040CA01B90122E030E040E050E00E9411
:1006D000E70559016A01A6019501209530954095DD
:1006E000509594E0220F331F441F551F9A95D1F760
:1006F00060E074E284EF90E00E94E705CA01B9016E
:100700002FEF30E040E050E00E949305A4019301F8
:100710000E94E705C90181509F4F181619061CF465
:10072000522E5A9403C055245394521A60E079E033
:100730008DE390E0A40193010E94E7052150304031
:1007400040405040CA01B90122E030E040E050E0B2
:100750000E94E705209530954095509583E0220F43
:10076000331F441F551F8A95D1F760E074E284EF70
:1007700090E00E94E705CA01B9012FEF30E040E0A8
:1007800050E00E949305A40193010E94E705C9016E
:1007900081509F4F181619061CF4822F815002C0F9
:1007A00081E0821B851500F5E885F98581E090E000
:1007B0000A8802C0880F991F0A94E2F7808360E0DC
:1007C00079E08DE390E0A40193010E94E7052150B8
:1007D000304040405040CA01B90122E030E040E0E2
:1007E00050E00E94E70504C0E885F9851082950174
:1007F000EC81FD813083EE81FF812083EA85FB85DA
:10080000208141E050E0CA010E8402C0880F991F88
:100810000A94E2F7282B2083EA85FB852081CA0110
:100820000F8402C0880F991F0A94E2F7282B2083B7
:10083000EA85FB858081088802C0440F551F0A9411
:10084000E2F7842B8083DF91CF911F910F91FF906E
:10085000EF90DF90CF90BF90AF909F908F907F9060
:100860006F905F900895FC01A085B18521898C91DE
:1008700090E0022E02C0959587950A94E2F780FFDA
:10088000F6CF0484F585E02D6083089587E091E03C
:100890009093A2018093A1018DE191E09093A40136
:1008A0008093A30185EC90E09093A6018093A5012D
:1008B00084EC90E09093A8018093A70180EC90E0F5
:1008C0009093AA018093A90181EC90E09093AC01F0
:1008D0008093AB0186EC90E09093AE018093AD01E4
:1008E00084E08093AF0183E08093B00187E0809340
:1008F000B10185E08093B20181E08093B301089556
:100900000F931F93CF93DF938C01EB0109C02196C6
:10091000D801ED91FC910190F081E02DC80109957D
:1009200068816623A1F7DF91CF911F910F91089500
:10093000EF92FF920F931F93CF93DF938C017B0174
:10094000EA010CC0D7016D917D01D801ED91FC91B8
:100950000190F081E02DC80109952197209791F72A
:10096000DF91CF911F910F91FF90EF900895DC01DF
:10097000ED91FC910280F381E02D099508952F926D
:100980003F924F925F926F927F928F929F92AF921F
:10099000BF92CF92DF92EF92FF920F931F93DF935C
:1009A000CF93CDB7DEB7A0970FB6F894DEBF0FBEDA
:1009B000CDBF1C016A017B0141155105610571051F
:1009C00049F4DC01ED91FC910190F081E02D60E3B0
:1009D000099554C0882499245401422E5524662434
:1009E000772401E010E00C0F1D1F080D191DC70131
:1009F000B601A30192010E94C505F8016083089425
:100A0000811C911CA11CB11CC701B601A30192015C
:100A10000E94C505C901DA016C017D01C114D10430
:100A2000E104F104F1F681E0E82EF12CEC0EFD1E5C
:100A3000E80CF91C3E010894611C711CD501C4012D
:100A40000197A109B1096C01C818D90814C0F601B1
:100A5000EE0DFF1D60816A3010F4605D01C0695CBD
:100A6000D101ED91FC910190F081E02DC10109953A
:100A70000894E108F1086E147F0449F7A0960FB6B8
:100A8000F894DEBF0FBECDBFCF91DF911F910F91C4
:100A9000FF90EF90DF90CF90BF90AF909F908F909E
:100AA0007F906F905F904F903F902F900895EF92BE
:100AB000FF920F931F93CF93DF93EC017A018B0189
:100AC00077FF0FC0E881F9810190F081E02D6DE2A0
:100AD000099510950095F094E094E11CF11C011D1E
:100AE000111DCE01B801A7012AE00E94BF04DF91C9
:100AF000CF911F910F91FF90EF900895DC01211588
:100B0000310541F4ED91FC910190F081E02D642FCD
:100B1000099508952A30310519F40E945705089562
:100B20000E94BF040895629FD001739FF001829FCD
:100B3000E00DF11D649FE00DF11D929FF00D839F6C
:100B4000F00D749FF00D659FF00D9927729FB00D09
:100B5000E11DF91F639FB00DE11DF91FBD01CF011C
:100B60001124089597FB092E07260AD077FD04D09B
:100B700049D006D000201AF4709561957F4F0895F2
:100B8000F6F7909581959F4F0895A1E21A2EAA1B22
:100B9000BB1BFD010DC0AA1FBB1FEE1FFF1FA2172D
:100BA000B307E407F50720F0A21BB30BE40BF50B2A
:100BB000661F771F881F991F1A9469F760957095B3
:100BC000809590959B01AC01BD01CF01089597FBE5
:100BD000092E05260ED057FD04D0D7DF0AD0001C01
:100BE00038F450954095309521953F4F4F4F5F4FCA
:100BF0000895F6F790958095709561957F4F8F4F8A
:100C00009F4F0895AA1BBB1B51E107C0AA1FBB1F22
:100C1000A617B70710F0A61BB70B881F991F5A9588
:100C2000A9F780959095BC01CD010895EE0FFF1FA7
:0C0C30000590F491E02D0994F894FFCF9A
:0E0C3C000A0D0000000000330480049804003C
:00000001FF
