:100000000C9461000C947E000C947E000C947E0095
:100010000C947E000C947E000C947E000C947E0068
:100020000C947E000C947E000C947E000C947E0058
:100030000C947E000C947E000C947E000C947E0048
:100040000C9426010C947E000C947E000C947E008F
:100050000C947E000C947E000C947E000C947E0028
:100060000C947E000C947E00000000002400270009
:100070002A0000000000250028002B0000000000DE
:1000800023002600290004040404040404040202DA
:100090000202020203030303030301020408102007
:1000A0004080010204081020010204081020000012
:1000B0000007000201000003040600000000000029
:1000C000000011241FBECFEFD8E0DEBFCDBF11E08E
:1000D000A0E0B1E0E0EDF5E002C005900D92AA319C
:1000E000B107D9F711E0AAE1B1E001C01D92A73232
:1000F000B107E1F70E941F010C94E6020C94000086
:10010000AF92BF92CF92DF92EF92FF920F931F9325
:10011000CF93DF9380E00E94B60100D000D0AA27E1
:1001200097FDA095BA2F2AE030E040E050E0EDB70F
:10013000FEB72183328343835483BC01CD0120E089
:1001400030E040E050E0EFEFEE2EE3E0FE2E012D38
:10015000112DAA24BB2465010E9441026B018EE18E
:10016000E82E81E0F82EC4E0D1E000E010E00F902E
:100170000F900F900F900C151D056CF50E946E01ED
:1001800020911A0130911B0140911C0150911D01D9
:10019000621B730B840B950B2091000130910101C0
:1001A000409102015091030126173707480759076C
:1001B000C8F40E946E0160931A0170931B01809332
:1001C0001C0190931D01F70111821082888160E06B
:1001D0000E94F40107C0888160E00E94F401F701E9
:1001E000118210820F5F1F4F82E090E0E80EF91E2F
:1001F00022960A30110509F0BECFDF91CF911F91F1
:100200000F91FF90EF90DF90CF90BF90AF90089547
:10021000CF93DF93C0E0D0E0FE01EC5FFE4F808122
:1002200061E00E94D401FE01E25EFE4F1182108265
:100230002296C431D10581F7DF91CF9108950E94B4
:100240007C010E9408010E948000FDCF1F920F9246
:100250000FB60F9211242F933F938F939F93AF93D9
:10026000BF938091220190912301A0912401B0912C
:100270002501309126010196A11DB11D232F2D5F6F
:100280002D3720F02D570196A11DB11D2093260179
:100290008093220190932301A0932401B093250120
:1002A00080911E0190911F01A0912001B091210128
:1002B0000196A11DB11D80931E0190931F01A09373
:1002C0002001B0932101BF91AF919F918F913F91F8
:1002D0002F910F900FBE0F901F9018958FB7F89425
:1002E0002091220130912301409124015091250158
:1002F0008FBFB901CA010895789484B5826084BD26
:1003000084B5816084BD85B5826085BD85B5816019
:1003100085BDEEE6F0E0808181608083E1E8F0E079
:10032000808182608083808181608083E0E8F0E06A
:10033000808181608083E1EBF0E080818460808354
:10034000E0EBF0E0808181608083EAE7F0E080818B
:1003500084608083808182608083808181608083EB
:100360008081806880831092C10008958F70909181
:1003700018019295990F990F907C982B90937C007F
:1003800080917A00806480937A0080917A0086FD63
:10039000FCCF2091780040917900942F80E030E0EC
:1003A000282B392BC9010895282F30E0C901865622
:1003B0009F4FFC0194912A573F4FF9018491882364
:1003C00091F0E82FF0E0EE0FFF1FE859FF4FA591E5
:1003D000B491662329F48C91909589238C93089588
:1003E0008C91892B8C930895482F50E0CA01825537
:1003F0009F4FFC012491CA0186569F4FFC019491A6
:100400004A575F4FFA0134913323D1F1222331F15E
:10041000233021F4809180008F7705C0243031F49F
:10042000809180008F7D8093800018C0213019F466
:1004300084B58F7704C0223021F484B58F7D84BDCC
:100440000DC0263021F48091B0008F7705C0273091
:1004500029F48091B0008F7D8093B000E32FF0E00D
:10046000EE0FFF1FEE58FF4FA591B491662329F4BC
:100470008C91909589238C9308958C91892B8C93E2
:1004800008952F923F924F925F926F927F928F9238
:100490009F92AF92BF92CF92DF92EF92FF920F9313
:1004A0001F93DF93CF93CDB7DEB73B014C0119010A
:1004B0002A016D897E898F89988D6A197B098C093B
:1004C0009D09621A730A840A950AA40193010E9485
:1004D0008A02E218F30804091509A80197010E948D
:1004E000A9022A0D3B1D4C1D5D1DB901CA01CF910A
:1004F000DF911F910F91FF90EF90DF90CF90BF9011
:10050000AF909F908F907F906F905F904F903F90B3
:100510002F900895629FD001739FF001829FE00D9C
:10052000F11D649FE00DF11D929FF00D839FF00D72
:10053000749FF00D659FF00D9927729FB00DE11D1E
:10054000F91F639FB00DE11DF91FBD01CF011124FB
:10055000089597FB092E05260ED057FD04D014D020
:100560000AD0001C38F450954095309521953F4FA6
:100570004F4F5F4F0895F6F7909580957095619570
:100580007F4F8F4F9F4F0895A1E21A2EAA1BBB1BCE
:10059000FD010DC0AA1FBB1FEE1FFF1FA217B3074F
:1005A000E407F50720F0A21BB30BE40BF50B661F65
:1005B000771F881F991F1A9469F760957095809529
:1005C00090959B01AC01BD01CF010895F894FFCF38
:1005D000E803000002000300040005000600070015
:0A05E000080009000A000B000100EA
:00000001FF
