:100000000C9463000C948B000C948B000C948B006C
:100010000C948B000C948B000C948B000C948B0034
:100020000C948B000C944D050C948B000C948B005D
:100030000C948B000C948B000C948B000C948B0014
:100040000C9433100C948B000C94D8110C948B00EE
:100050000C948B000C948B000C948B000C948B00F4
:100060000C948B000C948B000000000024002700EF
:100070002A0000000000250028002B0000000000DE
:1000800023002600290004040404040404040202DA
:100090000202020203030303030301020408102007
:1000A0004080010204081020010204081020000012
:1000B0000007000201000003040600000000000029
:1000C00000002306211311241FBECFEFD8E0DEBFAE
:1000D000CDBF11E0A0E0B1E0EEE6FFE202C0059086
:1000E0000D92A436B107D9F712E0A4E6B1E001C041
:1000F0001D92AA3CB107E1F710E0C6ECD0E004C0C5
:100100002297FE010E947A17C23CD107C9F70E94CC
:100110002C100C94B5170C940000A0E0B0E0E3E9BB
:10012000F0E00C948617EC01A880B980CA80DB80CF
:10013000A114B104C104D10441F484E2A82E89EDD4
:10014000B82E8BE5C82E87E0D82EC601B5012DE16B
:1001500033EF41E050E00E94491727EA31E440E0E4
:1001600050E00E94F5167B018C01C601B5012DE11E
:1001700033EF41E050E00E944917CA01B9012CEE6B
:1001800034EF4FEF5FEF0E94F5166E0D7F1D801F5D
:10019000911F97FF04C06150704080409048688371
:1001A00079838A839B839B01AC015F77B901CA0184
:1001B000CDB7DEB7EAE00C94A2170E948D00089537
:1001C0008FE391E00E948D00089560933F0170934A
:1001D000400180934101909342010895F999FECF27
:1001E00072BD61BDF89A80B50895F999FECF1FBA26
:1001F00072BD61BD40BD0FB6F894FA9AF99A0FBE70
:1002000008956093650110926701089582E08093DC
:100210006601109202020895CF93DF93EB01E88507
:10022000F985828193818838910508F46DC08281B7
:100230009381853E910508F067C06FC084819581E8
:10024000809708F46FC084819581C79708F06AC0D1
:1002500086819781099708F465C0868197814297C6
:1002600008F060C01F821E828FEF9FEFAFEFBFEFDD
:100270008A839B83AC83BD833EC084819581823415
:10028000910508F441C0848195818037910508F07B
:100290003BC0369620E030E040E050E063E070E0A4
:1002A00080819181099780F180819181429760F5E9
:1002B0003FC082819381879708F041C0220F331F8E
:1002C000441F551F216008C08D919C910D97E0F44B
:1002D000220F331F441F551F34966134710519F0E6
:1002E0006E5F7F4FDDCF80E290E09F838E832A8315
:1002F0003B834C835D8381E090E09983888321E098
:1003000030E040E050E004C020E030E040E050E069
:10031000B901CA01DF91CF91089580910202843022
:1003200009F48CCF80910202843408F0A6CFECCF80
:10033000DF01129682819381469708F0BACF8D91A2
:100340009C911197069700F3BFCF0F931F93CF9304
:10035000DF938B01809102028A3108F460C0DB01D7
:100360001896ED91FC91199782819381859708F4F5
:1003700056C0828193818034910508F050C0DF011E
:10038000169640E050E060E070E0C2E0D0E022C0AD
:10039000FD01329780819181079728F180819181B9
:1003A0000E9708F547C08D919C911197829708F0A0
:1003B00047C0440F551F661F771F416009C08D91CC
:1003C0009C911197439758F5440F551F661F771F4F
:1003D00022961496809102029E012F5F3F4F90E07B
:1003E00028173907ACF2CE01019795958795F8014A
:1003F000978386830C971CF41782168210C0D8014D
:1004000012964D935D936D937C93159782E090E0E7
:100410008D939C9321E030E040E050E004C020E068
:1004200030E040E050E0B901CA01DF91CF911F9167
:100430000F9108958D919C911197439708F0B3CF38
:100440008D919C9111970A9750F3B9CF4F925F927B
:100450006F927F928F929F92AF92BF92CF92DF92D4
:10046000EF92FF920F931F93CF93DF93FB012A012B
:1004700039015801DA012D913C9182859385281725
:10048000390724F001E0802E912CDAC0C901880FD1
:10049000991F0084F185E02DE80FF91FC080D180FD
:1004A00020FD06C0CCE9DFEFB1E08B2E912C04C01B
:1004B000C4E6D0E088249924BE016A0D7B1D8827FC
:1004C00077FD8095982F0E9406167B018C0120E015
:1004D00030E040E45FE30E94921620E030E048E420
:1004E00052E40E946B150E94D315C616D706E4F09D
:1004F000C801B70120E030E040EA5FE30E949216B5
:1005000020E030E048E452E40E946B1520E030E047
:1005100040E85FE30E9407150E94D3156C157D0526
:100520001CF021E030E076C0B501660F771F6C0F3C
:100530007D1F882777FD8095982F0E9406167B01E6
:100540008C0120E030E040E45FE30E94921620E05E
:1005500030E048E452E40E946B150E94D315C616A1
:10056000D706E4F0C801B70120E030E040EA5FE3DD
:100570000E94921620E030E048E452E40E946B159D
:1005800020E030E040E85FE30E9407150E94D315A9
:100590006C157D051CF022E030E03CC0C501880FE1
:1005A000991F8A0D9B1DC80FD91FBE01882777FD93
:1005B0008095982F0E9406167B018C0120E030E088
:1005C00040E45FE30E94921620E030E048E452E409
:1005D0000E946B150E94D315C616D70674F1C80188
:1005E000B70120E030E040EA5FE30E94921620E08D
:1005F00030E048E452E40E946B1520E030E040E82F
:100600005FE30E9407150E94D3156C157D05ACF0C1
:1006100023E030E0F3018081918101969183808312
:10062000821793076CF011821082D2018D919C91F8
:10063000119701968D939C9303C088248A94982CDB
:10064000C401DF91CF911F910F91FF90EF90DF9048
:10065000CF90BF90AF909F908F907F906F905F9062
:100660004F9008952F923F924F925F926F927F9298
:100670008F929F92AF92BF92CF92DF92EF92FF92B2
:100680000F931F93DF93CF9300D000D000D0CDB74E
:10069000DEB71C015B01809102028D3008F47EC040
:1006A00081E090E09A8389831C821B8223E0822E62
:1006B000912C8C0E9D1EC1012E010894411C511CD1
:1006C000A201940109E713E00E942602892B09F098
:1006D00065C0C101B501A20194010E9426020197E3
:1006E00009F05CC0C101B501A20194010E9426027B
:1006F000892B09F053C0CC24DD24760166247724AD
:10070000C4018D829E832FC0C101B501A2012D813C
:100710003E8109E713E00E9426024C01C101B501A8
:10072000A2012D813E810E94260221E082169104C1
:1007300079F4892B99F5CC0CDD1CEE1CFF1C81E0B3
:1007400090E0A0E0B0E0C82AD92AEA2AFB2A08C033
:10075000892821F5019711F5CC0CDD1CEE1CFF1C3E
:100760000894611C711C8091020290E029813A81F9
:10077000281739074CF2D50117967C926E9216977E
:10078000F501C282D382E482F58283E090E0918316
:10079000808321E030E040E050E004C020E030E021
:1007A00040E050E0B901CA0126960FB6F894DEBFCA
:1007B0000FBECDBFCF91DF911F910F91FF90EF90B2
:1007C000DF90CF90BF90AF909F908F907F906F9071
:1007D0005F904F903F902F9008952F923F924F92AD
:1007E0005F926F927F928F929F92AF92BF92CF92C1
:1007F000DF92EF92FF920F931F93DF93CF93CDB7CA
:10080000DEB728970FB6F894DEBF0FBECDBF1C0130
:100810004B01DB011A968D919C911B9718161906B6
:100820000CF0A4C081E090E09A8389831896ED9142
:10083000FC91199782819381899708F497C08281EE
:1008400093818734910508F091C0AFC08481958170
:10085000459708F08BC0B2C0C101B401A301950156
:100860000CEB11E00E942602019709F07FC0CC2416
:10087000DD24760144245524C501AD829E83C30145
:100880006F82988756C0C101B4014F8158852D8170
:100890003E810CEB11E00E9426023C01B3E04B16B6
:1008A000510461F4C101B4014F8158852D813E810D
:1008B0000E9426026816790609F058C0C101B401E9
:1008C0004F8158852D813E810CEB11E00E9426025C
:1008D0005C01E3E04E16510459F4C101B4014F81AB
:1008E00058852D813E810E942602A816B906F1F591
:1008F0006114710489F4F1E0AF16B104B9F5CC0CC0
:10090000DD1CEE1CFF1C81E090E0A0E0B0E0C82AF6
:10091000D92AEA2AFB2A0AC091E06916710431F546
:10092000AB2821F5CC0CDD1CEE1CFF1C0894411CEF
:10093000511C29813A81D4011A968D919C911B9763
:10094000281739070CF49FCF17965C924E92169792
:10095000F401C282D382E482F58284E090E0918344
:10096000808321E030E040E050E004C020E030E04F
:1009700040E050E0B901CA0128960FB6F894DEBFF6
:100980000FBECDBFCF91DF911F910F91FF90EF90E0
:10099000DF90CF90BF90AF909F908F907F906F909F
:1009A0005F904F903F902F90089582E090E09A835F
:1009B0008983848195810B97C8F248CF83E090E0CA
:1009C0009A8389831C821B8233E0A32EB12CAC0E48
:1009D000BD1EC101B4013E010894611C711CA3013C
:1009E00095010CEB11E00E942602892B09F0BECF85
:1009F00033CF0F931F93CF93DF938C01EB018AE6E4
:100A000091E099878887809102028A871B8680916E
:100A100066018530B9F5C8010E940C0161157105A8
:100A20008105910591F5C801BE010E94A5016115DE
:100A300071058105910549F5C801BE010E94320387
:100A4000611571058105910501F5C801BE010E947E
:100A5000ED036115710581059105B9F48A859B85C2
:100A600006975CF08FEF9FEF998388831F821E8229
:100A70001A821B821C821D8208C082E0809366015C
:100A80001092020220E030E002C021E030E0C90113
:100A9000DF91CF911F910F9108951F920F920FB682
:100AA0000F9211242F933F934F935F936F937F93F4
:100AB0008F939F93AF93BF93EF93FF9381EA8093BC
:100AC000B200809165010E948911482F80916801D0
:100AD00090916901019690936901809368018091DA
:100AE00002028C3418F085E08093660180916601E3
:100AF0008330D1F0843020F4823009F059C006C030
:100B0000843071F1853009F053C04CC0442309F0A2
:100B10004FC080916801909169018436910508F475
:100B200043C0109202021EC0413009F041C08091C2
:100B30000202E82FF0E02091680130916901EE0F88
:100B4000FF1FEB59FE4F368325838F5F8093020290
:100B5000109269011092680184E08093660128C0B8
:100B60004423B9F480910202E82FF0E0209168015B
:100B700030916901EE0FFF1FEB59FE4F368325833D
:100B80008F5F80930202109269011092680183E0E6
:100B9000E4CF80916801909169018536910540F01C
:100BA00085E0DBCF442321F41092690110926801A3
:100BB00080916701882329F0442311F42D9A01C004
:100BC0002D98FF91EF91BF91AF919F918F917F9160
:100BD0006F915F914F913F912F910F900FBE0F90AA
:100BE0001F9018951092B000E1EBF0E080818B7FB0
:100BF000808380818260808380818E7F8083E0E734
:100C0000F0E080818160808381EA8093B2007894F3
:100C100082E080936601109202028091650160E09B
:100C20000E941C1108959C01FB0160E071E00E948C
:100C3000141771836083C90160E071E00E9414178A
:100C40009383828308956091490170914A0187E0FE
:100C500092E00E9401016FEF70E080E090E00E945E
:100C6000E41460931B026FEF70E080E090E00E945C
:100C7000E41460931C026FEF70E080E090E00E944B
:100C8000E41460931D020895AF92BF92CF92DF9259
:100C9000EF92FF920F931F93CF93DF93EC0120917C
:100CA0001E0230911F022A3A310520F500D000D0F3
:100CB000B901882777FD8095982F2FEF30E040E02D
:100CC00050E0EDB7FEB7218332834383548320E0A5
:100CD00030E040E050E00AEAE02EF12C012D112D29
:100CE000AA24BB2465010E949B14FB010F900F9066
:100CF0000F900F9020911E0230911F02C9018A5A55
:100D000090408B3A910518F04FEF50E026C000D08C
:100D100000D0B901882777FD8095982F2FEF30E01C
:100D200040E050E0EDB7FEB7218332834383548324
:100D300025E531E040E050E01AEAE12EF12C012DEA
:100D4000112DAA24BB2465010E949B14AB01EFEF77
:100D5000F0E00F900F900F900F9020911E023091B5
:100D60001F02C901855591408A3A910518F060E04B
:100D700070E028C000D000D0B901882777FD8095A9
:100D8000982F2FEF30E040E050E0EDB7FEB7218321
:100D900032834383548325E531E040E050E0BFEFE8
:100DA000EB2EB1E0FB2E012D112DAA24BB246501F1
:100DB0000E949B1440E050E0EFEFF0E00F900F90A6
:100DC0000F900F9020911E0230911F02C9018F5F7A
:100DD00091408B3A910548F500D000D0B9018827A1
:100DE00077FD8095982F2FEF30E040E050E0EDB791
:100DF000FEB721833283438354832AEA32E040E002
:100E000050E0AFEFEA2EA1E0FA2E012D112DAA2419
:100E1000BB2465010E949B14FB0140E050E06FEF92
:100E200070E00F900F900F900F9020911E02309164
:100E30001F02C9018A5A92408A3A910548F500D0AA
:100E400000D0B901882777FD8095982F2FEF30E0EB
:100E500040E050E0EDB7FEB72183328343835483F3
:100E60002AEA32E040E050E0F4E5EF2EF3E0FF2E16
:100E7000012D112DAA24BB2465010E949B14AB01F6
:100E8000E0E0F0E06FEF70E00F900F900F900F90A8
:100E900020911E0230911F02C901845593408C3A63
:100EA000910540F500D000D0B901882777FD8095E5
:100EB000982F2FEF30E040E050E0EDB7FEB72183F0
:100EC0003283438354832FEF33E040E050E0E4E586
:100ED000EE2EE3E0FE2E012D112DAA24BB24650188
:100EE0000E949B144FEF50E0E0E0F0E00F900F9075
:100EF0000F900F9059834883FB83EA837D836C8333
:100F0000DF91CF911F910F91FF90EF90DF90CF90E5
:100F1000BF90AF900895DF93CF9300D000D000D062
:100F2000CDB7DEB7CE0101960E9444068981809339
:100F300018028B81809319028D8180931A02269664
:100F40000FB6F894DEBF0FBECDBFCF91DF910895ED
:100F50002F923F924F925F926F927F928F929F92C9
:100F6000AF92BF92CF92DF92EF92FF920F931F93B7
:100F7000DF93CF93CDB7DEB72E970FB6F894DEBFD1
:100F80000FBECDBF9E878D87DC018D919C911197FF
:100F900012962D913C91139714964D915C91159753
:100FA00060914D0170914E017C010027F7FC009586
:100FB000102FC901AA2797FDA095BA2F8D839E8374
:100FC000AF83B887CA01AA2797FDA095BA2F898752
:100FD0009A87AB87BC876F3F710511F00CF048C052
:100FE00000D000D0CB01AA2797FDA095BA2FEDB76E
:100FF000FEB781839283A383B483C801B70120E045
:1010000030E040E050E0AFEFEA2EF12C012D112D41
:10101000AA24BB2465010E949B147C836B8380916E
:101020004D0190914E01AA2797FDA095BA2FEDB7DB
:10103000FEB781839283A383B4836D817E818F8188
:10104000988520E030E040E050E00E949B147A83D5
:10105000698380914D0190914E01AA2797FDA0953B
:10106000BA2FEDB7FEB781839283A383B48341C0C7
:101070006F5F70401B01442437FC4094542C00D017
:1010800000D0FFEF6F2E712C812C912CADB7BEB725
:1010900011966D927D928D929C921497C801B70122
:1010A00020E030E040E050E0EFEFEE2EF12C012D9B
:1010B000112D620151010E949B147C836B83EDB75B
:1010C000FEB761827282838294826D817E818F817C
:1010D000988520E030E040E050E00E949B147A8345
:1010E0006983ADB7BEB711966D927D928D929C9239
:1010F000149769857A858B859C8520E030E040E0F7
:1011000050E00E949B140F900F900F900F908B81D6
:101110009C81ED85FE8591838083A981BA81B3830B
:10112000A283758364832E960FB6F894DEBF0FBE3C
:10113000CDBFCF91DF911F910F91FF90EF90DF9086
:10114000CF90BF90AF909F908F907F906F905F9067
:101150004F903F902F900895DF93CF9300D000D011
:1011600000D0CDB7DEB7FE01319686E0DF011D92DB
:101170008A95E9F78091180289831A828091190271
:101180008B831C8280911A028D831E82CF010E9464
:10119000A8078981809318028B81809319028D8121
:1011A00080931A0226960FB6F894DEBF0FBECDBF0D
:1011B000CF91DF910895609118028091430170E012
:1011C0000E94C310609119028091450170E00E9455
:1011D000C31060911A028091470170E00E94C31011
:1011E00008950F931F93DF93CF9300D000D000D0CA
:1011F000CDB7DEB78E010F5F1F4FC8010E944406B6
:10120000C8010E94A807898180931B028B8180936B
:101210001C028D8180931D020E947B10209124026C
:10122000309125024091260250912702621B730BD8
:10123000840B950B6230710581059105E0F10E94E8
:101240007B10609324027093250280932602909372
:1012500027028091180290911B02981718F4815070
:101260008093180280911802891718F48F5F809379
:1012700018028091190290911C02981718F481505D
:101280008093190280911902891718F48F5F809357
:10129000190280911A0290911D02981718F481503A
:1012A00080931A0280911A02891718F48F5F809335
:1012B0001A020E94DB0826960FB6F894DEBF0FBE16
:1012C000CDBFCF91DF911F910F910895DF93CF9301
:1012D00000D000D0CDB7DEB79C01409114025091F0
:1012E00015024115510551F4009709F1809116023C
:1012F0009091170290934E0180934D012230310559
:1013000009F44DC02330310544F42115310579F03D
:101310002130310509F047C042C024303105C1F108
:101320002430310594F12A303105E9F538C0509365
:101330004C0140934B0180914D0190914E0190934F
:1013400017028093160284E691E067E070E00E9445
:10135000F5008091160290911702BE016F5F7F4FDA
:101360000E94130684E691E068E070E049810E94E3
:10137000F50084E691E069E070E04B810E94F500A1
:1013800010921502109214020EC083E090E002C089
:1013900081E090E0909315028093140204C0309392
:1013A0001502209314020F900F900F900F90CF9181
:1013B000DF9108959C018091140290911502892B70
:1013C00019F4C9010E9466090895AF92BF92CF92A5
:1013D000DF92EF92FF920F931F9387E092E068E015
:1013E00072E00E94F904892B09F4ECC387E092E0D3
:1013F0000E94060180910A0290910B02A0910C02BA
:10140000B0910D028F3F2FEF92072FEFA2072FEF22
:10141000B20799F09093060280930502909304021C
:10142000809303020E947B1060932002709321023C
:10143000809322029093230228C00E947B10209167
:101440002002309121024091220250912302621B1E
:10145000730B840B950B20914F01309150014091FB
:10146000510150915201261737074807590748F490
:1014700080910302909104029093060280930502EA
:1014800004C010920602109205028091050290910C
:10149000060248EF8730940709F488C268EF883065
:1014A00096070CF048C0E0EC8F339E0709F4DFC0CC
:1014B000F0EC80349F07ECF420EA8F35920709F4B2
:1014C000E4C040EA8036940754F460E88F3796070A
:1014D00009F4BDC08F56904909F0DFC2F2C0F8EAA6
:1014E00087359F0709F4D1C18F54904B09F0D5C2BD
:1014F00012C248ED8732940709F433C268ED88328E
:10150000960754F4E8EC87339E0709F474C28F52AF
:10151000904D09F0C2C280C128EE8731920709F4CC
:10152000DEC040EF8F30940709F415C28F51904E02
:1015300009F0B3C2B8C0E8E4873B9E0709F469C06C
:10154000F8E4883B9F0704F520E18F3E920709F4F9
:10155000B1C040E1803F94074CF48F3F910509F4FE
:10156000B7C0875F984009F098C2BEC0E8E3873CE7
:101570009E0761F1F0E48F3B9F0709F471C08F5D16
:10158000904209F08AC27AC040E68F39940709F484
:1015900083C060E6803A960754F4E0E58F3A9E07F0
:1015A00009F4D6C1875A984509F077C22BC220E7C3
:1015B0008F38920709F4D2C148E78738940709F4B5
:1015C00046C28759984609F068C298C180910A02BC
:1015D00090910B02A0910C02B0910D028F5F9F4F72
:1015E000AF4FBF4F09F4B1C1809114029091150221
:1015F000039721F481E090E00E9466096FEF73E0A9
:1016000080E090E00E94E41470931F0260931E0239
:1016100044C280910A0290910B02A0910C02B091F9
:101620000D028F5F9F4FAF4FBF4F09F436C28091BD
:10163000140290911502892B29F480914B0190910D
:101640004C0102C080E090E00E94660926C281E061
:1016500090E00E94DA0910921F0210921E021DC231
:1016600081E090E00E94DA0988E290E012C281E015
:1016700090E00E94DA0986E990E00BC281E090E0F8
:101680000E94DA098AEF90E004C281E090E00E94B3
:10169000DA0985E591E0FDC181E090E00E94DA0978
:1016A0008CE791E0F6C181E090E00E94DA098EE4D7
:1016B00092E0EFC181E090E00E94DA098AEA92E0CC
:1016C000E8C181E090E00E94DA0989EE92E0E1C190
:1016D00081E090E00E94DA098FEC93E0DAC181E0CA
:1016E00090E00E94DA095FC180910A0290910B029A
:1016F000A0910C02B0910D028F5F9F4FAF4FBF4F73
:1017000009F4CBC187EB92E060E071E00E94B11375
:1017100087EB92E069E071E00E949213409114021D
:1017200050911502662757FD6095762F87EB92E062
:101730002AE030E00E94901487EB92E060E171E0D3
:101740000E94921340911E0250911F02662757FD7E
:101750006095762F87EB92E02AE030E00E949014AB
:1017600087EB92E06BE171E00E94921340914D0192
:1017700050914E01662757FD6095762F87EB92E0DA
:101780002AE030E00E94901487EB92E066E271E07C
:101790000E94921340915301509154016091550160
:1017A0007091560187EB92E02AE030E00E9490149D
:1017B00087EB92E061E371E00E949213409118027E
:1017C00050E060E070E087EB92E02AE030E00E94B9
:1017D0007B1487EB92E065E371E00E9492134091E5
:1017E000190250E060E070E087EB92E02AE030E020
:1017F0000E947B1487EB92E06AE371E00E949213EF
:1018000040911A0250E060E070E087EB92E02AE03D
:1018100030E00E94901441C180910A0290910B0225
:10182000A0910C02B0910D0220915301309154010E
:1018300040915501509156018F5F9F4FAF4FBF4F61
:1018400029F02F5F3F4F4F4F5F4F04C02B5F3F4F3B
:101850004F4F5F4F209353013093540140935501F4
:10186000509356018091530190915401A0915501DC
:10187000B091560180509041A040B0400CF40DC191
:101880008FEF9FE0A0E0B0E03DC080910A02909110
:101890000B02A0910C02B0910D02209153013091E6
:1018A000540140915501509156018F5F9F4FAF4FAA
:1018B000BF4F29F0215030404040504004C02550D7
:1018C00030404040504020935301309354014093A6
:1018D0005501509356018091530190915401A0916C
:1018E0005501B0915601B7FFD8C010925301109224
:1018F00054011092550110925601CFC082E390E03E
:10190000A0E0B0E08093530190935401A09355015F
:10191000B0935601C2C080910A0290910B02A0912F
:101920000C02B0910D028F5F9F4FAF4FBF4F09F474
:10193000B4C080911402909115028130910559F044
:10194000823091052CF0029719F483E090E07CCE70
:1019500081E090E079CE82E090E076CE8AE090E07F
:1019600073CE80910A0290910B02A0910C02B0916B
:101970000D0220914D0130914E018F5F9F4FAF4F6F
:10198000BF4F19F02F5F3F4F02C0265F3F4F30938C
:101990004E0120934D0180914D0190914E018F5F3A
:1019A00091400CF47AC08EEF91E027C080910A023A
:1019B00090910B02A0910C02B0910D0220914D016B
:1019C00030914E018F5F9F4FAF4FBF4F19F02150A5
:1019D000304002C02A50304030934E0120934D01D8
:1019E00080914D0190914E0197FF57C010924E018A
:1019F00010924D0152C08FEF90E090934E01809372
:101A00004D014BC080910A0290910B02A0910C02F3
:101A1000B0910D0220911E0230911F028F5F9F4FE7
:101A2000AF4FBF4F19F02F5F3F4F02C0265F3F4FB0
:101A300030931F0220931E0280911E0290911F027C
:101A400024E0803092074CF18F5F934022C0809158
:101A50000A0290910B02A0910C02B0910D0220910C
:101A60001E0230911F028F5F9F4FAF4FBF4F19F083
:101A70002150304002C02A50304030931F02209342
:101A80001E0280911E0290911F0297FF06C0815096
:101A90009C4F90931F0280931E020091140210919C
:101AA000150284E691E060E070E00E94EE0090E0B4
:101AB0000817190741F084E691E060E070E040917A
:101AC00014020E94F500E0901E02F0901F02C70170
:101AD00060E071E00E9414178C0184E691E062E0FE
:101AE00070E00E94EE0090E00817190799F0C70116
:101AF00060E071E00E941417462F84E691E061E0F7
:101B000070E00E94F50084E691E062E070E0402F12
:101B10000E94F500E0904D01F0904E01C70160E099
:101B200071E00E9414178C0184E691E064E070E09B
:101B30000E94EE0090E00817190799F0C70160E0D5
:101B400071E00E941417462F84E691E063E070E094
:101B50000E94F50084E691E064E070E0402F0E946E
:101B6000F500E0905301F09054010091550110915F
:101B70005601C801B70120E031E040E050E00E948A
:101B800049176B0184E691E066E070E00E94EE0088
:101B900090E0C816D906B1F0C801B70120E031E0E5
:101BA00040E050E00E94491784E691E065E070E073
:101BB000422F0E94F50084E691E066E070E04C2D33
:101BC0000E94F5008091140290911502892B31F446
:101BD00010924E0110924D010E94F1088091140262
:101BE00090911502019711F40E94F108809114025E
:101BF00090911502029709F0BEC00E947B102091BF
:101C00002402309125024091260250912702621B46
:101C1000730B840B950B209153013091540140912B
:101C2000550150915601261737074807590708F004
:101C3000A2C00E947B1060932402709325028093BF
:101C40002602909327020E948B0720914D0130912C
:101C50004E0180915701909158012817390724F4BB
:101C600030935801209357018091280290912902C6
:101C70004091570150915801892B79F4CA0101977D
:101C80009093580180935701892BA1F481E090E053
:101C900090932902809328020DC0CA010196909367
:101CA0005801809357018217930724F0109229025C
:101CB0001092280200D000D06091180270E080E0FD
:101CC00090E02091570130915801442737FD40950D
:101CD000542FEDB7FEB7218332834383548320E032
:101CE00030E040E050E0BFEFEB2EF12C012D112D44
:101CF000AA24BB2465010E949B1460931802609182
:101D00001A0270E080E090E0209157013091580174
:101D1000442737FD4095542FEDB7FEB7218332831A
:101D20004383548320E030E040E050E00E949B1465
:101D300060931A026091190270E080E090E02091B7
:101D4000570130915801442737FD4095542FEDB786
:101D5000FEB7218332834383548320E030E040E0A8
:101D600050E00E949B14609319020F900F900F9007
:101D70000F900E94DB088091140290911502039746
:101D800009F088C00E947B10209124023091250226
:101D90004091260250912702621B730B840B950B16
:101DA00020915301309154014091550150915601B9
:101DB000261737074807590708F06CC00E947B10A8
:101DC0006093240270932502809326029093270249
:101DD0009091180280911B02891718F491509093EA
:101DE00018029091180280911B02981718F49F5FB7
:101DF000909318029091190280911C02891718F48F
:101E00009150909319029091190280911C02981799
:101E100018F49F5F9093190290911A0280911D020D
:101E2000891718F4915090931A0290911A02809198
:101E30001D02981718F49F5F90931A029091180250
:101E400080911B02981721F59091190280911C0234
:101E50009817F1F490911A0280911D029817C1F41D
:101E60006EEF70E080E090E00E94E41460931B024B
:101E70006EEF70E080E090E00E94E41460931C023A
:101E80006EEF70E080E090E00E94E41460931D0229
:101E90000E94DB0880911402909115020A9709F0C4
:101EA0003CC00E947B102091240230912502409179
:101EB000260250912702621B730B840B950B615411
:101EC0007F418040904048F10E947B106093240243
:101ED00070932502809326029093270280914D01F2
:101EE00090914E01019790934E0180934D010E9475
:101EF0008B070E94AC080E94DB0880914D019091F5
:101F00004E01892B51F48FEF90E090934E01809316
:101F10004D0180E090E00E9466091F910F91FF90B3
:101F2000EF90DF90CF90BF90AF9008951F93809176
:101F3000430161E00E941C118091450161E00E9413
:101F40001C118091470161E00E941C1184E691E020
:101F500060E070E00E94EE0080931402109215027F
:101F600084E691E061E070E00E94EE00182F84E6C4
:101F700091E062E070E00E94EE00312F20E0280F37
:101F8000311D30931F0220931E0284E691E063E02E
:101F900070E00E94EE00182F84E691E064E070E0AB
:101FA0000E94EE00312F20E0280F311D30934E01AA
:101FB00020934D01232B31F48FEF90E090934E014D
:101FC00080934D0184E691E065E070E00E94EE00B0
:101FD000182F84E691E066E070E00E94EE00312F59
:101FE00020E0280F311D442737FD4095542F2093C2
:101FF000530130935401409355015093560184E6A8
:1020000091E067E070E00E94EE0080934B01109237
:102010004C0184E691E068E070E00E94EE00182F29
:1020200084E691E069E070E00E94EE00312F20E04C
:10203000280F311D309317022093160287E092E09B
:102040000E94F20587EB92E040E855E260E070E024
:102050000E9415121F9108950E9489100E94960FE8
:102060000E94E509FDCF1F920F920FB60F92112427
:102070002F933F938F939F93AF93BF9380912E02A3
:1020800090912F02A0913002B09131023091320232
:102090000196A11DB11D232F2D5F2D3720F02D5747
:1020A0000196A11DB11D2093320280932E029093C0
:1020B0002F02A0933002B093310280912A029091B6
:1020C0002B02A0912C02B0912D020196A11DB11DF1
:1020D00080932A0290932B02A0932C02B0932D029E
:1020E000BF91AF919F918F913F912F910F900FBE14
:1020F0000F901F9018958FB7F89420912E02309171
:102100002F0240913002509131028FBFB901CA01B4
:102110000895789484B5826084BD84B5816084BD5F
:1021200085B5826085BD85B5816085BDEEE6F0E050
:10213000808181608083E1E8F0E08081826080833B
:10214000808181608083E0E8F0E08081816080832D
:10215000E1EBF0E0808184608083E0EBF0E080815F
:1021600081608083EAE7F0E0808184608083808101
:1021700082608083808181608083808180688083A9
:102180001092C10008951F93CF93DF93182FEB0196
:1021900061E00E941C11E12FF0E0E255FF4F8491B5
:1021A000833051F480918000806880938000D093C8
:1021B0008900C09388003CC0843051F48091800035
:1021C000806280938000D0938B00C0938A0030C0DF
:1021D000813039F4209729F184B5806884BDC7BD6A
:1021E00027C0823039F42097E1F084B5806284BD45
:1021F000C8BD1EC0863041F48091B00080688093D5
:10220000B000C093B30014C0873041F48091B00097
:1022100080628093B000C093B4000AC0C038D1057A
:102220001CF4812F60E002C0812F61E00E943C110C
:10223000DF91CF911F910895282F30E0C901865674
:102240009F4FFC0194912A573F4FF90184918823B5
:1022500091F0E82FF0E0EE0FFF1FE859FF4FA59136
:10226000B491662329F48C91909589238C930895D9
:102270008C91892B8C930895482F50E0CA01825588
:102280009F4FFC012491CA0186569F4FFC019491F7
:102290004A575F4FFA0134913323D1F1222331F1B0
:1022A000233021F4809180008F7705C0243031F4F1
:1022B000809180008F7D8093800018C0213019F4B8
:1022C00084B58F7704C0223021F484B58F7D84BD1E
:1022D0000DC0263021F48091B0008F7705C02730E3
:1022E00029F48091B0008F7D8093B000E32FF0E05F
:1022F000EE0FFF1FEE58FF4FA591B491662329F40E
:102300008C91909589238C9308958C91892B8C9333
:102310000895682F70E0CB0182559F4FFC012491F6
:10232000CB0186569F4FFC0144916A577F4FFB01BA
:102330009491992319F420E030E038C0222331F140
:10234000233021F4809180008F7705C0243031F450
:10235000809180008F7D8093800018C0213019F417
:1023600084B58F7704C0223021F484B58F7D84BD7D
:102370000DC0263021F48091B0008F7705C0273042
:1023800029F48091B0008F7D8093B000892F90E078
:10239000880F991F84589F4FFC01A591B4918C918F
:1023A00020E030E0842311F021E030E0C9010895FD
:1023B0001F920F920FB60F9211242F933F934F93BA
:1023C0005F936F937F938F939F93AF93BF93EF939D
:1023D000FF934091C600E091B302F091B402CF01A7
:1023E000019660E870E00E9414179C018091B5028C
:1023F0009091B6022817390739F0ED5CFD4F408304
:102400003093B4022093B302FF91EF91BF91AF914B
:102410009F918F917F916F915F914F913F912F91FC
:102420000F900FBE0F901F9018955F926F927F9242
:102430008F929F92AF92BF92CF92DF92EF92FF92D4
:102440000F931F93CF93DF93EC013A014B0141347B
:1024500082E458078FE0680780E078070CF07FC0BF
:1024600060E874E88EE190E0A40193010E944917AE
:102470002150304040405040CA01B90122E030E0D4
:1024800040E050E00E94491759016A01A6019501F8
:10249000209530954095509594E0220F331F441FAE
:1024A000551F9A95D1F760E074E284EF90E00E94A6
:1024B0004917CA01B9012FEF30E040E050E00E9417
:1024C000F516A40193010E944917C90181509F4F3D
:1024D000181619061CF4522E5A9403C0552453940E
:1024E000521A60E079E08DE390E0A40193010E942C
:1024F00049172150304040405040CA01B90122E004
:1025000030E040E050E00E9449172095309540951A
:10251000509583E0220F331F441F551F8A95D1F732
:1025200060E074E284EF90E00E944917CA01B901AB
:102530002FEF30E040E050E00E94F516A401930137
:102540000E944917C90181509F4F181619061CF4A3
:10255000822F815002C081E0821B851500F5E8853D
:10256000F98581E090E00A8802C0880F991F0A94DB
:10257000E2F7808360E079E08DE390E0A4019301CD
:102580000E9449172150304040405040CA01B901D3
:1025900022E030E040E050E00E94491704C0E885A6
:1025A000F98510829501EC81FD813083EE81FF81F8
:1025B0002083EA85FB85208141E050E0CA010E843A
:1025C00002C0880F991F0A94E2F7282B2083EA851E
:1025D000FB852081CA010F8402C0880F991F0A94CD
:1025E000E2F7282B2083EA85FB858081088802C0DA
:1025F000440F551F0A94E2F7842B8083DF91CF911B
:102600001F910F91FF90EF90DF90CF90BF90AF9010
:102610009F908F907F906F905F900895FC01A085B0
:10262000B18521898C9190E0022E02C09595879505
:102630000A94E2F780FFF6CF0484F585E02D6083ED
:1026400008958DE591E09093B8028093B70283E3FB
:1026500092E09093BA028093B90285EC90E0909357
:10266000BC028093BB0284EC90E09093BE02809306
:10267000BD0280EC90E09093C0028093BF0281EC99
:1026800090E09093C2028093C10286EC90E0909318
:10269000C4028093C30284E08093C50283E08093E8
:1026A000C60287E08093C70285E08093C80281E07C
:1026B0008093C90208950F931F93CF93DF938C01EA
:1026C000EB0109C02196D801ED91FC910190F081B8
:1026D000E02DC801099568816623A1F7DF91CF91AC
:1026E0001F910F910895EF92FF920F931F93CF9335
:1026F000DF938C017B01EA010CC0D7016D917D0154
:10270000D801ED91FC910190F081E02DC80109956F
:102710002197209791F7DF91CF911F910F91FF9013
:10272000EF900895DC01ED91FC910280F381E02DA2
:10273000099508950F931F938C01DC01ED91FC9195
:102740000190F081E02D6DE00995D801ED91FC91AB
:102750000190F081E02DC8016AE009951F910F9169
:1027600008950F931F938C010E949213C8010E9439
:102770009A131F910F9108952F923F924F925F925B
:102780006F927F928F929F92AF92BF92CF92DF9281
:10279000EF92FF920F931F93DF93CF93CDB7DEB7E6
:1027A000A0970FB6F894DEBF0FBECDBF1C016A0123
:1027B0007B01411551056105710549F4DC01ED917D
:1027C000FC910190F081E02D60E3099554C08824CC
:1027D00099245401422E55246624772401E010E008
:1027E0000C0F1D1F080D191DC701B601A301920191
:1027F0000E942717F80160830894811C911CA11C7A
:10280000B11CC701B601A30192010E942717C9019B
:10281000DA016C017D01C114D104E104F104F1F687
:1028200081E0E82EF12CEC0EFD1EE80CF91C3E01B7
:102830000894611C711CD501C4010197A109B1095B
:102840006C01C818D90814C0F601EE0DFF1D608197
:102850006A3010F4605D01C0695CD101ED91FC91BA
:102860000190F081E02DC10109950894E108F1087B
:102870006E147F0449F7A0960FB6F894DEBF0FBE22
:10288000CDBFCF91DF911F910F91FF90EF90DF901F
:10289000CF90BF90AF909F908F907F906F905F9000
:1028A0004F903F902F900895EF92FF920F931F93B8
:1028B000CF93DF93EC017A018B0177FF0FC0E881A2
:1028C000F9810190F081E02D6DE209951095009558
:1028D000F094E094E11CF11C011D111DCE01B80122
:1028E000A7012AE00E94BC13DF91CF911F910F91A5
:1028F000FF90EF900895DC012115310541F4ED9131
:10290000FC910190F081E02D642F099508952A3003
:10291000310519F40E94541408950E94BC130895BF
:102920000F931F938C010E947B14C8010E949A137D
:102930001F910F9108952F923F924F925F926F9245
:102940007F928F929F92AF92BF92CF92DF92EF923F
:10295000FF920F931F93DF93CF93CDB7DEB73B0169
:102960004C0119012A016D897E898F89988D6A1918
:102970007B098C099D09621A730A840A950AA401CD
:1029800093010E94F516E218F30804091509A8013D
:1029900097010E9449172A0D3B1D4C1D5D1DB90171
:1029A000CA01CF91DF911F910F91FF90EF90DF90BF
:1029B000CF90BF90AF909F908F907F906F905F90DF
:1029C0004F903F902F900895EF92FF920F931F9397
:1029D0007B018C01611571058105910529F420E0C9
:1029E00030E040E050E00BC00E94E000A8019701F9
:1029F0000E944917AC01CB01DA019C01AD01B9017C
:102A0000CA011F910F91FF90EF9008955058BB2776
:102A1000AA270ED04DC13ED130F043D120F031F481
:102A20009F3F11F41EF433C10EF4E095E7FB29C17A
:102A3000E92F4FD180F3BA17620773078407950710
:102A400018F071F49EF567C10EF4E0950B2EBA2FC5
:102A5000A02D0B01B90190010C01CA01A0011124A4
:102A6000FF27591B99F0593F50F4503E68F11A1650
:102A7000F040A22F232F342F4427585FF3CF4695E1
:102A800037952795A795F0405395C9F77EF41F1603
:102A9000BA0B620B730B840BBAF09150A1F0FF0FCD
:102AA000BB1F661F771F881FC2F70EC0BA0F621FB9
:102AB000731F841F48F4879577956795B795F795A9
:102AC0009E3F08F0B3CF9395880F08F09927EE0F3B
:102AD0009795879508950CD0EBC0E3D040F0DAD0FD
:102AE00030F021F45F3F19F0CCC0511115C1CFC0B7
:102AF000F0D098F39923C9F35523B1F3951B550BE7
:102B0000BB27AA2762177307840738F09F5F5F4FC0
:102B1000220F331F441FAA1FA9F333D00E2E3AF001
:102B2000E0E830D091505040E695001CCAF729D01B
:102B3000FE2F27D0660F771F881FBB1F261737076A
:102B40004807AB07B0E809F0BB0B802DBF01FF279A
:102B500093585F4F2AF09E3F510568F092C0DCC049
:102B60005F3FECF3983EDCF3869577956795B795D4
:102B7000F7959F5FC9F7880F911D9695879597F9EF
:102B80000895E1E0660F771F881FBB1F6217730768
:102B90008407BA0720F0621B730B840BBA0BEE1F7D
:102BA00088F7E095089504D06894B111B5C00895F0
:102BB00098D088F09F5790F0B92F9927B751A0F07F
:102BC000D1F0660F771F881F991F1AF0BA95C9F7C1
:102BD00012C0B13081F09FD0B1E008959CC0672F42
:102BE000782F8827B85F39F0B93FCCF38695779571
:102BF0006795B395D9F73EF490958095709561955A
:102C00007F4F8F4F9F4F0895E89409C097FB3EF484
:102C100090958095709561957F4F8F4F9F4F992329
:102C2000A9F0F92F96E9BB279395F69587957795A7
:102C30006795B795F111F8CFFAF4BB0F11F460FF67
:102C40001BC06F5F7F4F8F4F9F4F16C0882311F0BF
:102C500096E911C0772321F09EE8872F762F05C0D3
:102C6000662371F096E8862F70E060E02AF09A956E
:102C7000660F771F881FDAF7880F9695879597F963
:102C8000089597F99F6780E870E060E008959FEFEE
:102C900080EC089500240A941616170618060906F3
:102CA000089500240A9412161306140605060895C2
:102CB000092E0394000C11F4882352F0BB0F40F44A
:102CC000BF2B11F460FF04C06F5F7F4F8F4F9F4F8A
:102CD000089557FD9058440F551F59F05F3F71F00C
:102CE0004795880F97FB991F61F09F3F79F0879573
:102CF0000895121613061406551FF2CF4695F1DFFC
:102D000008C0161617061806991FF1CF869571058B
:102D1000610508940895E894BB2766277727CB01BF
:102D200097F908950BD0C4CFB5DF28F0BADF18F0BB
:102D3000952309F0A6CFABCF1124EECFCADFA0F3C5
:102D4000959FD1F3950F50E0551F629FF001729F40
:102D5000BB27F00DB11D639FAA27F00DB11DAA1F5F
:102D6000649F6627B00DA11D661F829F2227B00DAC
:102D7000A11D621F739FB00DA11D621F839FA00D37
:102D8000611D221F749F3327A00D611D231F849F87
:102D9000600D211D822F762F6A2F11249F575040DE
:102DA0008AF0E1F088234AF0EE0FFF1FBB1F661F79
:102DB000771F881F91505040A9F79E3F510570F032
:102DC00060CFAACF5F3FECF3983EDCF38695779512
:102DD0006795B795F795E7959F5FC1F7FE2B880F2D
:102DE000911D9695879597F90895629FD001739FDD
:102DF000F001829FE00DF11D649FE00DF11D929F97
:102E0000F00D839FF00D749FF00D659FF00D9927D5
:102E1000729FB00DE11DF91F639FB00DE11DF91FF9
:102E2000BD01CF011124089597FB092E07260AD072
:102E300077FD04D049D006D000201AF47095619532
:102E40007F4F0895F6F7909581959F4F0895A1E2E1
:102E50001A2EAA1BBB1BFD010DC0AA1FBB1FEE1F14
:102E6000FF1FA217B307E407F50720F0A21BB30B5F
:102E7000E40BF50B661F771F881F991F1A9469F7DB
:102E800060957095809590959B01AC01BD01CF0137
:102E9000089597FB092E05260ED057FD04D0D7DFE5
:102EA0000AD0001C38F450954095309521953F4F3D
:102EB0004F4F5F4F0895F6F7909580957095619507
:102EC0007F4F8F4F9F4F0895AA1BBB1B51E107C037
:102ED000AA1FBB1FA617B70710F0A61BB70B881FAA
:102EE000991F5A95A9F780959095BC01CD01089539
:102EF000EE0FFF1F0590F491E02D09942F923F9261
:102F00004F925F926F927F928F929F92AF92BF92F9
:102F1000CF92DF92EF92FF920F931F93CF93DF93A5
:102F2000CDB7DEB7CA1BDB0B0FB6F894DEBF0FBE02
:102F3000CDBF09942A88398848885F846E847D844F
:102F40008C849B84AA84B984C884DF80EE80FD8051
:102F50000C811B81AA81B981CE0FD11D0FB6F894C7
:0E2F6000DEBF0FBECDBFED010895F894FFCF88
:102F6E002D2D496E666F2D2D006D6F64653A200014
:102F7E00636F6C6F7256616C3A2000706F7765727A
:102F8E0056616C3A2000696E74657276616C3A20F7
:102F9E0000523A200020473A200020423A200001F9
:102FAE000000000A000900060002000100FF00C830
:102FBE0000000032000000FF00000000000E135B56
:042FCE001373130066
:00000001FF
