:100000000C9463000C948B000C948B000C948B006C
:100010000C948B000C948B000C948B000C948B0034
:100020000C948B000C944D050C948B000C948B005D
:100030000C948B000C948B000C948B000C948B0014
:100040000C949D0F0C948B000C9442110C948B001B
:100050000C948B000C948B000C948B000C948B00F4
:100060000C948B000C948B000000000024002700EF
:100070002A0000000000250028002B0000000000DE
:1000800023002600290004040404040404040202DA
:100090000202020203030303030301020408102007
:1000A0004080010204081020010204081020000012
:1000B0000007000201000003040600000000000029
:1000C000000013068B1211241FBECFEFD8E0DEBF55
:1000D000CDBF11E0A0E0B1E0E2E4FEE202C0059095
:1000E0000D92A836B107D9F712E0A8E6B1E001C039
:1000F0001D92AE3CB107E1F710E0C6ECD0E004C0C1
:100100002297FE010E94E416C23CD107C9F70E9463
:10011000960F0C941F170C940000A0E0B0E0E3E9E8
:10012000F0E00C94F016EC01A880B980CA80DB8066
:10013000A114B104C104D10441F484E2A82E89EDD4
:10014000B82E8BE5C82E87E0D82EC601B5012DE16B
:1001500033EF41E050E00E94B31627EA31E440E07B
:1001600050E00E945F167B018C01C601B5012DE1B4
:1001700033EF41E050E00E94B316CA01B9012CEE02
:1001800034EF4FEF5FEF0E945F166E0D7F1D801FF3
:10019000911F97FF04C06150704080409048688371
:1001A00079838A839B839B01AC015F77B901CA0184
:1001B000CDB7DEB7EAE00C940C170E948D000895CD
:1001C0008FE391E00E948D00089560933F0170934A
:1001D000400180934101909342010895F999FECF27
:1001E00072BD61BDF89A80B50895F999FECF1FBA26
:1001F00072BD61BD40BD0FB6F894FA9AF99A0FBE70
:1002000008956093690110926B01089582E08093D4
:100210006A01109206020895CF93DF93EB01E885FF
:10022000F985828193818838910508F46DC08281B7
:100230009381853E910508F067C06FC084819581E8
:10024000809708F46FC084819581C79708F06AC0D1
:1002500086819781099708F465C0868197814297C6
:1002600008F060C01F821E828FEF9FEFAFEFBFEFDD
:100270008A839B83AC83BD833EC084819581823415
:10028000910508F441C0848195818037910508F07B
:100290003BC0369620E030E040E050E063E070E0A4
:1002A00080819181099780F180819181429760F5E9
:1002B0003FC082819381879708F041C0220F331F8E
:1002C000441F551F216008C08D919C910D97E0F44B
:1002D000220F331F441F551F34966134710519F0E6
:1002E0006E5F7F4FDDCF80E290E09F838E832A8315
:1002F0003B834C835D8381E090E09983888321E098
:1003000030E040E050E004C020E030E040E050E069
:10031000B901CA01DF91CF9108958091060284301E
:1003200009F48CCF80910602843408F0A6CFECCF7C
:10033000DF01129682819381469708F0BACF8D91A2
:100340009C911197069700F3BFCF0F931F93CF9304
:10035000DF938B01809106028A3108F460C0DB01D3
:100360001896ED91FC91199782819381859708F4F5
:1003700056C0828193818034910508F050C0DF011E
:10038000169640E050E060E070E0C2E0D0E022C0AD
:10039000FD01329780819181079728F180819181B9
:1003A0000E9708F547C08D919C911197829708F0A0
:1003B00047C0440F551F661F771F416009C08D91CC
:1003C0009C911197439758F5440F551F661F771F4F
:1003D00022961496809106029E012F5F3F4F90E077
:1003E00028173907ACF2CE01019795958795F8014A
:1003F000978386830C971CF41782168210C0D8014D
:1004000012964D935D936D937C93159782E090E0E7
:100410008D939C9321E030E040E050E004C020E068
:1004200030E040E050E0B901CA01DF91CF911F9167
:100430000F9108958D919C911197439708F0B3CF38
:100440008D919C9111970A9750F3B9CF4F925F927B
:100450006F927F928F929F92AF92BF92CF92DF92D4
:10046000EF92FF920F931F93CF93DF93FB012A012B
:1004700039015801DA012D913C9182859385281725
:10048000390724F001E0802E912CDAC0C901880FD1
:10049000991F0084F185E02DE80FF91FC080D180FD
:1004A00020FD06C0CCE9DFEFB1E08B2E912C04C01B
:1004B000C4E6D0E088249924BE016A0D7B1D8827FC
:1004C00077FD8095982F0E9470157B018C0120E0AC
:1004D00030E040E45FE30E94FC1520E030E048E4B7
:1004E00052E40E94D5140E943D15C616D706E4F0CA
:1004F000C801B70120E030E040EA5FE30E94FC154C
:1005000020E030E048E452E40E94D51420E030E0DE
:1005100040E85FE30E9471140E943D156C157D0553
:100520001CF021E030E076C0B501660F771F6C0F3C
:100530007D1F882777FD8095982F0E9470157B017D
:100540008C0120E030E040E45FE30E94FC1520E0F5
:1005500030E048E452E40E94D5140E943D15C616CE
:10056000D706E4F0C801B70120E030E040EA5FE3DD
:100570000E94FC1520E030E048E452E40E94D514CB
:1005800020E030E040E85FE30E9471140E943D15D6
:100590006C157D051CF022E030E03CC0C501880FE1
:1005A000991F8A0D9B1DC80FD91FBE01882777FD93
:1005B0008095982F0E9470157B018C0120E030E01F
:1005C00040E45FE30E94FC1520E030E048E452E4A0
:1005D0000E94D5140E943D15C616D70674F1C801B5
:1005E000B70120E030E040EA5FE30E94FC1520E024
:1005F00030E048E452E40E94D51420E030E040E8C6
:100600005FE30E9471140E943D156C157D05ACF0EE
:1006100023E030E0F3018081918101969183808312
:10062000821793076CF011821082D2018D919C91F8
:10063000119701968D939C9303C088248A94982CDB
:10064000C401DF91CF911F910F91FF90EF90DF9048
:10065000CF90BF90AF909F908F907F906F905F9062
:100660004F9008952F923F924F925F926F927F9298
:100670008F929F92AF92BF92CF92DF92EF92FF92B2
:100680000F931F93DF93CF9300D000D000D0CDB74E
:10069000DEB71C015B01809106028D3008F47EC03C
:1006A00081E090E09A8389831C821B8223E0822E62
:1006B000912C8C0E9D1EC1012E010894411C511CD1
:1006C000A201940109E713E00E942602892B09F098
:1006D00065C0C101B501A20194010E9426020197E3
:1006E00009F05CC0C101B501A20194010E9426027B
:1006F000892B09F053C0CC24DD24760166247724AD
:10070000C4018D829E832FC0C101B501A2012D813C
:100710003E8109E713E00E9426024C01C101B501A8
:10072000A2012D813E810E94260221E082169104C1
:1007300079F4892B99F5CC0CDD1CEE1CFF1C81E0B3
:1007400090E0A0E0B0E0C82AD92AEA2AFB2A08C033
:10075000892821F5019711F5CC0CDD1CEE1CFF1C3E
:100760000894611C711C8091060290E029813A81F5
:10077000281739074CF2D50117967C926E9216977E
:10078000F501C282D382E482F58283E090E0918316
:10079000808321E030E040E050E004C020E030E021
:1007A00040E050E0B901CA0126960FB6F894DEBFCA
:1007B0000FBECDBFCF91DF911F910F91FF90EF90B2
:1007C000DF90CF90BF90AF909F908F907F906F9071
:1007D0005F904F903F902F9008952F923F924F92AD
:1007E0005F926F927F928F929F92AF92BF92CF92C1
:1007F000DF92EF92FF920F931F93DF93CF93CDB7CA
:10080000DEB728970FB6F894DEBF0FBECDBF1C0130
:100810004B01DB011A968D919C911B9718161906B6
:100820000CF0A4C081E090E09A8389831896ED9142
:10083000FC91199782819381899708F497C08281EE
:1008400093818734910508F091C0AFC08481958170
:10085000459708F08BC0B2C0C101B401A301950156
:100860000CEB11E00E942602019709F07FC0CC2416
:10087000DD24760144245524C501AD829E83C30145
:100880006F82988756C0C101B4014F8158852D8170
:100890003E810CEB11E00E9426023C01B3E04B16B6
:1008A000510461F4C101B4014F8158852D813E810D
:1008B0000E9426026816790609F058C0C101B401E9
:1008C0004F8158852D813E810CEB11E00E9426025C
:1008D0005C01E3E04E16510459F4C101B4014F81AB
:1008E00058852D813E810E942602A816B906F1F591
:1008F0006114710489F4F1E0AF16B104B9F5CC0CC0
:10090000DD1CEE1CFF1C81E090E0A0E0B0E0C82AF6
:10091000D92AEA2AFB2A0AC091E06916710431F546
:10092000AB2821F5CC0CDD1CEE1CFF1C0894411CEF
:10093000511C29813A81D4011A968D919C911B9763
:10094000281739070CF49FCF17965C924E92169792
:10095000F401C282D382E482F58284E090E0918344
:10096000808321E030E040E050E004C020E030E04F
:1009700040E050E0B901CA0128960FB6F894DEBFF6
:100980000FBECDBFCF91DF911F910F91FF90EF90E0
:10099000DF90CF90BF90AF909F908F907F906F909F
:1009A0005F904F903F902F90089582E090E09A835F
:1009B0008983848195810B97C8F248CF83E090E0CA
:1009C0009A8389831C821B8233E0A32EB12CAC0E48
:1009D000BD1EC101B4013E010894611C711CA3013C
:1009E00095010CEB11E00E942602892B09F0BECF85
:1009F00033CF0F931F93CF93DF938C01EB018EE6E0
:100A000091E099878887809106028A871B8680916A
:100A10006A018530B9F5C8010E940C0161157105A4
:100A20008105910591F5C801BE010E94A5016115DE
:100A300071058105910549F5C801BE010E94320387
:100A4000611571058105910501F5C801BE010E947E
:100A5000ED036115710581059105B9F48A859B85C2
:100A600006975CF08FEF9FEF998388831F821E8229
:100A70001A821B821C821D8208C082E080936A0158
:100A80001092060220E030E002C021E030E0C9010F
:100A9000DF91CF911F910F9108951F920F920FB682
:100AA0000F9211242F933F934F935F936F937F93F4
:100AB0008F939F93AF93BF93EF93FF9381EA8093BC
:100AC000B200809169010E94F310482F80916C015F
:100AD00090916D01019690936D0180936C018091CE
:100AE00006028C3418F085E080936A0180916A01D7
:100AF0008330D1F0843020F4823009F059C006C030
:100B0000843071F1853009F053C04CC0442309F0A2
:100B10004FC080916C0190916D018436910508F46D
:100B200043C0109206021EC0413009F041C08091BE
:100B30000602E82FF0E020916C0130916D01EE0F7C
:100B4000FF1FE759FE4F368325838F5F8093060290
:100B500010926D0110926C0184E080936A0128C0AC
:100B60004423B9F480910602E82FF0E020916C0153
:100B700030916D01EE0FFF1FE759FE4F368325833D
:100B80008F5F8093060210926D0110926C0183E0DA
:100B9000E4CF80916C0190916D018536910540F014
:100BA00085E0DBCF442321F410926D0110926C019B
:100BB00080916B01882329F0442311F42D9A01C000
:100BC0002D98FF91EF91BF91AF919F918F917F9160
:100BD0006F915F914F913F912F910F900FBE0F90AA
:100BE0001F9018951092B000E1EBF0E080818B7FB0
:100BF000808380818260808380818E7F8083E0E734
:100C0000F0E080818160808381EA8093B2007894F3
:100C100082E080936A01109206028091690160E08F
:100C20000E94861008956091490170914A018BE0FD
:100C300092E00E9401016FEF70E080E090E00E947E
:100C40004E1460931F026FEF70E080E090E00E940E
:100C50004E14609320026FEF70E080E090E00E94FD
:100C60004E14609321020895CF92DF92EF92FF928B
:100C70000F931F939C016B0188E6E82E81E0F82E0C
:100C8000C701B9010E94EE00082FC701B6010E94FA
:100C9000EE009FEF099F80011124080F111DC8016C
:100CA0001F910F91FF90EF90DF90CF900895CF921A
:100CB000DF92EF92FF920F931F938C019B016A01C9
:100CC00098E6E92E91E0F92EC8016FEF70E00E94DE
:100CD0007E16462FC701B9010E94F500C8016FEFCB
:100CE00070E00E947E16482FC701B6010E94F500F1
:100CF0001F910F91FF90EF90DF90CF900895CF93C9
:100D0000DF93EC01409118025091190241155105F1
:100D100051F4009751F080911A0290911B02909328
:100D20005201809351012097E1F450935001409378
:100D30004F01809151019091520190931B02809339
:100D40001A0288E691E067E070E00E94F500809169
:100D50001A0290911B0268E070E049E050E00E94A6
:100D60005706D0931902C0931802DF91CF910895CE
:100D70009C018091180290911902892B19F4C901E4
:100D80000E947F0608952F923F924F925F926F923A
:100D90007F928F929F92AF92BF92CF92DF92EF920B
:100DA000FF920F931F93DF93CF93CDB7DEB72E97AC
:100DB0000FB6F894DEBF0FBECDBF9E878D87DC01D6
:100DC0008D919C91119712962D913C9113971496A9
:100DD0004D915C91159760915101709152017C0188
:100DE0000027F7FC0095102FC901AA2797FDA095B1
:100DF000BA2F8D839E83AF83B887CA01AA2797FD38
:100E0000A095BA2F89879A87AB87BC876F3F7105FA
:100E100011F00CF048C000D000D0CB01AA2797FDFC
:100E2000A095BA2FEDB7FEB781839283A383B483D5
:100E3000C801B70120E030E040E050E0AFEFEA2E1B
:100E4000F12C012D112DAA24BB2465010E9405144B
:100E50007C836B838091510190915201AA2797FD69
:100E6000A095BA2FEDB7FEB781839283A383B48395
:100E70006D817E818F81988520E030E040E050E0F8
:100E80000E9405147A8369838091510190915201E7
:100E9000AA2797FDA095BA2FEDB7FEB7818392835D
:100EA000A383B48341C06F5F70401B01442437FCAF
:100EB0004094542C00D000D0FFEF6F2E712C812C69
:100EC000912CADB7BEB711966D927D928D929C928A
:100ED0001497C801B70120E030E040E050E0EFEFA8
:100EE000EE2EF12C012D112D620151010E940514ED
:100EF0007C836B83EDB7FEB76182728283829482BA
:100F00006D817E818F81988520E030E040E050E067
:100F10000E9405147A836983ADB7BEB711966D92AE
:100F20007D928D929C92149769857A858B859C859C
:100F300020E030E040E050E00E9405140F900F9058
:100F40000F900F908B819C81ED85FE85918380832E
:100F5000A981BA81B383A283758364832E960FB669
:100F6000F894DEBF0FBECDBFCF91DF911F910F91DF
:100F7000FF90EF90DF90CF90BF90AF909F908F90B9
:100F80007F906F905F904F903F902F900895DF93E8
:100F9000CF9300D000D000D0CDB7DEB7FE013196A0
:100FA00086E0DF011D928A95E9F780911C02898312
:100FB0001A8280911D028B831C8280911E028D8378
:100FC0001E82CF010E94C306898180931C028B81FF
:100FD00080931D028D8180931E0226960FB6F89491
:100FE000DEBF0FBECDBFCF91DF910895AF92BF920C
:100FF000CF92DF92EF92FF920F931F93CF93DF93E5
:10100000EC0120912202309123022A3A310520F589
:1010100000D000D0B901882777FD8095982F2FEF59
:1010200030E040E050E0EDB7FEB7218332834383E8
:10103000548320E030E040E050E0AAEAEA2EF12CB0
:10104000012D112DAA24BB2465010E940514FB016A
:101050000F900F900F900F90209122023091230259
:10106000C9018A5A90408B3A910518F04FEF50E031
:1010700026C000D000D0B901882777FD8095982F31
:101080002FEF30E040E050E0EDB7FEB72183328330
:101090004383548325E531E040E050E0FAEAEF2E47
:1010A000F12C012D112DAA24BB2465010E940514E9
:1010B000AB01EFEFF0E00F900F900F900F902091A9
:1010C000220230912302C901855591408A3A910547
:1010D00018F060E070E028C000D000D0B901882787
:1010E00077FD8095982F2FEF30E040E050E0EDB78E
:1010F000FEB7218332834383548325E531E040E00A
:1011000050E0EFEFEE2EE1E0FE2E012D112DAA248E
:10111000BB2465010E94051440E050E0EFEFF0E0D1
:101120000F900F900F900F90209122023091230288
:10113000C9018F5F91408B3A910548F500D000D0EE
:10114000B901882777FD8095982F2FEF30E040E098
:1011500050E0EDB7FEB721833283438354832AEAFC
:1011600032E040E050E00FEFE02E01E0F02E012DE4
:10117000112DAA24BB2465010E940514FB0140E047
:1011800050E06FEF70E00F900F900F900F90209154
:10119000220230912302C9018A5A92408A3A91056B
:1011A00048F500D000D0B901882777FD8095982FA9
:1011B0002FEF30E040E050E0EDB7FEB721833283FF
:1011C000438354832AEA32E040E050E014E5E12E04
:1011D00013E0F12E012D112DAA24BB2465010E94DC
:1011E0000514AB01E0E0F0E06FEF70E00F900F90BE
:1011F0000F900F902091220230912302C901845553
:1012000093408C3A910540F500D000D0B901882771
:1012100077FD8095982F2FEF30E040E050E0EDB75C
:10122000FEB721833283438354832FEF33E040E0C2
:1012300050E0B4E5EB2EB3E0FB2E012D112DAA24D6
:10124000BB2465010E9405144FEF50E0E0E0F0E0A0
:101250000F900F900F900F9059834883FB83EA8380
:101260007D836C83DF91CF911F910F91FF90EF9061
:10127000DF90CF90BF90AF900895DF93CF9300D0D1
:1012800000D000D0CDB7DEB7CE0101960E94F607A0
:10129000898180931C028B8180931D028D818093B4
:1012A0001E0226960FB6F894DEBF0FBECDBFCF91BB
:1012B000DF91089560911C028091430170E00E94CB
:1012C0002D1060911D028091450170E00E942D104B
:1012D00060911E028091470170E00E942D100895D8
:1012E0000F931F93DF93CF9300D000D000D0CDB7E2
:1012F000DEB78E010F5F1F4FC8010E94F607C801BD
:101300000E94C306898180931F028B8180932002F3
:101310008D81809321020E94E50F20912802309157
:10132000290240912A0250912B02621B730B840BFD
:10133000950B6230710581059105E0F10E94E50F82
:10134000609328027093290280932A0290932B02C3
:1013500080911C0290911F02981718F4815080937D
:101360001C0280911C02891718F48F5F80931C0265
:1013700080911D0290912002981718F4815080935B
:101380001D0280911D02891718F48F5F80931D0242
:1013900080911E0290912102981718F48150809339
:1013A0001E0280911E02891718F48F5F80931E021F
:1013B0000E945A0926960FB6F894DEBF0FBECDBF25
:1013C000CF91DF911F910F910895AF92BF92CF926D
:1013D000DF92EF92FF920F931F938BE092E06CE00D
:1013E00072E00E94F904892B09F47AC38BE092E041
:1013F0000E94060180910E0290910F02A0911002AE
:10140000B09111028F3F2FEF92072FEFA2072FEF1E
:10141000B20799F090930A02809309029093080210
:10142000809307020E94E50F6093240270932502C7
:10143000809326029093270228C00E94E50F2091F6
:101440002402309125024091260250912702621B0E
:10145000730B840B950B20915301309154014091F3
:10146000550150915601261737074807590748F488
:10147000809107029091080290930A0280930902DA
:1014800004C010920A021092090280910902909100
:101490000A0248EF8730940709F485C268EF883064
:1014A00096070CF048C0E0EC8F339E0709F4DFC0CC
:1014B000F0EC80349F07ECF420EA8F35920709F4B2
:1014C000E4C040EA8036940754F460E88F3796070A
:1014D00009F4BDC08F56904909F0DCC2F2C0F8EAA9
:1014E00087359F0709F4D1C18F54904B09F0D2C2C0
:1014F00012C248ED8732940709F430C268ED883291
:10150000960754F4E8EC87339E0709F471C28F52B2
:10151000904D09F0BFC280C128EE8731920709F4CF
:10152000DEC040EF8F30940709F412C28F51904E05
:1015300009F0B0C2B8C0E8E4873B9E0709F469C06F
:10154000F8E4883B9F0704F520E18F3E920709F4F9
:10155000B1C040E1803F94074CF48F3F910509F4FE
:10156000B7C0875F984009F095C2BEC0E8E3873CEA
:101570009E0761F1F0E48F3B9F0709F471C08F5D16
:10158000904209F087C27AC040E68F39940709F487
:1015900083C060E6803A960754F4E0E58F3A9E07F0
:1015A00009F4D3C1875A984509F074C228C220E7CC
:1015B0008F38920709F4CFC148E78738940709F4B8
:1015C00043C28759984609F065C298C180910E02BE
:1015D00090910F02A0911002B09111028F5F9F4F66
:1015E000AF4FBF4F09F4AEC180911802909119021C
:1015F000039721F481E090E00E947F066FEF73E093
:1016000080E090E00E944E147093230260932202C7
:1016100041C280910E0290910F02A0911002B091F0
:1016200011028F5F9F4FAF4FBF4F09F433C28091BC
:10163000180290911902892B29F480914F01909101
:10164000500102C080E090E00E947F0623C281E04A
:1016500090E00E94B80610922302109222021AC251
:1016600081E090E00E94B80688E290E00FC281E03D
:1016700090E00E94B80686E990E008C281E090E020
:101680000E94B8068AEF90E001C281E090E00E94DB
:10169000B80685E591E0FAC181E090E00E94B806C5
:1016A00080E991E0F3C181E090E00E94B80686E70E
:1016B00092E0ECC181E090E00E94B8068AEA92E0F4
:1016C000E5C181E090E00E94B80689EE92E0DEC1BB
:1016D00081E090E00E94B8068FEC93E0D7C181E0F2
:1016E00090E00E94B8065CC180910E0290910F02BA
:1016F000A0911002B09111028F5F9F4FAF4FBF4F6B
:1017000009F4C8C18BEB92E060E071E00E941B130A
:101710008BEB92E069E071E00E94FC1240911802AC
:1017200050911902662757FD6095762F8BEB92E05A
:101730002AE030E00E94FA138BEB92E060E171E066
:101740000E94FC124091220250912302662757FD0D
:101750006095762F8BEB92E02AE030E00E94FA133E
:101760008BEB92E06BE171E00E94FC124091510121
:1017700050915201662757FD6095762F8BEB92E0D2
:101780002AE030E00E94FA138BEB92E066E271E00F
:101790000E94FC12409157015091580160915901EB
:1017A00070915A018BEB92E02AE030E00E94FA132C
:1017B0008BEB92E061E371E00E94FC1240911C020D
:1017C00050E060E070E08BEB92E02AE030E00E94B5
:1017D000E5138BEB92E065E371E00E94FC1240910F
:1017E0001D0250E060E070E08BEB92E02AE030E018
:1017F0000E94E5138BEB92E06AE371E00E94FC1219
:1018000040911E0250E060E070E08BEB92E02AE035
:1018100030E00E94FA133EC180910E0290910F02B7
:10182000A0911002B09111022091570130915801FE
:101830004091590150915A018F5F9F4FAF4FBF4F59
:1018400029F02F5F3F4F4F4F5F4F04C02B5F3F4F3B
:101850004F4F5F4F209357013093580140935901E8
:1018600050935A018091570190915801A0915901CC
:10187000B0915A0180509041A040B0400CF40AC190
:101880008FEF9FE0A0E0B0E03DC080910E0290910C
:101890000F02A0911002B0911102209157013091D6
:1018A00058014091590150915A018F5F9F4FAF4F9E
:1018B000BF4F29F0215030404040504004C02550D7
:1018C000304040405040209357013093580140939E
:1018D000590150935A018091570190915801A0915C
:1018E0005901B0915A01B7FFD5C01092570110921B
:1018F00058011092590110925A01CCC082E390E035
:10190000A0E0B0E08093570190935801A093590153
:10191000B0935A01BFC080910E0290910F02A09126
:101920001002B09111028F5F9F4FAF4FBF4F09F46C
:10193000B1C080911802909119028130910541F057
:10194000029719F483E090E07FCE81E090E07CCEB6
:1019500082E090E079CE8AE090E076CE80910E022F
:1019600090910F02A0911002B091110220915101AB
:10197000309152018F5F9F4FAF4FBF4F19F02F5FD4
:101980003F4F02C0265F3F4F3093520120935101D9
:1019900080915101909152018F5F91400CF47AC077
:1019A0008EEF91E027C080910E0290910F02A091DE
:1019B0001002B091110220915101309152018F5FBC
:1019C0009F4FAF4FBF4F19F02150304002C02A50F7
:1019D00030403093520120935101809151019091F8
:1019E000520197FF57C0109252011092510152C0FC
:1019F0008FEF90E090935201809351014BC0809102
:101A00000E0290910F02A0911002B091110220914C
:101A10002202309123028F5F9F4FAF4FBF4F19F0CB
:101A20002F5F3F4F02C0265F3F4F3093230220932A
:101A30002202809122029091230224E080309207BA
:101A40004CF18F5F934022C080910E0290910F0263
:101A5000A0911002B0911102209122023091230234
:101A60008F5F9F4FAF4FBF4F19F02150304002C0E2
:101A70002A50304030932302209322028091220288
:101A80009091230297FF06C081509C4F90932302B0
:101A90008093220288E691E060E070E040911802B5
:101AA0000E94F500809122029091230261E070E093
:101AB00042E050E00E9457068091510190915201FE
:101AC00063E070E044E050E00E94570680915701C7
:101AD0009091580165E070E046E050E00E945706A2
:101AE0008091180290911902892B31F410925201C1
:101AF000109251010E947009809118029091190270
:101B0000019711F40E9470098091180290911902B6
:101B1000029709F0BEC00E94E50F20912802309183
:101B2000290240912A0250912B02621B730B840BF5
:101B3000950B2091570130915801409159015091D6
:101B40005A01261737074807590708F0A2C00E9414
:101B5000E50F609328027093290280932A029093E4
:101B60002B020E943D092091510130915201809138
:101B70005B0190915C012817390724F430935C01D4
:101B800020935B0180912C0290912D0240915B018A
:101B900050915C01892B79F4CA01019790935C0103
:101BA00080935B01892BA1F481E090E090932D025A
:101BB00080932C020DC0CA01019690935C01809322
:101BC0005B018217930724F010922D0210922C02D1
:101BD00000D000D060911C0270E080E090E0209185
:101BE0005B0130915C01442737FD4095542FEDB7E0
:101BF000FEB7218332834383548320E030E040E00A
:101C000050E0BFEFEB2EF12C012D112DAA24BB24A7
:101C100065010E94051460931C0260911E0270E031
:101C200080E090E020915B0130915C01442737FD1A
:101C30004095542FEDB7FEB72183328343835483FD
:101C400020E030E040E050E00E94051460931E0266
:101C500060911D0270E080E090E020915B01309186
:101C60005C01442737FD4095542FEDB7FEB7218323
:101C700032834383548320E030E040E050E00E9410
:101C8000051460931D020F900F900F900F900E940B
:101C90005A098091180290911902039709F088C09F
:101CA0000E94E50F209128023091290240912A02DA
:101CB00050912B02621B730B840B950B20915701E3
:101CC000309158014091590150915A012617370718
:101CD0004807590708F06CC00E94E50F609328027E
:101CE0007093290280932A0290932B0290911C02F8
:101CF00080911F02891718F4915090931C029091C3
:101D00001C0280911F02981718F49F5F90931C0289
:101D100090911D0280912002891718F491509093A0
:101D20001D0290911D0280912002981718F49F5F68
:101D300090931D0290911E0280912102891718F440
:101D4000915090931E0290911E028091210298174B
:101D500018F49F5F90931E0290911C0280911F02C5
:101D6000981721F590911D02809120029817F1F4A7
:101D700090911E02809121029817C1F46EEF70E0DD
:101D800080E090E00E944E1460931F026EEF70E0BE
:101D900080E090E00E944E14609320026EEF70E0AD
:101DA00080E090E00E944E14609321020E945A0944
:101DB00080911802909119020A9709F03CC00E9484
:101DC000E50F209128023091290240912A0250917A
:101DD0002B02621B730B840B950B61547F41804077
:101DE000904048F10E94E50F609328027093290209
:101DF00080932A0290932B0280915101909152017D
:101E0000019790935201809351010E943D090E94D5
:101E1000C7070E945A098091510190915201892B64
:101E200051F48FEF90E0909352018093510180E044
:101E300090E00E947F061F910F91FF90EF90DF903E
:101E4000CF90BF90AF9008958091430161E00E94D0
:101E500086108091450161E00E94861080914701C3
:101E600061E00E94861080914B0160E00E94861024
:101E700080914D0160E00E94861088E691E060E06C
:101E800070E00E94EE00809318021092190281E027
:101E900090E062E070E00E94340690932302809309
:101EA000220283E090E064E070E00E9434069093A8
:101EB000520180935101892B31F48FEF90E0909380
:101EC00052018093510185E090E066E070E00E944D
:101ED0003406AA2797FDA095BA2F809357019093B7
:101EE0005801A0935901B0935A0188E691E067E048
:101EF00070E00E94EE0080934F011092500188E044
:101F000090E069E070E00E94340690931B02809399
:101F10001A028BE092E00E94F2058BEB92E040E81F
:101F200055E260E070E00E947F1108950E94F30F77
:101F30000E94240F0E94E509FDCF1F920F920FB659
:101F40000F9211242F933F938F939F93AF93BF933F
:101F50008091320290913302A0913402B091350207
:101F6000309136020196A11DB11D232F2D5F2D3713
:101F700020F02D570196A11DB11D209336028093AC
:101F8000320290933302A0933402B09335028091D1
:101F90002E0290912F02A0913002B0913102019651
:101FA000A11DB11D80932E0290932F02A0933002A9
:101FB000B0933102BF91AF919F918F913F912F913B
:101FC0000F900FBE0F901F9018958FB7F894209127
:101FD00032023091330240913402509135028FBF6A
:101FE000B901CA010895789484B5826084BD84B52E
:101FF000816084BD85B5826085BD85B5816085BD04
:10200000EEE6F0E0808181608083E1E8F0E08081AD
:1020100082608083808181608083E0E8F0E080815D
:1020200081608083E1EBF0E0808184608083E0EB7D
:10203000F0E0808181608083EAE7F0E08081846065
:1020400080838081826080838081816080838081C1
:10205000806880831092C10008951F93CF93DF930F
:10206000182FEB0161E00E948610E12FF0E0E255AD
:10207000FF4F8491833051F4809180008068809379
:102080008000D0938900C09388003CC0843051F414
:1020900080918000806280938000D0938B00C093F9
:1020A0008A0030C0813039F4209729F184B58068E6
:1020B00084BDC7BD27C0823039F42097E1F084B5D4
:1020C000806284BDC8BD1EC0863041F48091B000DE
:1020D00080688093B000C093B30014C0873041F48F
:1020E0008091B00080628093B000C093B4000AC0B9
:1020F000C038D1051CF4812F60E002C0812F61E05F
:102100000E94A610DF91CF911F910895282F30E0F3
:10211000C90186569F4FFC0194912A573F4FF90100
:102120008491882391F0E82FF0E0EE0FFF1FE8592B
:10213000FF4FA591B491662329F48C919095892342
:102140008C9308958C91892B8C930895482F50E09F
:10215000CA0182559F4FFC012491CA0186569F4FA8
:10216000FC0194914A575F4FFA0134913323D1F126
:10217000222331F1233021F4809180008F7705C034
:10218000243031F4809180008F7D8093800018C0CE
:10219000213019F484B58F7704C0223021F484B53E
:1021A0008F7D84BD0DC0263021F48091B0008F77E3
:1021B00005C0273029F48091B0008F7D8093B00056
:1021C000E32FF0E0EE0FFF1FEE58FF4FA591B49103
:1021D000662329F48C91909589238C9308958C9192
:1021E000892B8C930895682F70E0CB0182559F4F07
:1021F000FC012491CB0186569F4FFC0144916A5704
:102200007F4FFB019491992319F420E030E038C00E
:10221000222331F1233021F4809180008F7705C093
:10222000243031F4809180008F7D8093800018C02D
:10223000213019F484B58F7704C0223021F484B59D
:102240008F7D84BD0DC0263021F48091B0008F7742
:1022500005C0273029F48091B0008F7D8093B000B5
:10226000892F90E0880F991F84589F4FFC01A591FA
:10227000B4918C9120E030E0842311F021E030E033
:10228000C90108951F920F920FB60F9211242F9338
:102290003F934F935F936F937F938F939F93AF93EE
:1022A000BF93EF93FF934091C600E091B702F09186
:1022B000B802CF01019660E870E00E947E169C0192
:1022C0008091B9029091BA022817390739F0E95C78
:1022D000FD4F40833093B8022093B702FF91EF91F6
:1022E000BF91AF919F918F917F916F915F914F912E
:1022F0003F912F910F900FBE0F901F9018955F92F6
:102300006F927F928F929F92AF92BF92CF92DF9205
:10231000EF92FF920F931F93CF93DF93EC013A015B
:102320004B01413482E458078FE0680780E078076A
:102330000CF07FC060E874E88EE190E0A4019301A6
:102340000E94B3162150304040405040CA01B901AC
:1023500022E030E040E050E00E94B31659016A01EB
:10236000A6019501209530954095509594E0220F57
:10237000331F441F551F9A95D1F760E074E284EF34
:1023800090E00E94B316CA01B9012FEF30E040E09F
:1023900050E00E945F16A40193010E94B316C90188
:1023A00081509F4F181619061CF4522E5A9403C0E0
:1023B00055245394521A60E079E08DE390E0A40133
:1023C00093010E94B3162150304040405040CA0152
:1023D000B90122E030E040E050E00E94B3162095C1
:1023E00030954095509583E0220F331F441F551FB1
:1023F0008A95D1F760E074E284EF90E00E94B31612
:10240000CA01B9012FEF30E040E050E00E945F16B2
:10241000A40193010E94B316C90181509F4F181661
:1024200019061CF4822F815002C081E0821B8515A1
:1024300000F5E885F98581E090E00A8802C0880F00
:10244000991F0A94E2F7808360E079E08DE390E0E1
:10245000A40193010E94B3162150304040405040E7
:10246000CA01B90122E030E040E050E00E94B3161A
:1024700004C0E885F98510829501EC81FD813083E7
:10248000EE81FF812083EA85FB85208141E050E0D9
:10249000CA010E8402C0880F991F0A94E2F7282B04
:1024A0002083EA85FB852081CA010F8402C0880F42
:1024B000991F0A94E2F7282B2083EA85FB85808107
:1024C000088802C0440F551F0A94E2F7842B8083CA
:1024D000DF91CF911F910F91FF90EF90DF90CF9000
:1024E000BF90AF909F908F907F906F905F90089576
:1024F000FC01A085B18521898C9190E0022E02C05B
:10250000959587950A94E2F780FFF6CF0484F585C8
:10251000E02D6083089581E691E09093BC02809362
:10252000BB0287E392E09093BE028093BD0285ECEC
:1025300090E09093C0028093BF0284EC90E090936F
:10254000C2028093C10280EC90E09093C402809319
:10255000C30281EC90E09093C6028093C50286ECA2
:1025600090E09093C8028093C70284E08093C902F0
:1025700083E08093CA0287E08093CB0285E080935A
:10258000CC0281E08093CD0208950F931F93CF93E7
:10259000DF938C01EB0109C02196D801ED91FC91EC
:1025A0000190F081E02DC801099568816623A1F7AB
:1025B000DF91CF911F910F910895EF92FF920F93AA
:1025C0001F93CF93DF938C017B01EA010CC0D701ED
:1025D0006D917D01D801ED91FC910190F081E02D8C
:1025E000C80109952197209791F7DF91CF911F910D
:1025F0000F91FF90EF900895DC01ED91FC91028026
:10260000F381E02D099508950F931F938C01DC0150
:10261000ED91FC910190F081E02D6DE00995D801DC
:10262000ED91FC910190F081E02DC8016AE00995DF
:102630001F910F9108950F931F938C010E94FC121C
:10264000C8010E9404131F910F9108952F923F9289
:102650004F925F926F927F928F929F92AF92BF92B2
:10266000CF92DF92EF92FF920F931F93DF93CF935E
:10267000CDB7DEB7A0970FB6F894DEBF0FBECDBFC3
:102680001C016A017B01411551056105710549F481
:10269000DC01ED91FC910190F081E02D60E3099562
:1026A00054C0882499245401422E5524662477244A
:1026B00001E010E00C0F1D1F080D191DC701B60128
:1026C000A30192010E949116F80160830894811C75
:1026D000911CA11CB11CC701B601A30192010E946B
:1026E0009116C901DA016C017D01C114D104E10424
:1026F000F104F1F681E0E82EF12CEC0EFD1EE80C61
:10270000F91C3E010894611C711CD501C40101979C
:10271000A109B1096C01C818D90814C0F601EE0D61
:10272000FF1D60816A3010F4605D01C0695CD101F9
:10273000ED91FC910190F081E02DC1010995089483
:10274000E108F1086E147F0449F7A0960FB6F894DB
:10275000DEBF0FBECDBFCF91DF911F910F91FF90D4
:10276000EF90DF90CF90BF90AF909F908F907F9031
:102770006F905F904F903F902F900895EF92FF924F
:102780000F931F93CF93DF93EC017A018B0177FFB7
:102790000FC0E881F9810190F081E02D6DE209958B
:1027A00010950095F094E094E11CF11C011D111DA1
:1027B000CE01B801A7012AE00E942613DF91CF9134
:1027C0001F910F91FF90EF900895DC0121153105C5
:1027D00041F4ED91FC910190F081E02D642F099579
:1027E00008952A30310519F40E94BE1308950E94FD
:1027F000261308950F931F938C010E94E513C801BF
:102800000E9404131F910F9108952F923F924F92AF
:102810005F926F927F928F929F92AF92BF92CF9270
:10282000DF92EF92FF920F931F93DF93CF93CDB779
:10283000DEB73B014C0119012A016D897E898F8920
:10284000988D6A197B098C099D09621A730A840A9A
:10285000950AA40193010E945F16E218F308040987
:102860001509A80197010E94B3162A0D3B1D4C1DA6
:102870005D1DB901CA01CF91DF911F910F91FF90AA
:10288000EF90DF90CF90BF90AF909F908F907F9010
:102890006F905F904F903F902F900895EF92FF922E
:1028A0000F931F937B018C016115710581059105C3
:1028B00029F420E030E040E050E00BC00E94E0004E
:1028C000A80197010E94B316AC01CB01DA019C016B
:1028D000AD01B901CA011F910F91FF90EF900895CA
:1028E0005058BB27AA270ED04DC13ED130F043D15E
:1028F00020F031F49F3F11F41EF433C10EF4E09543
:10290000E7FB29C1E92F4FD180F3BA17620773079C
:102910008407950718F071F49EF567C10EF4E095F1
:102920000B2EBA2FA02D0B01B90190010C01CA0189
:10293000A0011124FF27591B99F0593F50F4503E34
:1029400068F11A16F040A22F232F342F4427585F26
:10295000F3CF469537952795A795F0405395C9F73E
:102960007EF41F16BA0B620B730B840BBAF09150F6
:10297000A1F0FF0FBB1F661F771F881FC2F70EC095
:10298000BA0F621F731F841F48F487957795679568
:10299000B795F7959E3F08F0B3CF9395880F08F051
:1029A0009927EE0F9795879508950CD0EBC0E3D04B
:1029B00040F0DAD030F021F45F3F19F0CCC0511173
:1029C00015C1CFC0F0D098F39923C9F35523B1F3C3
:1029D000951B550BBB27AA2762177307840738F08E
:1029E0009F5F5F4F220F331F441FAA1FA9F333D0ED
:1029F0000E2E3AF0E0E830D091505040E695001CA1
:102A0000CAF729D0FE2F27D0660F771F881FBB1F5C
:102A1000261737074807AB07B0E809F0BB0B802D36
:102A2000BF01FF2793585F4F2AF09E3F510568F082
:102A300092C0DCC05F3FECF3983EDCF3869577955F
:102A40006795B795F7959F5FC9F7880F911D969584
:102A5000879597F90895E1E0660F771F881FBB1FE0
:102A6000621773078407BA0720F0621B730B840B8D
:102A7000BA0BEE1F88F7E095089504D06894B11161
:102A8000B5C0089598D088F09F5790F0B92F992736
:102A9000B751A0F0D1F0660F771F881F991F1AF069
:102AA000BA95C9F712C0B13081F09FD0B1E0089556
:102AB0009CC0672F782F8827B85F39F0B93FCCF3D7
:102AC000869577956795B395D9F73EF4909580955F
:102AD000709561957F4F8F4F9F4F0895E89409C07F
:102AE00097FB3EF490958095709561957F4F8F4F41
:102AF0009F4F9923A9F0F92F96E9BB279395F69557
:102B0000879577956795B795F111F8CFFAF4BB0FD4
:102B100011F460FF1BC06F5F7F4F8F4F9F4F16C038
:102B2000882311F096E911C0772321F09EE8872FC2
:102B3000762F05C0662371F096E8862F70E060E07E
:102B40002AF09A95660F771F881FDAF7880F9695F7
:102B5000879597F9089597F99F6780E870E060E09E
:102B600008959FEF80EC089500240A941616170626
:102B700018060906089500240A941216130614066E
:102B800005060895092E0394000C11F4882352F0D1
:102B9000BB0F40F4BF2B11F460FF04C06F5F7F4F89
:102BA0008F4F9F4F089557FD9058440F551F59F070
:102BB0005F3F71F04795880F97FB991F61F09F3F2A
:102BC00079F087950895121613061406551FF2CF53
:102BD0004695F1DF08C0161617061806991FF1CFA3
:102BE00086957105610508940895E894BB276627CA
:102BF0007727CB0197F908950BD0C4CFB5DF28F024
:102C0000BADF18F0952309F0A6CFABCF1124EECF91
:102C1000CADFA0F3959FD1F3950F50E0551F629F37
:102C2000F001729FBB27F00DB11D639FAA27F00D25
:102C3000B11DAA1F649F6627B00DA11D661F829F4C
:102C40002227B00DA11D621F739FB00DA11D621F31
:102C5000839FA00D611D221F749F3327A00D611D4E
:102C6000231F849F600D211D822F762F6A2F112430
:102C70009F5750408AF0E1F088234AF0EE0FFF1F83
:102C8000BB1F661F771F881F91505040A9F79E3FBA
:102C9000510570F060CFAACF5F3FECF3983EDCF3B4
:102CA000869577956795B795F795E7959F5FC1F7F7
:102CB000FE2B880F911D9695879597F90895629F31
:102CC000D001739FF001829FE00DF11D649FE00D24
:102CD000F11D929FF00D839FF00D749FF00D659F85
:102CE000F00D9927729FB00DE11DF91F639FB00D84
:102CF000E11DF91FBD01CF011124089597FB092E95
:102D000007260AD077FD04D049D006D000201AF457
:102D1000709561957F4F0895F6F7909581959F4F37
:102D20000895A1E21A2EAA1BBB1BFD010DC0AA1F0C
:102D3000BB1FEE1FFF1FA217B307E407F50720F024
:102D4000A21BB30BE40BF50B661F771F881F991F9F
:102D50001A9469F760957095809590959B01AC01E8
:102D6000BD01CF01089597FB092E05260ED057FD12
:102D700004D0D7DF0AD0001C38F450954095309528
:102D800021953F4F4F4F5F4F0895F6F790958095EF
:102D9000709561957F4F8F4F9F4F0895AA1BBB1B66
:102DA00051E107C0AA1FBB1FA617B70710F0A61B4B
:102DB000B70B881F991F5A95A9F780959095BC016C
:102DC000CD010895EE0FFF1F0590F491E02D0994B9
:102DD0002F923F924F925F926F927F928F929F922B
:102DE000AF92BF92CF92DF92EF92FF920F931F9319
:102DF000CF93DF93CDB7DEB7CA1BDB0B0FB6F894CA
:102E0000DEBF0FBECDBF09942A88398848885F8409
:102E10006E847D848C849B84AA84B984C884DF807A
:102E2000EE80FD800C811B81AA81B981CE0FD11D5E
:102E30000FB6F894DEBF0FBECDBFED010895F89434
:022E4000FFCFC2
:102E42002D2D496E666F2D2D006D6F64653A200041
:102E5200636F6C6F7256616C3A2000706F776572A7
:102E620056616C3A2000696E74657276616C3A2024
:102E720000523A200020473A200020423A20000126
:102E82000000000A0009000600020003000400011D
:102E920000FF00C800000032000000FF0000000038
:082EA200007812C512DD1200D8
:00000001FF
