:100000000C9463000C948B000C948B000C948B006C
:100010000C948B000C948B000C948B000C948B0034
:100020000C948B000C944D050C948B000C948B005D
:100030000C948B000C948B000C948B000C948B0014
:100040000C94910F0C948B000C9436110C948B0033
:100050000C948B000C948B000C948B000C948B00F4
:100060000C948B000C948B000000000024002700EF
:100070002A0000000000250028002B0000000000DE
:1000800023002600290004040404040404040202DA
:100090000202020203030303030301020408102007
:1000A0004080010204081020010204081020000012
:1000B0000007000201000003040600000000000029
:1000C000000013067F1211241FBECFEFD8E0DEBF61
:1000D000CDBF11E0A0E0B1E0EAE2FEE202C005908F
:1000E0000D92A237B107D9F712E0A2E7B1E001C043
:1000F0001D92A63DB107E1F710E0C6ECD0E004C0C8
:100100002297FE010E94D816C23CD107C9F70E946F
:100110008A0F0C9413170C940000A0E0B0E0E3E900
:10012000F0E00C94E416EC01A880B980CA80DB8072
:10013000A114B104C104D10441F484E2A82E89EDD4
:10014000B82E8BE5C82E87E0D82EC601B5012DE16B
:1001500033EF41E050E00E94A71627EA31E440E087
:1001600050E00E9453167B018C01C601B5012DE1C0
:1001700033EF41E050E00E94A716CA01B9012CEE0E
:1001800034EF4FEF5FEF0E9453166E0D7F1D801FFF
:10019000911F97FF04C06150704080409048688371
:1001A00079838A839B839B01AC015F77B901CA0184
:1001B000CDB7DEB7EAE00C9400170E948D000895D9
:1001C0008EE491E00E948D00089560934E0170933B
:1001D0004F0180935001909351010895F999FECFFA
:1001E00072BD61BDF89A80B50895F999FECF1FBA26
:1001F00072BD61BD40BD0FB6F894FA9AF99A0FBE70
:1002000008956093730110927501089582E08093C0
:100210007401109210020895CF93DF93EB01E885EB
:10022000F985828193818838910508F46DC08281B7
:100230009381853E910508F067C06FC084819581E8
:10024000809708F46FC084819581C79708F06AC0D1
:1002500086819781099708F465C0868197814297C6
:1002600008F060C01F821E828FEF9FEFAFEFBFEFDD
:100270008A839B83AC83BD833EC084819581823415
:10028000910508F441C0848195818037910508F07B
:100290003BC0369620E030E040E050E063E070E0A4
:1002A00080819181099780F180819181429760F5E9
:1002B0003FC082819381879708F041C0220F331F8E
:1002C000441F551F216008C08D919C910D97E0F44B
:1002D000220F331F441F551F34966134710519F0E6
:1002E0006E5F7F4FDDCF80E290E09F838E832A8315
:1002F0003B834C835D8381E090E09983888321E098
:1003000030E040E050E004C020E030E040E050E069
:10031000B901CA01DF91CF91089580911002843014
:1003200009F48CCF80911002843408F0A6CFECCF72
:10033000DF01129682819381469708F0BACF8D91A2
:100340009C911197069700F3BFCF0F931F93CF9304
:10035000DF938B01809110028A3108F460C0DB01C9
:100360001896ED91FC91199782819381859708F4F5
:1003700056C0828193818034910508F050C0DF011E
:10038000169640E050E060E070E0C2E0D0E022C0AD
:10039000FD01329780819181079728F180819181B9
:1003A0000E9708F547C08D919C911197829708F0A0
:1003B00047C0440F551F661F771F416009C08D91CC
:1003C0009C911197439758F5440F551F661F771F4F
:1003D00022961496809110029E012F5F3F4F90E06D
:1003E00028173907ACF2CE01019795958795F8014A
:1003F000978386830C971CF41782168210C0D8014D
:1004000012964D935D936D937C93159782E090E0E7
:100410008D939C9321E030E040E050E004C020E068
:1004200030E040E050E0B901CA01DF91CF911F9167
:100430000F9108958D919C911197439708F0B3CF38
:100440008D919C9111970A9750F3B9CF4F925F927B
:100450006F927F928F929F92AF92BF92CF92DF92D4
:10046000EF92FF920F931F93CF93DF93FB012A012B
:1004700039015801DA012D913C9182859385281725
:10048000390724F001E0802E912CDAC0C901880FD1
:10049000991F0084F185E02DE80FF91FC080D180FD
:1004A00020FD06C0CCE9DFEFB1E08B2E912C04C01B
:1004B000C4E6D0E088249924BE016A0D7B1D8827FC
:1004C00077FD8095982F0E9464157B018C0120E0B8
:1004D00030E040E45FE30E94F01520E030E048E4C3
:1004E00052E40E94C9140E943115C616D706E4F0E2
:1004F000C801B70120E030E040EA5FE30E94F01558
:1005000020E030E048E452E40E94C91420E030E0EA
:1005100040E85FE30E9465140E9431156C157D056B
:100520001CF021E030E076C0B501660F771F6C0F3C
:100530007D1F882777FD8095982F0E9464157B0189
:100540008C0120E030E040E45FE30E94F01520E001
:1005500030E048E452E40E94C9140E943115C616E6
:10056000D706E4F0C801B70120E030E040EA5FE3DD
:100570000E94F01520E030E048E452E40E94C914E3
:1005800020E030E040E85FE30E9465140E943115EE
:100590006C157D051CF022E030E03CC0C501880FE1
:1005A000991F8A0D9B1DC80FD91FBE01882777FD93
:1005B0008095982F0E9464157B018C0120E030E02B
:1005C00040E45FE30E94F01520E030E048E452E4AC
:1005D0000E94C9140E943115C616D70674F1C801CD
:1005E000B70120E030E040EA5FE30E94F01520E030
:1005F00030E048E452E40E94C91420E030E040E8D2
:100600005FE30E9465140E9431156C157D05ACF006
:1006100023E030E0F3018081918101969183808312
:10062000821793076CF011821082D2018D919C91F8
:10063000119701968D939C9303C088248A94982CDB
:10064000C401DF91CF911F910F91FF90EF90DF9048
:10065000CF90BF90AF909F908F907F906F905F9062
:100660004F9008952F923F924F925F926F927F9298
:100670008F929F92AF92BF92CF92DF92EF92FF92B2
:100680000F931F93DF93CF9300D000D000D0CDB74E
:10069000DEB71C015B01809110028D3008F47EC032
:1006A00081E090E09A8389831C821B8223E0822E62
:1006B000912C8C0E9D1EC1012E010894411C511CD1
:1006C000A201940109E713E00E942602892B09F098
:1006D00065C0C101B501A20194010E9426020197E3
:1006E00009F05CC0C101B501A20194010E9426027B
:1006F000892B09F053C0CC24DD24760166247724AD
:10070000C4018D829E832FC0C101B501A2012D813C
:100710003E8109E713E00E9426024C01C101B501A8
:10072000A2012D813E810E94260221E082169104C1
:1007300079F4892B99F5CC0CDD1CEE1CFF1C81E0B3
:1007400090E0A0E0B0E0C82AD92AEA2AFB2A08C033
:10075000892821F5019711F5CC0CDD1CEE1CFF1C3E
:100760000894611C711C8091100290E029813A81EB
:10077000281739074CF2D50117967C926E9216977E
:10078000F501C282D382E482F58283E090E0918316
:10079000808321E030E040E050E004C020E030E021
:1007A00040E050E0B901CA0126960FB6F894DEBFCA
:1007B0000FBECDBFCF91DF911F910F91FF90EF90B2
:1007C000DF90CF90BF90AF909F908F907F906F9071
:1007D0005F904F903F902F9008952F923F924F92AD
:1007E0005F926F927F928F929F92AF92BF92CF92C1
:1007F000DF92EF92FF920F931F93DF93CF93CDB7CA
:10080000DEB728970FB6F894DEBF0FBECDBF1C0130
:100810004B01DB011A968D919C911B9718161906B6
:100820000CF0A4C081E090E09A8389831896ED9142
:10083000FC91199782819381899708F497C08281EE
:1008400093818734910508F091C0AFC08481958170
:10085000459708F08BC0B2C0C101B401A301950156
:100860000CEB11E00E942602019709F07FC0CC2416
:10087000DD24760144245524C501AD829E83C30145
:100880006F82988756C0C101B4014F8158852D8170
:100890003E810CEB11E00E9426023C01B3E04B16B6
:1008A000510461F4C101B4014F8158852D813E810D
:1008B0000E9426026816790609F058C0C101B401E9
:1008C0004F8158852D813E810CEB11E00E9426025C
:1008D0005C01E3E04E16510459F4C101B4014F81AB
:1008E00058852D813E810E942602A816B906F1F591
:1008F0006114710489F4F1E0AF16B104B9F5CC0CC0
:10090000DD1CEE1CFF1C81E090E0A0E0B0E0C82AF6
:10091000D92AEA2AFB2A0AC091E06916710431F546
:10092000AB2821F5CC0CDD1CEE1CFF1C0894411CEF
:10093000511C29813A81D4011A968D919C911B9763
:10094000281739070CF49FCF17965C924E92169792
:10095000F401C282D382E482F58284E090E0918344
:10096000808321E030E040E050E004C020E030E04F
:1009700040E050E0B901CA0128960FB6F894DEBFF6
:100980000FBECDBFCF91DF911F910F91FF90EF90E0
:10099000DF90CF90BF90AF909F908F907F906F909F
:1009A0005F904F903F902F90089582E090E09A835F
:1009B0008983848195810B97C8F248CF83E090E0CA
:1009C0009A8389831C821B8233E0A32EB12CAC0E48
:1009D000BD1EC101B4013E010894611C711CA3013C
:1009E00095010CEB11E00E942602892B09F0BECF85
:1009F00033CF0F931F93CF93DF938C01EB0188E7E5
:100A000091E099878887809110028A871B86809160
:100A100074018530B9F5C8010E940C01611571059A
:100A20008105910591F5C801BE010E94A5016115DE
:100A300071058105910549F5C801BE010E94320387
:100A4000611571058105910501F5C801BE010E947E
:100A5000ED036115710581059105B9F48A859B85C2
:100A600006975CF08FEF9FEF998388831F821E8229
:100A70001A821B821C821D8208C082E0809374014E
:100A80001092100220E030E002C021E030E0C90105
:100A9000DF91CF911F910F9108951F920F920FB682
:100AA0000F9211242F933F934F935F936F937F93F4
:100AB0008F939F93AF93BF93EF93FF9381EA8093BC
:100AC000B200809173010E94E710482F8091760157
:100AD00090917701019690937701809376018091B0
:100AE00010028C3418F085E08093740180917401B9
:100AF0008330D1F0843020F4823009F059C006C030
:100B0000843071F1853009F053C04CC0442309F0A2
:100B10004FC080917601909177018436910508F459
:100B200043C0109210021EC0413009F041C08091B4
:100B30001002E82FF0E02091760130917701EE0F5E
:100B4000FF1FED58FE4F368325838F5F8093100281
:100B5000109277011092760184E08093740128C08E
:100B60004423B9F480911002E82FF0E0209176013F
:100B700030917701EE0FFF1FED58FE4F368325832E
:100B80008F5F80931002109277011092760183E0BC
:100B9000E4CF80917601909177018536910540F000
:100BA00085E0DBCF442321F4109277011092760187
:100BB00080917501882329F0442311F42D9A01C0F6
:100BC0002D98FF91EF91BF91AF919F918F917F9160
:100BD0006F915F914F913F912F910F900FBE0F90AA
:100BE0001F9018951092B000E1EBF0E080818B7FB0
:100BF000808380818260808380818E7F8083E0E734
:100C0000F0E080818160808381EA8093B2007894F3
:100C100082E080937401109210028091730160E071
:100C20000E947A100895609158017091590185E1F0
:100C300092E00E9401016FEF70E080E090E00E947E
:100C40004214609327026FEF70E080E090E00E9412
:100C50004214609328026FEF70E080E090E00E9401
:100C60004214609329020895AF92BF92CF92DF920F
:100C7000EF92FF920F931F93CF93DF93EC0120919C
:100C80002A0230912B022A3A310520F500D000D0FB
:100C9000B901882777FD8095982F2FEF30E040E04D
:100CA00050E0EDB7FEB7218332834383548320E0C5
:100CB00030E040E050E00AEAE02EF12C012D112D49
:100CC000AA24BB2465010E94F9139B010F900F9089
:100CD0000F900F9040912A0250912B02CA018A5A1C
:100CE00090408B3A910518F06FEF70E025C000D06E
:100CF00000D0BA01882777FD8095982F2FEF30E03C
:100D000040E050E0EDB7FEB7218332834383548344
:100D100025E531E040E050E01AEAE12EF12C012D0A
:100D2000112DAA24BB2465010E94F9132FEF30E096
:100D30000F900F900F900F9040912A0250912B022C
:100D4000CA01855591408A3A910518F0E0E0F0E03B
:100D500029C000D000D0BA01882777FD8095982F50
:100D60002FEF30E040E050E0EDB7FEB72183328353
:100D70004383548325E531E040E050E0BFEFEB2EA4
:100D8000B1E0FB2E012D112DAA24BB2465010E9488
:100D9000F913FB0160E070E02FEF30E00F900F904F
:100DA0000F900F9040912A0250912B02CA018F5F41
:100DB00091408B3A910548F500D000D0BA018827C0
:100DC00077FD8095982F2FEF30E040E050E0EDB7B1
:100DD000FEB721833283438354832AEA32E040E022
:100DE00050E0AFEFEA2EA1E0FA2E012D112DAA243A
:100DF000BB2465010E94F9139B01EFEFF0E060E076
:100E000070E00F900F900F900F9040912A02509138
:100E10002B02CA018A5A92408A3A910540F500D0C5
:100E200000D0BA01882777FD8095982F2FEF30E00A
:100E300040E050E0EDB7FEB7218332834383548313
:100E40002AEA32E040E050E0F4E5EF2EF3E0FF2E36
:100E5000012D112DAA24BB2465010E94F913EFEF87
:100E6000F0E020E030E00F900F900F900F90409155
:100E70002A0250912B02CA01845593408C3A910565
:100E800048F500D000D0BA01882777FD8095982FCB
:100E90002FEF30E040E050E0EDB7FEB72183328322
:100EA000438354832FEF33E040E050E0E4E5EE2E3F
:100EB000E3E0FE2E012D112DAA24BB2465010E9422
:100EC000F913FB016FEF70E020E030E00F900F901E
:100ED0000F900F9080912A0290912B0280509440A5
:100EE00031F4EFEFF0E06FEF70E02FEF30E0798357
:100EF00068833B832A83FD83EC83DF91CF911F912D
:100F00000F91FF90EF90DF90CF90BF90AF9008953A
:100F1000DF93CF9300D000D000D0CDB7DEB7CE01A5
:100F200001960E9434068981809324028B818093EC
:100F300025028D818093260226960FB6F894DEBF97
:100F40000FBECDBFCF91DF9108952F923F924F9268
:100F50005F926F927F928F929F92AF92BF92CF9249
:100F6000DF92EF92FF920F931F93DF93CF93CDB752
:100F7000DEB72E970FB6F894DEBF0FBECDBF9E87AB
:100F80008D87DC018D919C91119712962D913C914A
:100F9000139714964D915C91159760915C01709137
:100FA0005D017C010027F7FC0095102FC901AA27DD
:100FB00097FDA095BA2F8D839E83AF83B887CA0112
:100FC000AA2797FDA095BA2F89879A87AB87BC87F8
:100FD0006F3F710511F00CF048C000D000D0CB017C
:100FE000AA2797FDA095BA2FEDB7FEB7818392830C
:100FF000A383B483C801B70120E030E040E050E0B3
:10100000AFEFEA2EF12C012D112DAA24BB2465018E
:101010000E94F9137C836B8380915C0190915D0148
:10102000AA2797FDA095BA2FEDB7FEB781839283CB
:10103000A383B4836D817E818F81988520E030E029
:1010400040E050E00E94F9137A83698380915C014B
:1010500090915D01AA2797FDA095BA2FEDB7FEB735
:1010600081839283A383B48341C06F5F70401B016F
:10107000442437FC4094542C00D000D0FFEF6F2E56
:10108000712C812C912CADB7BEB711966D927D92CB
:101090008D929C921497C801B70120E030E040E0A7
:1010A00050E0EFEFEE2EF12C012D112D62015101D8
:1010B0000E94F9137C836B83EDB7FEB76182728265
:1010C000838294826D817E818F81988520E030E0DB
:1010D00040E050E00E94F9137A836983ADB7BEB750
:1010E00011966D927D928D929C92149769857A8566
:1010F0008B859C8520E030E040E050E00E94F913B1
:101100000F900F900F900F908B819C81ED85FE8545
:1011100091838083A981BA81B383A2837583648319
:101120002E960FB6F894DEBF0FBECDBFCF91DF91E4
:101130001F910F91FF90EF90DF90CF90BF90AF90F5
:101140009F908F907F906F905F904F903F902F90E7
:101150000895DF93CF9300D000D000D0CDB7DEB795
:10116000FE01319686E0DF011D928A95E9F78091B4
:10117000240289831A82809125028B831C828091AC
:1011800026028D831E82CF010E94A507898180934C
:1011900024028B81809325028D81809326022696DE
:1011A0000FB6F894DEBF0FBECDBFCF91DF9108958B
:1011B000609124028091520170E00E9421106091A0
:1011C00025028091540170E00E9421106091260256
:1011D0008091560170E00E9421100895AF92BF9255
:1011E000CF92DF92EF92FF920F931F9385E192E0EF
:1011F00066E172E00E94F904892B09F450C485E18C
:1012000092E00E9406018091180290911902A0912B
:101210001A02B0911B028F3F2FEF92072FEFA20708
:101220002FEFB20799F090931402809313029093DA
:101230001202809311020E94D90F60932C027093C6
:101240002D0280932E0290932F0228C00E94D90F66
:1012500020912C0230912D0240912E0250912F02AC
:10126000621B730B840B950B20915E0130915F0123
:1012700040916001509161012617370748075907CF
:1012800048F480911102909112029093140280937D
:10129000130204C0109214021092130280911302E0
:1012A000909114028F3F910509F482C18F3F9105FF
:1012B00011F00CF057C048EC8733940709F421C3B0
:1012C00068EC883396073CF5E0EA8F359E0709F411
:1012D00024C1F0EA80369F077CF428E8873792071C
:1012E00009F477C340E98F36940709F452C18F5748
:1012F000904809F05AC3D3C0E0EB8F349E0709F43D
:1013000091C2F0EC8F339F0709F4E9C08755984AE2
:1013100009F04BC341C248EE8731940709F45EC11E
:1013200068EE883196077CF4E8ED87329E0709F471
:101330009EC2F0EE8F319F0709F40DC18F52904D80
:1013400009F033C3F0C148EF8730940709F4B4C201
:101350006FEF8F3F960709F43CC38F50904F09F011
:1013600024C37FC2F0E48F3B9F0709F4A9C020E4A7
:10137000803C920734F540E28F3D940709F4BEC0EB
:1013800060E2803E96077CF4E0E18F3E9E0709F420
:10139000F1C0F8E1873E9F0709F41BC3875F9840BF
:1013A00009F003C32AC140E38F3C940709F411C339
:1013B00068E3873C960761F1875D984209F0F5C2C2
:1013C00008C3F0E68F399F0709F4B6C020E6803ADB
:1013D00092077CF440E58F3A940709F4F8C068E579
:1013E000873A960709F494C2875B984409F0DDC2F6
:1013F00034C0F0E78F389F0709F436C228E78738F2
:10140000920709F4ABC28759984609F0CEC2FDC1D4
:101410008091180290911902A0911A02B0911B02BA
:101420008F5F9F4FAF4FBF4F09F418C280912202C8
:1014300090912302039731F481E090E0909323028E
:10144000809322026FEF73E080E090E00E944214EC
:1014500070932B0260932A02BCC280911802909173
:101460001902A0911A02B0911B028F5F9F4FAF4FDC
:10147000BF4F09F4AEC280912202909123020097DF
:1014800029F480915A0190915B01A3C090935B0174
:1014900080935A0110922302109222029AC28091E4
:1014A000220290912302892B31F481E090E0909305
:1014B00023028093220210922B0210922A0289C2E8
:1014C0008091220290912302892B31F481E090E0F7
:1014D000909323028093220288E290E061C280917F
:1014E000220290912302892B31F481E090E09093C5
:1014F00023028093220286E990E052C28091220268
:1015000090912302892B31F481E090E090932302A3
:10151000809322028AEF90E043C280912202909150
:101520002302892B31F481E090E090932302809391
:10153000220285E591E034C280912202909123023B
:10154000892B31F481E090E0909323028093220272
:101550008CE791E025C28091220290912302892B91
:1015600031F481E090E090932302809322028EE494
:1015700092E016C28091220290912302892B31F4CD
:1015800081E090E090932302809322028AEA92E025
:1015900007C28091220290912302892B31F481E0CD
:1015A00090E0909323028093220289EE92E0F8C1AA
:1015B0008091220290912302892B31F481E090E006
:1015C000909323028093220288EE93E0E9C181E0A8
:1015D00090E09093230280932202FBC1809122022B
:1015E00090912302892B31F481E090E090932302C3
:1015F0008093220280E094E0D3C180911802909100
:101600001902A0911A02B0911B028F5F9F4FAF4F3A
:10161000BF4F09F4DEC183EC92E060E071E00E940C
:101620000F1383EC92E069E071E00E94F0124091A8
:10163000220250912302662757FD6095762F83EC96
:1016400092E02AE030E00E94EE1383EC92E060E149
:1016500071E00E94F01240912A0250912B026627FD
:1016600057FD6095762F83EC92E02AE030E00E94EF
:10167000EE1383EC92E06BE171E00E94F012409176
:101680005C0150915D01662757FD6095762F83ECD4
:1016900092E02AE030E00E94EE1383EC92E066E2F2
:1016A00071E00E94F01240916201509163016091DB
:1016B00064017091650183EC92E02AE030E00E94C1
:1016C000EE1383EC92E061E371E00E94F01240912E
:1016D000240250E060E070E083EC92E02AE030E029
:1016E0000E94D91383EC92E065E371E00E94F0124E
:1016F0004091250250E060E070E083EC92E02AE047
:1017000030E00E94D91383EC92E06AE371E00E941A
:10171000F0124091260250E060E070E083EC92E02D
:101720002AE030E054C18091180290911902A091F2
:101730001A02B0911B022091620130916301409125
:101740006401509165018F5F9F4FAF4FBF4F29F0EC
:101750002F5F3F4F4F4F5F4F04C02B5F3F4F4F4FA7
:101760005F4F209362013093630140936401509373
:1017700065018091620190916301A0916401B09133
:10178000650180509041A040B0400CF422C18FEF21
:101790009FE0A0E0B0E03DC0809118029091190256
:1017A000A0911A02B0911B02209162013091630155
:1017B00040916401509165018F5F9F4FAF4FBF4FC4
:1017C00029F0215030404040504004C02550304066
:1017D0004040504020936201309363014093640184
:1017E000509365018091620190916301A091640121
:1017F000B0916501B7FFEDC01092620110926301D4
:101800001092640110926501E4C082E390E0A0E0D0
:10181000B0E08093620190936301A0936401B09360
:101820006501D7C08091180290911902A0911A0207
:10183000B0911B028F5F9F4FAF4FBF4F09F4C9C0DC
:1018400080912202909123028130910551F08230E3
:1018500091050CF4BCCE029709F0B9CE83E090E07C
:10186000B8CE82E090E0B5CE8AE090E0B2CE809132
:10187000180290911902A0911A02B0911B022091B6
:101880005C0130915D018F5F9F4FAF4FBF4F19F0EB
:101890002F5F3F4F02C0265F3F4F30935D01209383
:1018A0005C0180915C0190915D018F5F91400CF42F
:1018B00090C08EEF91E027C080911802909119029C
:1018C000A0911A02B0911B0220915C0130915D0140
:1018D0008F5F9F4FAF4FBF4F19F02150304002C074
:1018E0002A50304030935D0120935C0180915C016F
:1018F00090915D0197FF6DC010925D0110925C01A7
:1019000068C08FEF90E090935D0180935C0161C0AF
:101910008091180290911902A0911A02B0911B02B5
:1019200020912A0230912B028F5F9F4FAF4FBF4F04
:1019300019F02F5F3F4F02C0265F3F4F30932B02BD
:1019400020932A0280912A0290912B0224E0803079
:1019500092070CF43EC08F5F934022C08091180222
:1019600090911902A0911A02B0911B0220912A02B3
:1019700030912B028F5F9F4FAF4FBF4F19F0215017
:10198000304002C02A50304030932B0220932A026C
:1019900080912A0290912B0297FF1BC081509C4F8F
:1019A00090932B0280932A0214C083EC92E06FE3A1
:1019B00071E00E94F012409118025091190260915A
:1019C0001A0270911B0283EC92E020E130E00E9449
:1019D000EE1382E791E060E070E0409122020E9405
:1019E000F50000912A0210912B02C80160E071E01D
:1019F0000E947216462F82E791E061E070E00E943B
:101A0000F500C80160E071E00E947216482F82E77D
:101A100091E062E070E00E94F50000915C0110919D
:101A20005D01C80160E071E00E947216462F82E7F6
:101A300091E063E070E00E94F500C80160E071E0B1
:101A40000E947216482F82E791E064E070E00E94E5
:101A5000F500E0906201F090630100916401109143
:101A60006501C801B70120E031E040E050E00E948C
:101A7000A71682E791E065E070E0422F0E94F50032
:101A8000C801B70120E031E040E050E00E94A71615
:101A9000462F82E791E066E070E00E94F5008091B9
:101AA000220290912302892B91F48091520160E0EF
:101AB00070E00E9421108091540160E070E00E946B
:101AC00021108091560160E070E00E942110809109
:101AD000220290912302019731F40E9488070E940C
:101AE000A9080E94D80880912202909123020297AF
:101AF00009F0BEC00E94D90F20913002309131020E
:101B00004091320250913302621B730B840B950B90
:101B1000209162013091630140916401509165010F
:101B2000261737074807590708F0A2C00E94D90FA7
:101B300060933002709331028093320290933302AB
:101B40000E94880720915C0130915D0180916601BF
:101B5000909167012817390724F430936701209387
:101B60006601809134029091350240916601509156
:101B70006701892B79F4CA010197909367018093DB
:101B80006601892BA1F481E090E090933502809367
:101B900034020DC0CA0101969093670180936601DB
:101BA0008217930724F0109235021092340200D06D
:101BB00000D06091240270E080E090E02091660106
:101BC00030916701442737FD4095542FEDB7FEB79C
:101BD000218332834383548320E030E040E050E0AF
:101BE000BFEFEB2EF12C012D112DAA24BB24650192
:101BF0000E94F913609324026091260270E080E055
:101C000090E02091660130916701442737FD4095AF
:101C1000542FEDB7FEB7218332834383548320E0F2
:101C200030E040E050E00E94F9136093260260919A
:101C3000250270E080E090E020916601309167011C
:101C4000442737FD4095542FEDB7FEB721833283EB
:101C50004383548320E030E040E050E00E94F913D9
:101C6000609325020F900F900F900F900E94D8085C
:101C70008091220290912302039709F088C00E946C
:101C8000D90F2091300230913102409132025091AF
:101C90003302621B730B840B950B20916201309110
:101CA0006301409164015091650126173707480789
:101CB000590708F06CC00E94D90F609330027093EE
:101CC00031028093320290933302909124028091EA
:101CD0002702891718F491509093240290912402BE
:101CE00080912702981718F49F5F90932402909197
:101CF000250280912802891718F4915090932502AB
:101D00009091250280912802981718F49F5F909374
:101D100025029091260280912902891718F491508A
:101D2000909326029091260280912902981718F428
:101D30009F5F90932602909124028091270298172A
:101D400021F590912502809128029817F1F4909145
:101D50002602809129029817C1F46EEF70E080E0AE
:101D600090E00E944214609327026EEF70E080E0E2
:101D700090E00E944214609328026EEF70E080E0D1
:101D800090E00E944214609329020E94D80880913A
:101D90002202909123020A9709F03CC00E94D90FB9
:101DA0002091300230913102409132025091330241
:101DB000621B730B840B950B61547F4180409040F4
:101DC00048F10E94D90F60933002709331028093E2
:101DD00032029093330280915C0190915D010197F2
:101DE00090935D0180935C010E9488070E94A9087E
:101DF0000E94D80880915C0190915D01892B51F47B
:101E000010922302109222028FEF90E090935D01D6
:101E100080935C011F910F91FF90EF90DF90CF9026
:101E2000BF90AF9008951F938091520161E00E948E
:101E30007A108091540161E00E947A1080915601DD
:101E400061E00E947A1082E791E060E070E00E9419
:101E5000EE00809322021092230282E791E061E07B
:101E600070E00E94EE00182F82E791E062E070E0DF
:101E70000E94EE00312F20E0280F311D30932B02FD
:101E800020932A0282E791E063E070E00E94EE0076
:101E9000182F82E791E064E070E00E94EE00312F9D
:101EA00020E0280F311D30935D0120935C01232B2E
:101EB00031F48FEF90E090935D0180935C0182E7B5
:101EC00091E065E070E00E94EE00182F82E791E05B
:101ED00066E070E00E94EE00312F20E0280F311DF7
:101EE000442737FD4095542F2093620130936301BE
:101EF000409364015093650185E192E00E94F205F0
:101F000083EC92E040E855E260E070E00E947311DB
:101F10001F9108950E94E70F0E94130F0E94EE0880
:101F2000FDCF1F920F920FB60F9211242F933F9364
:101F30008F939F93AF93BF9380913A0290913B020E
:101F4000A0913C02B0913D0230913E020196A11D4C
:101F5000B11D232F2D5F2D3720F02D570196A11D88
:101F6000B11D20933E0280933A0290933B02A093CE
:101F70003C02B0933D028091360290913702A091CD
:101F80003802B09139020196A11DB11D809336022D
:101F900090933702A0933802B0933902BF91AF916A
:101FA0009F918F913F912F910F900FBE0F901F9097
:101FB00018958FB7F89420913A0230913B024091E6
:101FC0003C0250913D028FBFB901CA010895789437
:101FD00084B5826084BD84B5816084BD85B582602E
:101FE00085BD85B5816085BDEEE6F0E080818160CC
:101FF0008083E1E8F0E0808182608083808181607D
:102000008083E0E8F0E0808181608083E1EBF0E0B4
:10201000808184608083E0EBF0E080818160808358
:10202000EAE7F0E080818460808380818260808341
:102030008081816080838081806880831092C1006C
:1020400008951F93CF93DF93182FEB0161E00E9457
:102050007A10E12FF0E0E255FF4F8491833051F484
:1020600080918000806880938000D0938900C09325
:1020700088003CC0843051F480918000806280935D
:102080008000D0938B00C0938A0030C0813039F437
:10209000209729F184B5806884BDC7BD27C08230F0
:1020A00039F42097E1F084B5806284BDC8BD1EC0BC
:1020B000863041F48091B00080688093B000C09376
:1020C000B30014C0873041F48091B00080628093E7
:1020D000B000C093B4000AC0C038D1051CF4812FF1
:1020E00060E002C0812F61E00E949A10DF91CF91E1
:1020F0001F910895282F30E0C90186569F4FFC019B
:1021000094912A573F4FF9018491882391F0E82F49
:10211000F0E0EE0FFF1FE859FF4FA591B491662341
:1021200029F48C91909589238C9308958C91892B17
:102130008C930895482F50E0CA0182559F4FFC01AF
:102140002491CA0186569F4FFC0194914A575F4FD4
:10215000FA0134913323D1F1222331F1233021F4D8
:10216000809180008F7705C0243031F48091800009
:102170008F7D8093800018C0213019F484B58F774B
:1021800004C0223021F484B58F7D84BD0DC026307B
:1021900021F48091B0008F7705C0273029F4809119
:1021A000B0008F7D8093B000E32FF0E0EE0FFF1FB3
:1021B000EE58FF4FA591B491662329F48C91909528
:1021C00089238C9308958C91892B8C930895682F83
:1021D00070E0CB0182559F4FFC012491CB018656C4
:1021E0009F4FFC0144916A577F4FFB0194919923C3
:1021F00019F420E030E038C0222331F1233021F4FB
:10220000809180008F7705C0243031F48091800068
:102210008F7D8093800018C0213019F484B58F77AA
:1022200004C0223021F484B58F7D84BD0DC02630DA
:1022300021F48091B0008F7705C0273029F4809178
:10224000B0008F7D8093B000892F90E0880F991F98
:1022500084589F4FFC01A591B4918C9120E030E00F
:10226000842311F021E030E0C90108951F920F92FC
:102270000FB60F9211242F933F934F935F936F9359
:102280007F938F939F93AF93BF93EF93FF9340916F
:10229000C600E091BF02F091C002CF01019660E854
:1022A00070E00E9472169C018091C1029091C2025E
:1022B0002817390739F0E15CFD4F40833093C002A5
:1022C0002093BF02FF91EF91BF91AF919F918F91AA
:1022D0007F916F915F914F913F912F910F900FBE22
:1022E0000F901F9018955F926F927F928F929F929E
:1022F000AF92BF92CF92DF92EF92FF920F931F9314
:10230000CF93DF93EC013A014B01413482E458074B
:102310008FE0680780E078070CF07FC060E874E821
:102320008EE190E0A40193010E94A7162150304055
:1023300040405040CA01B90122E030E040E050E0A6
:102340000E94A71659016A01A601950120953095B2
:102350004095509594E0220F331F441F551F9A95C6
:10236000D1F760E074E284EF90E00E94A716CA0102
:10237000B9012FEF30E040E050E00E945316A40175
:1023800093010E94A716C90181509F4F1816190684
:102390001CF4522E5A9403C055245394521A60E0F0
:1023A00079E08DE390E0A40193010E94A7162150EB
:1023B000304040405040CA01B90122E030E040E0E6
:1023C00050E00E94A716209530954095509583E0E7
:1023D000220F331F441F551F8A95D1F760E074E226
:1023E00084EF90E00E94A716CA01B9012FEF30E0F8
:1023F00040E050E00E945316A40193010E94A716EA
:10240000C90181509F4F181619061CF4822F815064
:1024100002C081E0821B851500F5E885F98581E021
:1024200090E00A8802C0880F991F0A94E2F780831F
:1024300060E079E08DE390E0A40193010E94A7168B
:102440002150304040405040CA01B90122E030E004
:1024500040E050E00E94A71604C0E885F98510828C
:102460009501EC81FD813083EE81FF812083EA8537
:10247000FB85208141E050E0CA010E8402C0880F34
:10248000991F0A94E2F7282B2083EA85FB85208197
:10249000CA010F8402C0880F991F0A94E2F7282B03
:1024A0002083EA85FB858081088802C0440F551F80
:1024B0000A94E2F7842B8083DF91CF911F910F91D3
:1024C000FF90EF90DF90CF90BF90AF909F908F9054
:1024D0007F906F905F900895FC01A085B185218960
:1024E0008C9190E0022E02C0959587950A94E2F7B0
:1024F00080FFF6CF0484F585E02D608308958CE697
:1025000091E09093C4028093C3028FE392E0909392
:10251000C6028093C50285EC90E09093C802809338
:10252000C70284EC90E09093CA028093C90280ECC9
:1025300090E09093CC028093CB0281EC90E090935A
:10254000CE028093CD0286EC90E09093D0028093EF
:10255000CF0284E08093D10283E08093D20287E0AF
:102560008093D30285E08093D40281E08093D502EA
:1025700008950F931F93CF93DF938C01EB0109C054
:102580002196D801ED91FC910190F081E02DC801D8
:10259000099568816623A1F7DF91CF911F910F9173
:1025A0000895EF92FF920F931F93CF93DF938C01C7
:1025B0007B01EA010CC0D7016D917D01D801ED913D
:1025C000FC910190F081E02DC80109952197209799
:1025D00091F7DF91CF911F910F91FF90EF900895A8
:1025E000DC01ED91FC910280F381E02D09950895C5
:1025F0000F931F938C01DC01ED91FC910190F08110
:10260000E02D6DE00995D801ED91FC910190F081EC
:10261000E02DC8016AE009951F910F9108950F936D
:102620001F938C010E94F012C8010E94F8121F91A2
:102630000F9108952F923F924F925F926F927F92E7
:102640008F929F92AF92BF92CF92DF92EF92FF92C2
:102650000F931F93DF93CF93CDB7DEB7A0970FB63D
:10266000F894DEBF0FBECDBF1C016A017B0141158E
:1026700051056105710549F4DC01ED91FC91019072
:10268000F081E02D60E3099554C088249924540119
:10269000422E55246624772401E010E00C0F1D1F04
:1026A000080D191DC701B601A30192010E948516EC
:1026B000F80160830894811C911CA11CB11CC70106
:1026C000B601A30192010E948516C901DA016C01CD
:1026D0007D01C114D104E104F104F1F681E0E82E9A
:1026E000F12CEC0EFD1EE80CF91C3E010894611C57
:1026F000711CD501C4010197A109B1096C01C81869
:10270000D90814C0F601EE0DFF1D60816A3010F487
:10271000605D01C0695CD101ED91FC910190F08197
:10272000E02DC10109950894E108F1086E147F04B9
:1027300049F7A0960FB6F894DEBF0FBECDBFCF917C
:10274000DF911F910F91FF90EF90DF90CF90BF909E
:10275000AF909F908F907F906F905F904F903F9041
:102760002F900895EF92FF920F931F93CF93DF93D3
:10277000EC017A018B0177FF0FC0E881F9810190AC
:10278000F081E02D6DE2099510950095F094E094AC
:10279000E11CF11C011D111DCE01B801A7012AE0A9
:1027A0000E941A13DF91CF911F910F91FF90EF902C
:1027B0000895DC012115310541F4ED91FC91019062
:1027C000F081E02D642F099508952A30310519F420
:1027D0000E94B21308950E941A1308950F931F9335
:1027E0008C010E94D913C8010E94F8121F910F9109
:1027F00008952F923F924F925F926F927F928F92A5
:102800009F92AF92BF92CF92DF92EF92FF920F937F
:102810001F93DF93CF93CDB7DEB73B014C01190176
:102820002A016D897E898F89988D6A197B098C09A7
:102830009D09621A730A840A950AA40193010E94F1
:102840005316E218F30804091509A80197010E941C
:10285000A7162A0D3B1D4C1D5D1DB901CA01CF9164
:10286000DF911F910F91FF90EF90DF90CF90BF907D
:10287000AF909F908F907F906F905F904F903F9020
:102880002F900895EF92FF920F931F937B018C017D
:10289000611571058105910529F420E030E040E0E3
:1028A00050E00BC00E94E000A80197010E94A7160B
:1028B000AC01CB01DA019C01AD01B901CA011F9144
:1028C0000F91FF90EF9008955058BB27AA270ED084
:1028D0004DC13ED130F043D120F031F49F3F11F48F
:1028E0001EF433C10EF4E095E7FB29C1E92F4FD167
:1028F00080F3BA17620773078407950718F071F41D
:102900009EF567C10EF4E0950B2EBA2FA02D0B019A
:10291000B90190010C01CA01A0011124FF27591B24
:1029200099F0593F50F4503E68F11A16F040A22F2A
:10293000232F342F4427585FF3CF4695379527959B
:10294000A795F0405395C9F77EF41F16BA0B620B9A
:10295000730B840BBAF09150A1F0FF0FBB1F661FE1
:10296000771F881FC2F70EC0BA0F621F731F841F24
:1029700048F4879577956795B795F7959E3F08F04A
:10298000B3CF9395880F08F09927EE0F9795879509
:1029900008950CD0EBC0E3D040F0DAD030F021F451
:1029A0005F3F19F0CCC0511115C1CFC0F0D098F3E2
:1029B0009923C9F35523B1F3951B550BBB27AA27C0
:1029C00062177307840738F09F5F5F4F220F331F32
:1029D000441FAA1FA9F333D00E2E3AF0E0E830D0FE
:1029E00091505040E695001CCAF729D0FE2F27D001
:1029F000660F771F881FBB1F261737074807AB07CF
:102A0000B0E809F0BB0B802DBF01FF2793585F4F43
:102A10002AF09E3F510568F092C0DCC05F3FECF3A6
:102A2000983EDCF3869577956795B795F7959F5F08
:102A3000C9F7880F911D9695879597F90895E1E05C
:102A4000660F771F881FBB1F621773078407BA07BB
:102A500020F0621B730B840BBA0BEE1F88F7E09516
:102A6000089504D06894B111B5C0089598D088F045
:102A70009F5790F0B92F9927B751A0F0D1F0660F6A
:102A8000771F881F991F1AF0BA95C9F712C0B13085
:102A900081F09FD0B1E008959CC0672F782F8827E0
:102AA000B85F39F0B93FCCF3869577956795B395C4
:102AB000D9F73EF490958095709561957F4F8F4F33
:102AC0009F4F0895E89409C097FB3EF49095809538
:102AD000709561957F4F8F4F9F4F9923A9F0F92FE4
:102AE00096E9BB279395F695879577956795B79562
:102AF000F111F8CFFAF4BB0F11F460FF1BC06F5F48
:102B00007F4F8F4F9F4F16C0882311F096E911C059
:102B1000772321F09EE8872F762F05C0662371F07A
:102B200096E8862F70E060E02AF09A95660F771F8E
:102B3000881FDAF7880F9695879597F9089597F982
:102B40009F6780E870E060E008959FEF80EC089553
:102B500000240A941616170618060906089500247C
:102B60000A9412161306140605060895092E0394F6
:102B7000000C11F4882352F0BB0F40F4BF2B11F46A
:102B800060FF04C06F5F7F4F8F4F9F4F089557FDC9
:102B90009058440F551F59F05F3F71F04795880FCB
:102BA00097FB991F61F09F3F79F087950895121662
:102BB00013061406551FF2CF4695F1DF08C016160E
:102BC00017061806991FF1CF8695710561050894BF
:102BD0000895E894BB2766277727CB0197F90895D6
:102BE0000BD0C4CFB5DF28F0BADF18F0952309F079
:102BF000A6CFABCF1124EECFCADFA0F3959FD1F3C0
:102C0000950F50E0551F629FF001729FBB27F00D9A
:102C1000B11D639FAA27F00DB11DAA1F649F6627EF
:102C2000B00DA11D661F829F2227B00DA11D621F3E
:102C3000739FB00DA11D621F839FA00D611D221FF8
:102C4000749F3327A00D611D231F849F600D211DDC
:102C5000822F762F6A2F11249F5750408AF0E1F07F
:102C600088234AF0EE0FFF1FBB1F661F771F881FC8
:102C700091505040A9F79E3F510570F060CFAACF08
:102C80005F3FECF3983EDCF3869577956795B795B3
:102C9000F795E7959F5FC1F7FE2B880F911D9695DD
:102CA000879597F90895629FD001739FF001829FE5
:102CB000E00DF11D649FE00DF11D929FF00D839FCB
:102CC000F00D749FF00D659FF00D9927729FB00D68
:102CD000E11DF91F639FB00DE11DF91FBD01CF017B
:102CE0001124089597FB092E07260AD077FD04D0FA
:102CF00049D006D000201AF4709561957F4F089551
:102D0000F6F7909581959F4F0895A1E21A2EAA1B80
:102D1000BB1BFD010DC0AA1FBB1FEE1FFF1FA2178B
:102D2000B307E407F50720F0A21BB30BE40BF50B88
:102D3000661F771F881F991F1A9469F76095709511
:102D4000809590959B01AC01BD01CF01089597FB43
:102D5000092E05260ED057FD04D0D7DF0AD0001C5F
:102D600038F450954095309521953F4F4F4F5F4F28
:102D70000895F6F790958095709561957F4F8F4FE8
:102D80009F4F0895AA1BBB1B51E107C0AA1FBB1F81
:102D9000A617B70710F0A61BB70B881F991F5A95E7
:102DA000A9F780959095BC01CD010895EE0FFF1F06
:102DB0000590F491E02D09942F923F924F925F92EB
:102DC0006F927F928F929F92AF92BF92CF92DF923B
:102DD000EF92FF920F931F93CF93DF93CDB7DEB7A0
:102DE000CA1BDB0B0FB6F894DEBF0FBECDBF099434
:102DF0002A88398848885F846E847D848C849B848B
:102E0000AA84B984C884DF80EE80FD800C811B8198
:102E1000AA81B981CE0FD11D0FB6F894DEBF0FBEC7
:0A2E2000CDBFED010895F894FFCF37
:102E2A002D2D496E666F2D2D006D6F64653A200059
:102E3A00636F6C6F7256616C3A2000706F776572BF
:102E4A0056616C3A2000696E74657276616C3A203C
:102E5A0000523A200020473A200020423A200055EA
:102E6A006E6B6E6F776E20636F64653A20000100A7
:102E7A0000000A000900060002000100FF00C80065
:102E8A00000032000000FF00000000006C12B912BE
:022E9A00D11253
:00000001FF
